:020000040800F2
:1000000000000320311900083518000837180008CF
:10001000391800083B1800083D18000800000000CF
:100020000000000000000000000000003F18000871
:100030004118000800000000431800084518000897
:100040008119000881190008811900088119000828
:100050008119000881190008811900088119000818
:100060008119000881190008811900088119000808
:1000700081190008811900088119000881190008F8
:1000800081190008811900088119000881190008E8
:1000900081190008811900088119000881190008D8
:1000A000811900084D1800088119000881190008FD
:1000B00081190008811900088119000881190008B8
:1000C00081190008811900088119000881190008A8
:1000D0008119000881190008811900088119000898
:1000E0008119000881190008811900088119000888
:1000F0008119000881190008811900088119000878
:100100008119000881190008811900088119000867
:100110008119000881190008811900088119000857
:100120008119000881190008811900088119000847
:100130008119000881190008811900088119000837
:100140008119000881190008811900088119000827
:100150008119000881190008811900088119000817
:100160008119000881190008811900088119000807
:100170008119000881190008811900080000000099
:1001800081190008811900088119000881190008E7
:1001900081190008811900088119000881190008D7
:0C01A000000000000000000081190008B1
:1001AC0010B5054C237833B9044B13B10448AFF3A5
:1001BC0000800123237010BD3801002000000000D6
:1001CC00C02A000808B5034B1BB103490348AFF321
:1001DC00008008BD000000003C010020C02A00087F
:1001EC0053B94AB9002908BF00281CBF4FF0FF3192
:1001FC004FF0FF3001F0F6B8ADF1080C6DE904CE0C
:10020C0000F006F8DDF804E0DDE9022304B07047E5
:10021C002DE9F047089D0C46002B4ED194468C4599
:10022C008646B2FA82F262D94AB1C2F120039140F9
:10023C0020FA03F30CFA02FC194300FA02FE4FEA0F
:10024C001C471FFA8CF6B1FBF7F44FEA1E4307FB71
:10025C00141143EA014304FB06F199420AD91CEB41
:10026C00030304F1FF3080F01281994240F20F81B8
:10027C00023C6344591A1FFA8EF3B1FBF7F007FBEB
:10028C00101143EA014300FB06F69E420AD91CEB0F
:10029C00030300F1FF3180F0FC809E4240F2F980B4
:1002AC00634402389B1B40EA044000211DB1D3403B
:1002BC000022C5E90032BDE8F0878B4205D90DB1AB
:1002CC00C5E9000100210846F5E7B3FA83F10029DE
:1002DC0046D1A34202D39042C0F0F080861A64EB60
:1002EC0003030120002DE6D0C5E90063E3E7002AF3
:1002FC0040F09080A1EB0C044FEA1C481FFA8CF7DD
:10030C000121B4FBF8F64FEA1E4308FB164443EAFE
:10031C00044307FB06F0984208D91CEB030306F1D3
:10032C00FF3402D2984200F2CD8026461C1A1FFAE6
:10033C008EF3B4FBF8F008FB104443EA044300FBD3
:10034C0007F79F4208D91CEB030300F1FF3402D2DC
:10035C009F4200F2B0802046DB1B40EA0640A5E736
:10036C00C1F120068B4022FA06F71F4320FA06FC47
:10037C0004FA01F343EA0C03F44000FA01F8380CD8
:10038C004FEA1349B4FBF0FE1FFA87FC00FB1E4436
:10039C0049EA04440EFB0CF9A14502FA01F20AD910
:1003AC003C190EF1FF3A80F08480A14540F2818027
:1003BC00AEF1020E3C44A4EB09041FFA83F9B4FB22
:1003CC00F0F300FB134449EA044403FB0CFCA44582
:1003DC0007D93C1903F1FF3067D2A44565D9023B1C
:1003EC003C4443EA0E40A0FB0293A4EB0C049C4259
:1003FC00CE469C4651D34ED055B1B8EB0E0364EBB0
:10040C000C0404FA06F6CB401E43CC40C5E900644C
:10041C00002150E7C2F1200320FA03F10CFA02FC90
:10042C0024FA03F394400C434FEA1C4800FA02FEF2
:10043C001FFA8CF7B3FBF8F008FB1031230C43EADE
:10044C00014300FB07F1994208D91CEB030300F1AF
:10045C00FF362CD299422AD9023863445B1AA4B2D3
:10046C00B3FBF8F108FB113344EA034401FB07F337
:10047C00A34208D91CEB040401F1FF3613D2A342AA
:10048C0011D902396444E41A41EA004139E70446BF
:10049C00F0E6084606E7C845AED2B9EB020E63EBB0
:1004AC00070C0138A8E73146EDE7034699E73046DB
:1004BC00D4E7D6467FE7634402384DE70646234629
:1004CC0008460FE7023E634430E700BF03685A005A
:1004DC004CBF43F0004323F000431844704700BF67
:1004EC002DE9F84349B34F1E044615463E464FF0DE
:1004FC00000909EB060101EBD171491004EBC108AD
:10050C004046FFF7E3FF8F4203464FEAC1000FD08E
:10051C000830AB42204407D8FFF7D8FF0138A84277
:10052C0008D201F10109E4E7894506D04E1EE0E747
:10053C00AB42F9D84046BDE8F8834FF0000840467E
:10054C00BDE8F883012807D0022807D0044B002807
:10055C000CBF18460020704702487047024870478D
:10056C00190C00081D0C0008210C000830B5214B9B
:10057C0083B004468D1E1BB301A92846AFF300803F
:10058C0088B301992A46FFF7ABFF014658B3FFF732
:10059C009DFF4B68A064012B28D0002B01F10400B7
:1005AC001FDBFFF793FF002323650368E064002B38
:1005BC000DDBFFF78BFF03460020236103B030BD3A
:1005CC000D4B0E49C91AC91018460191DAE7C3F34D
:1005DC000360FFF7B7FF034628B10020236103B087
:1005EC0030BD0123E0E700230920E6E700230520C6
:1005FC00E3E700BF000000000C2B0008EC2B000808
:10060C000368DA0710B5044606D49B0700F14800CE
:10061C0009D500F069FC2368590709D51A070ED5CE
:10062C00DB0613D510BD00F057FC23685907F5D431
:10063C0004F1D00000F060FC23681A07F0D404F534
:10064C00A87000F061FC2368DB06EBD404F5E870BD
:10065C00BDE8104000F09CBC0920704703460068C0
:10066C0000B11844704700BF704700BF70B5044616
:10067C000E46316C2046FFF779FF054688B9326C7F
:10068C006261236932462146012098470828F0D040
:10069C00072806D12846316CFFF7E6FF301D00F025
:1006AC000FFC02F015F900BF2DE9F0470D1DD0F835
:1006BC000C80D0F81890074614460FCDADF5727D1E
:1006CC000DF10C0CACE80F000FCDACE80F000FCD0A
:1006DC00ACE80F0095E80F0002AE4FF0000E8CE86E
:1006EC000F00C6F800E020E0336C7B614FF4F07231
:1006FC0031467AA802F06CF93B697AAA3946504621
:10070C009847889B73642146CDE9006905463B46B2
:10071C003A460120C047044618BB4FF4F0727AA940
:10072C00304602F055F9082D19D1316C3846FFF7D7
:10073C001DFF09345FFA84FA05460028D4D0B36B48
:10074C0073643A46CDE900693B464AF0100101203A
:10075C00C04730B928460DF5727DBDE8F087072DEE
:10076C0005D0092528460DF5727DBDE8F087204699
:10077C00316CFFF779FF03A800F0A2FB406C7047C7
:10078C00F0B5CB6B0B6401F1040C0E460546BCE8CE
:10079C000F00F9B001AC0FC4BCE80F000FC4BCE8EB
:1007AC000F000FC49CE80F004FF0FF3784E80F00D8
:1007BC00009706E02B696A462946984708280446A4
:1007CC0008D110992846FFF7D1FE0028F2D0092055
:1007DC0079B0F0BD6846FFF713FF062CF7D1314610
:1007EC002846FFF743FF00BFC160D96B82611964D3
:1007FC000022194658E700BF70B5C66843690B6400
:10080C00AEB903690A4604460D46014602209847D4
:10081C00072805D008280FD129462046FFF726FFC8
:10082C003046296CFFF720FF281D00F049FB012200
:10083C00FFF73AFF02F04CF802F04AF8C2681AB11E
:10084C00CA6B0A6400222FE79AE700BF704700BF0B
:10085C00836801460BB1012018477047012910D05D
:10086C0009D883B90F2A0ED800EB820218465368B8
:10087C00009A13607047033901298CBF02200120B4
:10088C007047084670470220704700BF00B585B01E
:10089C000A46002303A900911946FFF7DFFF0398CE
:1008AC0005B05DF804FB00BF012910D009D883B94D
:1008BC000F2A0ED8009900EB820209685160184685
:1008CC007047033901298CBF02200120704708466C
:1008DC0070470220704700BF10B584B0002303ACF2
:1008EC00039200940A461946FFF7DEFF04B010BDD0
:1008FC0070B5D36B136402F1040C05460C46BCE8CE
:10090C000F00ADF50E7D0DF15C0EAEE80F00BCE8EE
:10091C000F00AEE80F00BCE80F00AEE80F009CE83B
:10092C000F004FF0FF368EE80F00169610E0FFF721
:10093C00D3FF214616A8A847034616AA69460820E5
:10094C0083B9049B9847052806460CD0092809D082
:10095C0026996846FFF70AFE03466A460C2116A83C
:10096C00002BE4D0092616A8FFF74AFE30460DF5F9
:10097C000E7D70BD2DE9F04F9346CA6C89B00D46C3
:10098C0052F8041B069200F0030C002B79D00C0CCF
:10099C008DF81D400904E4B2059102EB840202219A
:1009AC002F6D8DF81C10BCF1020F08BFAA6B17F04D
:1009BC0001070CD005A9584600F084FB18B9082093
:1009CC0009B0BDE8F08F092009B0BDE8F08F1668BA
:1009DC00002EEFD000F008010191B2460297644658
:1009EC009946B9F1020F48D0B2F800A0568802F12E
:1009FC000408AA6C26F001030F2158469F18FFF734
:100A0C0045FF874237D82AF001023A44824294BF0C
:100A1C0000220122730003F002030AF0010A43EAE8
:100A2C000A03012B47D0022B31D0002BCBD114B1B0
:100A3C00002A40F0C98008F10402D2F800A0BAF1F3
:100A4C00000FCED105A95846029F00F03BFB0028B1
:100A5C00B9D1002FB3D00F215846FFF717FF0E2145
:100A6C0002465846FFF738FF674A0F215846FFF7F2
:100A7C0033FF0720A8E70022CCE7566802F10808EC
:100A8C00B7E7090205918DF81D30032188E7D8F8E6
:100A9C00006026F00043002C44D122B1019A002AB8
:100AAC005AD0002B58D0002E01DA08F1040801337B
:100ABC0008EB8302C1E7ECB9CAB1D8F80430D8F816
:100ACC000020991C4FEAD2723FF47DAF05F158011A
:100ADC000133049100F08B8008F10400FFF7BEFD98
:100AEC0004AB01462846AFF30080002857D108F12B
:100AFC000802A2E70D215846FFF7C8FE2B6A834275
:100B0C00F5D1AB6A9845F2D14046FFF7DFFC0F21D7
:100B1C0002465846FFF7E0FE2A4600215846FFF7EA
:100B2C00DBFEA6E70D2158460393FFF7AFFE2A6ABA
:100B3C00039B8242B7D1AA6A9045B4D10027042204
:100B4C00C5E90B724244AB626A63D8F80020BA4222
:100B5C0055DB01220292AAE7039408F1040A00264D
:100B6C0005F158071C460DE050460497FFF776FD3B
:100B7C000022014604AB284601360AF1040AAFF301
:100B8C000080E0B9A642EFD10D215846FFF77EFE5A
:100B9C00049BC5F82880C5E90803062014E7044621
:100BAC000D215846FFF772FE049E2862022C04BFEA
:100BBC00EE6205F12C06C5E90968062004E7234618
:100BCC00D8F80060039C6EE74046FFF77FFC08F105
:100BDC0004020446AA632846AFF3008000283FF4C1
:100BEC00F2AE22460F215846FFF776FE41E70C463F
:100BFC0058460D21FFF74AFE26462862DBE7581CB3
:100C0C0008EB800081E700BF000000000023B1E684
:100C1C000123AFE60223ADE62DE9F0430646C3B04F
:100C2C0015461C46042900F2D180DFE801F0AC51D6
:100C3C00CF2A0300002C40F0C980102A00F2C68095
:100C4C000368DC0600F1E78020AF384600F0AAF913
:100C5C00B46B394600234FF0010C0CFA03F22A4214
:100C6C00204603F1010303D050F8042B0A6004461C
:100C7C00042B01F10401F0D1B463384600F088F97B
:100C8C0099E0032C40F0A28094B204EB1243102B99
:100C9C004FEA124500F29A8003681F0700F1C380E7
:100CAC0020AF384600F052F9B26B07EBC50154B1D6
:100CBC000B46D01A01EBC401E4001D5843F8045B49
:100CCC008B42FAD12244B263384600F01DF972E02F
:100CDC00012C4FEA124895B271D0052C76D108EB55
:100CEC000509B9F1200F71D8B8F10F0F72D8B9F10D
:100CFC00100F036800F29F80D90708D523F0010379
:100D0C00304643F0020340F8483B00F0F1F820AFC6
:100D1C00384600F0EDF8B36B002D00F0B9806D0093
:100D2C006A1E07EBC80100250132043903EB82026D
:100D3C0053F8040B41F8040F9342F9D1002D00F045
:100D4C00A1804146102938BF10216B0010396F4625
:100D5C00013B07EBC1010133043902EB830352F869
:100D6C00040B41F8040F9A42F9D1012C00F0888051
:100D7C00B8F10F0FB26302D820A800F0B5F83846CE
:100D8C0000F0BAF817E00CBB806B23461FFA82FC0C
:100D9C000124371D04FA03F111EA0C0F024604D0AA
:100DAC0052F8041B47F8231010460133102BF1D1D5
:100DBC00AC0400D4B063002043B0BDE8F08308EB72
:100DCC000503102B02D8B8F1100F14D1022043B038
:100DDC00BDE8F083002DEED003685A075CD46F4653
:100DEC00384600F08DF8B26B6B00A8F11001013B96
:100DFC0007EBC101AFE70368DA0759D420AF3846D7
:100E0C0000F06EF8B36B002D89D10433B363384610
:100E1C0000F062F8CFE723F01003036000F5E870F0
:100E2C0000F0C0F810E723F00803036000F5A87089
:100E3C0000F08CF834E7D90708D523F0010343F010
:100E4C00020340F8483B00F053F83368580706D5C6
:100E5C00304623F0040340F8D03B00F051F820AFAB
:100E6C00384600F045F8684600F04AF8C8F1100220
:100E7C005200B36BA9F11005013A07EBC80153E717
:100E8C0020AFC2E7012CC0D0B8F10F0FB36392D8DA
:100E9C00384600F029F88EE723F0040340F8D03BE5
:100EAC006F4600F02DF8384600F02AF8B26B9BE73D
:100EBC00304623F0030340F8483B00F011F89DE75F
:100ECC0000F1340191E838009C46A6464CF8045DCC
:100EDC0090E8FF0FE54600BD90EC210B704700BF7A
:100EEC0080EC210B704700BF90EC200B704700BFCB
:100EFC0080EC200B704700BFD0EC200B704700BF7C
:100F0C00C0EC200B704700BFF0EC0201F0EC0211BA
:100F1C00F0EC0221F0EC0231F0EC0241F0EC025169
:100F2C00F0EC0261F0EC0271F0EC0281F0EC029159
:100F3C00F0EC02A1F0EC02B1F0EC02C1F0EC02D149
:100F4C00F0EC02E1F0EC02F1704700BFE0EC0201C2
:100F5C00E0EC0211E0EC0221E0EC0231E0EC0241A9
:100F6C00E0EC0251E0EC0261E0EC0271E0EC028199
:100F7C00E0EC0291E0EC02A1E0EC02B1E0EC02C189
:100F8C00E0EC02D1E0EC02E1E0EC02F1704700BFD2
:100F9C00B0FC0181B0FC0191B0FC01A1B0FC01B12D
:100FAC00704700BFA0FC0181A0FC0191A0FC01A135
:100FBC00A0FC01B1704700BFEC4600B52DE9005014
:100FCC002DE9FF1F4FF000032DE90C0001A9FFF7DD
:100FDC00D7FBDDF840E012B0704700BFEC4600B51F
:100FEC002DE900502DE9FF1F4FF000032DE90C00F7
:100FFC0001A9FFF701FCDDF840E012B0704700BF1B
:10100C00EC4600B52DE900502DE9FF1F4FF0000311
:10101C002DE90C0001A9FFF711FCDDF840E012B03E
:10102C00704700BFEC4600B52DE900502DE9FF1FBD
:10103C004FF000032DE90C0001ABFFF7D5FBDDF8F9
:10104C0040E012B0704700BFEC4600B52DE90050EF
:10105C002DE9FF1F4FF000032DE90C0001AAFFF74B
:10106C0047FCDDF840E012B0704700BF027A03463F
:10107C007AB9427AA2B14168013A10B44272086856
:10108C0003220C1D1A7202025C60000E10BC1A6066
:10109C0070470068013A1A7202021A60000E70471B
:1010AC00B020704700B585B0002303AA0092194602
:1010BC000C22FFF7D3FB039805B05DF804FB00BFCF
:1010CC00F0E700BF2DE9F043064685B00D464FF022
:1010DC0000082846FFF7CAFFB028044600F0DA8063
:1010EC00070646D500F0F003802B5ED0B02B73D0F2
:1010FC001BD8902B00F09B80A02B12D1C34303F084
:10110C0007034FF47F621A41010702F47F6201D595
:10111C0042F48042002319463046FFF77DFD00283B
:10112C00D7D0092005B0BDE8F083C02B6DD1C628FF
:10113C0000F09380C72800F0B28000F0F803C02BB9
:10114C0000F0D280C82800F0DD80C928E9D12846FB
:10115C00FFF78CFF020300F00F0002F47022013045
:10116C000243012105233046FFF756FD0028B0D07D
:10117C00D7E78300DBB21F1D0DF10C0900231946C4
:10118C00CDF800900D223046FFF768FB039BCDF89D
:10119C00009060064CBFDF1BFF1800230D22194680
:1011AC0030460397FFF780FB93E72846FFF75EFF77
:1011BC0024022043B0F5004FB3D004010023A2B2A7
:1011CC0019463046FFF728FD0028AAD114F4004F29
:1011DC0018BF4FF001087CE7B12851D0B22800F0BD
:1011EC00AD80B3286DD000F0FC03B42B99D000F087
:1011FC0007020132012342F4002219463046FFF760
:10120C000BFD00283FF465AF8BE700F0F803D02B03
:10121C0087D100F007020132052342F4002201219C
:10122C003046FFF7F9FC00283FF453AF79E700F0A4
:10123C000D030D2B3FF475AF03AF002300F00F022D
:10124C00194600973046FFF709FB002300970D2243
:10125C0019463046FFF728FB3BE72846FFF706FF09
:10126C00020300F00F00013002F47022032302434A
:10127C0019463046FFF7D0FC00283FF42AAF50E760
:10128C002846FFF7F3FE431EDBB20E2B02467FF619
:10129C0041AF46E7B8F1000F40D0002042E72846A6
:1012AC00FFF7E4FE431EDBB20E2B02463FF639AFCE
:1012BC00002304213046FFF7AFFC00283FF409AFB0
:1012CC002FE72846FFF7D2FE020300F00F00013093
:1012DC0002F470220123024319463046FFF79CFCAE
:1012EC0000283FF4F6AE1CE700F00F020132032396
:1012FC0042F4202219463046FFF78EFC00283FF4BA
:10130C00E8AE0EE72846FFF7B1FE00F0F00200F061
:10131C000F031032013343EA023222E703AC434697
:10132C0041460E2200943046FFF798FA009443464B
:10133C000F2241463046FFF7B7FAAEE700230DF116
:10134C000C090D221946CDF800903046FFF786FAAD
:10135C002846FFF78BFE0206039C4FF002070BD5C5
:10136C0000F07F00B840044428460394FFF77EFE4B
:10137C00030607F10707F3D400FA07F204F501742A
:10138C00224400230392CDF800900D2219463046DA
:10139C00FFF78AFA9DE600BF10B5C26C536884B0A3
:1013AC004FF0030C08321C0208461B0E01A90194D5
:1013BC0002928DF80CC08DF80D30FFF783FE04B04F
:1013CC0010BD00BF08B5FFF77BFE806C08BD00BFE9
:1013DC0008B5FFF775FEC06CC379023300EB8300D0
:1013EC0008BD00BF704700BF30B4002242610283C9
:1013FC00027000240025C0E902450274427430BC1E
:10140C007047416102830370DDE90023C0E90223C8
:10141C0000230374437470470174704710B504467D
:10142C00427C03789A4207D0627C237C9A420BD090
:10143C00637C0133637410BD0022018B406900F0A2
:10144C006BFC00236374EFE70122218B606900F0D1
:10145C0063FCEDE71A4B834216D070472046FFF72A
:10146C00DDFF2034174B9C42F8D1174A1368013327
:10147C00136041F28832934212D0134B1A6842F235
:10148C0010739A421AD010BD10B5104CEAE7002127
:10149C002046FFF7C1FF20340A4B9C42F7D1ECE702
:1014AC000A4CF9E77F212046FFF7B6FF2034054BA5
:1014BC009C42F7D1044B00221A60E4E7034CF6E798
:1014CC00580200205802002054010020580100202E
:1014DC0030B589B0002403940494059406940794C1
:1014EC000094194B1A6B42F001021A631A6B02F04A
:1014FC0001020092009A01941A6B42F080021A6366
:10150C001A6B02F080020192019A02941A6B42F05B
:10151C0040021A631B6B03F040030293029B0B4DBA
:10152C0022464FF4FF71284600F0F6FB4FF4FF7390
:10153C000393012304930594069403A9284600F011
:10154C00E5FA09B030BD00BF003802400018024077
:10155C0072B6FEE700B595B03022002108A801F064
:10156C00BEF9002303930493059306930793019309
:10157C00234A116C41F080511164126C02F08052BC
:10158C000192019A02931F4B1A6842F440421A606E
:10159C001B6803F440430293029B012308934FF40E
:1015AC008033099302230E934FF480020F9206228C
:1015BC001092B422119212930423139308A800F0F2
:1015CC00EFFBB0B900F0AEFBA8B90F2303930223D5
:1015DC000493002305934FF4A05306934FF4C05388
:1015EC000793052103A800F02BFE30B915B05DF868
:1015FC0004FBFFF7ADFFFFF7ABFFFFF7A9FF00BF41
:10160C00003802400070004008B500F0DBF9FFF72D
:10161C00A1FFFFF75DFF00F02DF900F0D7F8FEE712
:10162C00012800D0704738B54FF6FF73994208D0A7
:10163C0038BD2846FFF7D8FE013C2035002CF8DADF
:10164C00F6E70724004DF9E758010020F0B58BB000
:10165C005B4D00265B4FCDE90067802302222946B3
:10166C0002A8FFF7CEFE584CA4460DF1080EBEE8BA
:10167C000F00ACE80F009EE80700ACE80300ACF8E4
:10168C000020CDE9006780230422294602A8FFF739
:10169C00B8FE04F1200C0DF1080EBEE80F00ACE80A
:1016AC000F009EE80700ACE80300ACF80020CDE981
:1016BC0000678023082229460DEB0200FFF7A1FEEC
:1016CC0004F1400C0DF1080EBEE80F00ACE80F0061
:1016DC009EE80700ACE80300ACF80020CDE90067F9
:1016EC0080231022294602A8FFF78BFE04F1600C20
:1016FC000DF1080EBEE80F00ACE80F009EE80700E5
:10170C00ACE80300ACF80020CDE900678023202270
:10171C00294602A8FFF775FE04F1800C0DF1080EA6
:10172C00BEE80F00ACE80F009EE80700ACE8030031
:10173C00ACF80020CDE9006780234022294602A89E
:10174C00FFF75FFE04F1A00C0DF1080EBEE80F00D0
:10175C00ACE80F009EE80700ACE80300ACF80020F2
:10176C00CDE9006780231A46294602A8FFF749FEF7
:10177C0004F1C00C0DF1080EBEE80F00ACE80F0030
:10178C009EE80700ACE80300ACF80020CDE9006748
:10179C0080234FF48072294602A8FFF732FE04F131
:1017AC00E00E0DF1080CBCE80F00AEE80F009CE851
:1017BC000700AEE80300AEF800200BB0F0BD00BF90
:1017CC00001802400000F03F5801002008B5034803
:1017DC0000F014FEFFF73AFFFEE700BF58020020AE
:1017EC0008B54FF6FF710120FFF71AFF08BD000086
:1017FC0082B0002100910B4B5A6C42F480425A6427
:10180C005A6C02F480420092009A01911A6C42F0D8
:10181C0080521A641B6C03F080530193019B02B03D
:10182C00704700BF00380240FEE7FEE7FEE7FEE728
:10183C00FEE770477047704708B500F0DDF808BD4B
:10184C0008B5024800F022FE08BD00BF5802002077
:10185C000120704708B501F08FF8162303604FF094
:10186C00FF3008BD08B54FF0FF31FFF7F3FFFEE77F
:10187C007047000000B587B00023029303930493D4
:10188C000593009301931548154A026043608360E9
:10189C0041F29412C26003614361836100F018FF4E
:1018AC0090B94FF48053029302A90C4800F048FF02
:1018BC0068B90023009301936946084800F0C0FF03
:1018CC0040B907B05DF804FBFFF742FEE9E7FFF70C
:1018DC003FFEEEE7FFF73CFEF3E700BF58020020A7
:1018EC000000014002680E4B9A4200D0704700B5D0
:1018FC0083B00021019103F59C335A6C42F0010234
:10190C005A645B6C03F001030193019B0A46192096
:10191C0000F0CAF8192000F0D7F803B05DF804FB0A
:10192C0000000140DFF834D00D480E490E4A002368
:10193C0002E0D458C4500433C4188C42F9D30B4A77
:10194C000B4C002301E013600432A242FBD3FFF7DF
:10195C008FFF01F017F8FFF757FE704700000320C8
:10196C000000002034010020FC2B0008380100206E
:10197C0078050020FEE7000010B504460E4B1A78DF
:10198C004FF47A73B3FBF2F30C4A1068B0FBF3F02C
:10199C0000F0A8F868B90F2C01D901200AE0002248
:1019AC0021464FF0FF3000F07FF8054B1C60002003
:1019BC0000E0012010BD00BF04000020000000204A
:1019CC000800002008B50B4B1A6842F400721A602C
:1019DC001A6842F480621A601A6842F480721A60C3
:1019EC00032000F04FF80F20FFF7C6FFFFF700FFB2
:1019FC00002008BD003C0240034A1168034B1B78D1
:101A0C000B441360704700BFA002002004000020AC
:101A1C00014B1868704700BFA0020020002808DBAB
:101A2C000901C9B200F1604000F5614080F8001373
:101A3C00704700F00F000901C9B2014B19547047EF
:101A4C0014ED00E000B500F00700C0F1070CBCF18C
:101A5C00040F28BF4FF0040C031D062B0FD9C31E17
:101A6C004FF0FF3E0EFA0CF021EA000199400EFAFD
:101A7C0003FE22EA0E0241EA02005DF804FB002399
:101A8C00EEE70000074AD36823F4E0631B041B0C49
:101A9C00000200F4E060034343F0BF6343F40033FF
:101AAC00D360704700ED00E010B50446054BD868D4
:101ABC00C0F30220FFF7C6FF01462046FFF7AEFF3A
:101ACC0010BD00BF00ED00E0002807DB00F01F0296
:101ADC00400901239340024A42F82030704700BF6E
:101AEC0000E100E00138B0F1807F0BD24FF0E02331
:101AFC005861054AF02182F82310002098610722D2
:101B0C001A6170470120704700ED00E000230F2B95
:101B1C0000F2F98030B583B069E085684FEA430E76
:101B2C00032404FA0EF425EA0405CC6804FA0EF436
:101B3C002C438460446824EA02044A68C2F300120D
:101B4C009A402243426060E0DC08083450F82420BC
:101B5C0003F00705AD004FF00F0E0EFA05FE22EA5A
:101B6C000E0E0A69AA4042EA0E0240F8242060E0F8
:101B7C00092200E0002202FA0EF22A430234624DDE
:101B8C0045F82420614A94686FEA0C0224EA0C059B
:101B9C00D1F804E01EF4801F01D04CEA04055B4C24
:101BAC00A560E46802EA0405D1F804E01EF4001F05
:101BBC0001D04CEA0405554CE560646802EA040562
:101BCC00D1F804E01EF4003F01D04CEA04054F4C60
:101BDC006560246822404D6815F4803F01D04CEAC2
:101BEC0004024A4C226001330F2B00F28A8001223E
:101BFC009A400C6804EA020C32EA0404F3D14C68F3
:101C0C0004F00304013C012C87D94A6802F003025A
:101C1C00032A09D0C4685D000322AA4024EA020406
:101C2C008A68AA402243C2604A6802F00302022A70
:101C3C008AD004684FEA430E032202FA0EF224EA19
:101C4C0002044A6802F0030202FA0EF22243026016
:101C5C004A6812F4403FC6D0002201922C4A546CC0
:101C6C0044F480445464526C02F480420192019A10
:101C7C009C08A51C244A52F8255003F0030E4FEA89
:101C8C008E0E0F2202FA0EF225EA0205214A90422C
:101C9C003FF470AF02F58062904222D002F5806270
:101CAC00904220D002F5806290421ED002F58062F4
:101CBC0090421CD002F5806290421AD002F58062EC
:101CCC00904218D002F58062904216D002F58062E4
:101CDC00904214D002F5806290423FF449AF0A2240
:101CEC0049E7012247E7022245E7032243E70422A2
:101CFC0041E705223FE706223DE707223BE70822A2
:101D0C0039E703B030BD704700380140003C01405A
:101D1C0000380240000002400AB18161704709049A
:101D2C008161704710B582B000230193194B1A6C76
:101D3C0042F080521A641B6C03F080530193019B98
:101D4C00154B01221A64FFF763FE0446134B5B68C4
:101D5C0013F4803F08D1FFF75BFE001BB0F57A7FD0
:101D6C00F4D9032002B010BD0B4B01225A64FFF7CB
:101D7C004FFE0446094B5B6813F4003F07D1FFF795
:101D8C0047FE001BB0F57A7FF4D90320EAE7002068
:101D9C00E8E700BF0038024000000E42007000402F
:101DAC00002800F0E08170B582B00446036813F09F
:101DBC00010F3BD09F4B9B6803F00C03042B2CD0E2
:101DCC009C4B9B6803F00C03082B21D06368B3F584
:101DDC00803F4FD0B3F5A02F52D0964B1A6822F407
:101DEC0080321A601A6822F480221A606368002B11
:101DFC0050D0FFF70DFE05468E4B1B6813F4003FC9
:101E0C0014D1FFF705FE401B6428F5D90320B1E17E
:101E1C00884B5B6813F4800FD8D0864B1B6813F487
:101E2C00003F03D06368002B00F09F81236813F000
:101E3C00020F54D07F4B9B6813F00C0F3ED07D4BA0
:101E4C009B6803F00C03082B33D0E368002B68D09D
:101E5C00794B01221A60FFF7DBFD0546754B1B68B9
:101E6C0013F0020F54D1FFF7D3FD401B0228F5D914
:101E7C0003207FE16F4A136843F480331360B5E7A6
:101E8C006C4B1A6842F480221A601A6842F4803251
:101E9C001A60ABE7FFF7BCFD0546664B1B6813F4F5
:101EAC00003FC3D0FFF7B4FD401B6428F5D90320D5
:101EBC0060E1604B5B6813F4800FC6D15D4B1B680F
:101ECC0013F0020F03D0E368012B40F05081594A04
:101EDC00136823F0F803216943EAC10313602368F4
:101EEC0013F0080F42D063696BB3534B0122C3F854
:101EFC00802EFFF78DFD05464E4B5B6F13F0020FE6
:101F0C0034D1FFF785FD401B0228F5D9032031E1C0
:101F1C00484A136823F0F803216943EAC1031360AC
:101F2C00DDE7454B00221A60FFF772FD0546414B79
:101F3C001B6813F0020FD2D0FFF76AFD401B02287A
:101F4C00F5D9032016E13C4B0022C3F8802EFFF795
:101F5C005FFD0546374B5B6F13F0020F06D0FFF7A2
:101F6C0057FD401B0228F5D9032003E1236813F029
:101F7C00040F77D02F4B1B6C13F0805F33D10023F1
:101F8C0001932C4B1A6C42F080521A641B6C03F0B8
:101F9C0080530193019B0125284B1B6813F4807F10
:101FAC0023D0A368012B34D0052B38D0214B1A6FCA
:101FBC0022F001021A671A6F22F004021A67A36852
:101FCC00002B3DD0FFF724FD06461A4B1B6F13F078
:101FDC00020F46D1FFF71CFD801B41F2883398425B
:101FEC00F3D90320C6E00025D6E7144A136843F45E
:101FFC0080731360FFF70CFD0646104B1B6813F43F
:10200C00807FCED1FFF704FD801B0228F5D9032079
:10201C00B0E0084A136F43F001031367CFE7054B99
:10202C001A6F42F004021A671A6F42F001021A6723
:10203C00C5E700BF00380240000047420070004076
:10204C00FFF7E6FC0646524B1B6F13F0020F08D04D
:10205C00FFF7DEFC801B41F288339842F3D9032052
:10206C0088E0EDB9A369002B00F08380484A9268A0
:10207C0002F00C02082A51D0022B17D0454B00223B
:10208C001A66FFF7C5FC0446414B1B6813F0007F32
:10209C0042D0FFF7BDFC001B0228F5D9032069E0F4
:1020AC003B4A136C23F080531364DBE7394B00225B
:1020BC001A66FFF7ADFC0546354B1B6813F0007F25
:1020CC0006D0FFF7A5FC401B0228F5D9032051E0F0
:1020DC00E369226A1343626A43EA8213A26A5208D2
:1020EC00013A43EA0243E26A43EA0263284A536034
:1020FC00284B01221A66FFF78BFC0446244B1B6805
:10210C0013F0007F06D1FFF783FC001B0228F5D9E2
:10211C0003202FE000202DE000202BE0012B2BD002
:10212C001B4B5B6803F48001E269914226D103F0FA
:10213C003F02216A8A4223D1616A47F6C0721A4073
:10214C00B2EB811F1ED103F44031A26A5208013A4E
:10215C00B1EB024F18D103F07063E26AB3EB026F7C
:10216C0014D1002006E001207047012002E001207C
:10217C0000E0002002B070BD0120FBE70120F9E770
:10218C000120F7E70120F5E70120F3E70120F1E753
:10219C00003802400000474208B5264B9B6803F00C
:1021AC000C03042B41D0082B41D1224B5A6802F06E
:1021BC003F025B6813F4800F12D01E4B5968C1F3B9
:1021CC0088111D480023A1FB0001FEF709F8194BEB
:1021DC005B68C3F3014301335B00B0FBF3F027E012
:1021EC00144B5868C0F388104FEA401CBCEB000C31
:1021FC006EEB0E0E4FEA8E1343EA9C634FEA8C1182
:10220C00B1EB0C0163EB0E03DB0043EA5173C90025
:10221C0011EB000C43F10003990200234FEA8C20D0
:10222C0041EA9C51FDF7DCFFD1E7034800E003488D
:10223C0008BD00BF00380240001BB7000024F400AA
:10224C00002800F09B8070B50D4604464F4B1B6870
:10225C0003F00F038B4208D2CBB24C4A13701368B5
:10226C0003F00F038B4240F08B80236813F0020FB6
:10227C0017D013F0040F04D0454A936843F4E0538D
:10228C009360236813F0080F04D0414A936843F419
:10229C00604393603E4A936823F0F003A1680B43BC
:1022AC009360236813F0010F32D06368012B21D0A7
:1022BC009A1E012A25D9364A126812F0020F61D0F3
:1022CC0033498A6822F0030213438B60FFF7A0FBAB
:1022DC0006462F4B9B6803F00C036268B3EB820F2E
:1022EC0016D0FFF795FB801B41F288339842F0D94A
:1022FC00032042E0264A126812F4003FE0D101208C
:10230C003BE0234A126812F0007FD9D1012034E05F
:10231C001E4B1B6803F00F03AB4207D9EAB21B4BF1
:10232C001A701B6803F00F03AB422DD1236813F016
:10233C00040F06D0164A936823F4E053E1680B436C
:10234C009360236813F0080F07D0114A936823F4A5
:10235C006043216943EAC1039360FFF71DFF0C4BF7
:10236C009B68C3F303130B4AD35CD8400A4B186029
:10237C000A4B1868FFF700FB002070BD0120704766
:10238C000120FAE70120F8E70120F6E7003C0240C3
:10239C0000380240D82A0008000000200800002065
:1023AC0010B4036A046A24F001040462846924F002
:1023BC00F00C4CEA021223F00A030B438261036215
:1023CC0010BC704710B4036A23F0100303628469D5
:1023DC00036A24F4704C4CEA023223F0A00343EA63
:1023EC0001138261036210BC7047836823F0700391
:1023FC000B4343F0070383607047000090F83D30B7
:10240C00DBB2012B37D1022380F83D300268D36850
:10241C0043F00103D3600368194A934220D0B3F10F
:10242C00804F1DD0A2F57C42934219D002F58062F8
:10243C00934215D002F58062934211D002F5784296
:10244C0093420DD002F57052934209D0A2F594320A
:10245C00934205D01A6842F001021A6000207047BE
:10246C009A6802F00702062A07D01A6842F00102A5
:10247C001A6000207047012070470020704700BF91
:10248C0000000140704770477047704710B5044614
:10249C0003681A6912F0020F11D0DA6812F0020FF9
:1024AC000DD06FF002021A610123037703689B6958
:1024BC0013F0030F70D0FFF7E6FF00232377236898
:1024CC001A6912F0040F12D0DA6812F0040F0ED051
:1024DC006FF004021A610223237723689B6913F4BB
:1024EC00407F5FD02046FFF7CEFF00232377236881
:1024FC001A6912F0080F12D0DA6812F0080F0ED019
:10250C006FF008021A61042323772368DB6913F048
:10251C00030F4ED02046FFF7B6FF00232377236826
:10252C001A6912F0100F12D0DA6812F0100F0ED0D8
:10253C006FF010021A61082323772368DB6913F408
:10254C00407F3DD02046FFF79EFF00232377236872
:10255C001A6912F0010F03D0DA6812F0010F36D1AC
:10256C0023681A6912F0800F03D0DA6812F0800F1A
:10257C0034D123681A6912F0400F03D0DA6812F0D4
:10258C00400F32D123681A6912F0200F03D0DA6899
:10259C0012F0200F30D110BDFFF774FF2046FFF76B
:1025AC0073FF8AE72046FFF76DFF2046FFF76CFFAD
:1025BC009BE72046FFF766FF2046FFF765FFACE779
:1025CC002046FFF75FFF2046FFF75EFFBDE76FF089
:1025DC0001021A612046FEF73DFFC1E76FF0800251
:1025EC001A61204600F073F9C3E76FF040021A61DC
:1025FC002046FFF74AFFC5E76FF020021A6120461C
:10260C0000F064F9C7E700000368304A904212D02A
:10261C00B0F1804F0FD0A2F57C4290420BD002F566
:10262C008062904207D002F58062904203D002F59E
:10263C007842904203D123F070034A681343234A33
:10264C0090422AD0B0F1804F27D0A2F57C42904224
:10265C0023D002F5806290421FD002F58062904236
:10266C001BD002F57842904217D002F5705290427E
:10267C0013D002F5806290420FD002F58062904236
:10268C000BD0A2F59832904207D002F580629042AE
:10269C0003D002F58062904203D123F44073CA68E0
:1026AC00134323F080034A69134303608B68C362AE
:1026BC000B688362054B984203D003F58063984204
:1026CC0001D10B6903630123436170470000014092
:1026DC0040B310B5044690F83D30F3B1022384F8B2
:1026EC003D30214651F8040BFFF78EFF012384F88F
:1026FC00463084F83E3084F83F3084F8403084F81B
:10270C00413084F8423084F8433084F8443084F803
:10271C00453084F83D30002010BD80F83C30FFF788
:10272C00E1F8DBE70120704710B4846824F47F4C97
:10273C0042EA03220A4342EA0C02826010BC704750
:10274C0090F83C30012B78D010B50446012380F86A
:10275C003C30022380F83D300268936823F47F43B9
:10276C0023F0770393600B68602B4CD029D8402B57
:10277C0054D00CD9502B22D1CA6849680068FFF795
:10278C000FFE50212068FFF730FE002005E0202BC3
:10279C000DD009D9302B0AD00120012384F83D300B
:1027AC00002384F83C3010BD0BB1102B05D1194619
:1027BC002068FFF71AFE0020EFE70120EDE701206B
:1027CC00EBE7B3F5805F34D0B3F5005F0CD1CB6889
:1027DC004A6889680068FFF7A7FF2268936843F48A
:1027EC00804393600020D8E7702B24D1CB684A68D3
:1027FC0089680068FFF798FF2268936843F07703B5
:10280C0093600020C9E7CA6849680068FFF7DAFDE1
:10281C0060212068FFF7E9FD0020BEE7CA6849681F
:10282C000068FFF7BDFD40212068FFF7DEFD0020AA
:10283C00B3E70020B1E70120AFE7022070470000AA
:10284C0090F83C20012A3CD010B40346012280F8B9
:10285C003C20022280F83D2002685068946820F0E9
:10286C00700C086840EA0C0050601A6816488242E6
:10287C001AD0B2F1804F17D0A0F57C40824213D011
:10288C0000F5806082420FD000F5806082420BD050
:10289C0000F57840824207D000F57050824203D098
:1028AC00A0F59430824204D124F08004496821437D
:1028BC009160012283F83D20002083F83C0010BC7D
:1028CC0070470220704700BF0000014070477047FE
:1028DC0008B5062000F034F80120FEF7C3FF0244CF
:1028EC000346934200D1704703F8011BF9E71F29F7
:1028FC0038B505460C4604D9162303604FF0FF305B
:10290C0038BDD0F8182112B152F821304BB92846F5
:10291C0000F030F8224601462846BDE8384000F069
:10292C0017B8012B0AD0591C03D1162303600120C0
:10293C00E6E7002142F82410204698470020DFE704
:10294C00024B01461868FFF7D2BF00BF0C000020F5
:10295C0038B5074D00230446084611462B60FEF798
:10296C0079FF431C02D12B6803B1236038BD00BF33
:10297C00DC030020FEF76CBF014B1868704700BFEA
:10298C000C00002070B50D4D0D4C641BA4100026DE
:10299C00A64209D10B4D0C4C00F08CF8641BA41012
:1029AC000026A64205D170BD55F8043B9847013668
:1029BC00EEE755F8043B98470136F2E7EC2B00089C
:1029CC00EC2B0008EC2B0008F82B00087047704724
:1029DC000A44914200F1FF3300D1704710B511F851
:1029EC00014B03F8014F9142F9D110BD024B13B1C9
:1029FC00024800F005B8704700000000192A0008D2
:102A0C00002301461A46184600F014B838B5074D95
:102A1C00074C641BA4101CB9BDE8384000F050B83A
:102A2C00013C55F824309847F5E700BFF82B000817
:102A3C00FC2B00082DE9F047DFF86CA00646DAF80D
:102A4C00000098460F469146FFF7C0FF174B1C68D5
:102A5C000CB9174C1C606568DAF800001F2D05DDF9
:102A6C00FFF7B5FF4FF0FF30BDE8F0879EB104EBE8
:102A7C0085010122C1F88890D4F88831AA4013430B
:102A8C00C4F88831022EC1F8088102BFD4F88C3109
:102A9C001343C4F88C316B1C0235636044F8257009
:102AAC00FFF795FF0020DFE730010020E403002052
:102ABC00E8030020F8B500BFF8BC08BC9E46704780
:0C2ACC00F8B500BFF8BC08BC9E4670477F
:102AD80000000000000000000102030406070809C6
:102AE80008B10181B0B000840000000008B1018184
:102AF800B0B000840000000008B10181B0B00084CB
:042B080000000000C9
:102B0C0010D7FF7F0100000064DAFF7FB0A90280BC
:102B1C00F0DAFF7FB0B0A88040DBFF7F010000003F
:102B2C004CDBFF7FB0B0AA8080DBFF7FAE71B28040
:102B3C004CDCFF7F0100000048DCFF7FAB3F38809E
:102B4C00A8DCFF7F01000000B0DCFF7FB0B0AA80E2
:102B5C00ECDCFF7F0100000098DDFF7FAA0DB28046
:102B6C0014DEFF7FB0AF0880A4E0FF7F01000000FF
:102B7C00A8E0FF7FAD3F028048E3FF7F010000002B
:102B8C0024E5FF7F0084048038E5FF7F010000000E
:102B9C0034E5FF7FB0AD048000E8FF7FB0A8038070
:102BAC0024E8FF7F44FFFF7F28E8FF7F48FFFF7F7B
:102BBC0034E8FF7F0100000064E8FF7FB0B0A8801C
:102BCC0010E9FF7F0100000084EAFF7FB0AB0A80B0
:102BDC00FCEBFF7F08FFFF7F08ECFF7F010000008C
:0C2BEC00F9290008D1010008ED170008CD
:042BF800AD01000823
:102BFC000024F40001000000100000001000002070
:102C0C0000000000A40200200C030020740300202C
:102C1C0000000000000000000000000000000000A8
:102C2C000000000000000000000000000000000098
:102C3C000000000000000000000000000000000088
:102C4C000000000000000000000000000000000078
:102C5C000000000000000000000000000000000068
:102C6C000000000000000000000000000000000058
:102C7C000000000000000000000000000000000048
:102C8C000000000000000000000000000000000038
:102C9C000000000000000000010000000000000027
:102CAC000E33CDAB34126DE6ECDE05000B000000EC
:102CBC000000000000000000000000000000000008
:102CCC0000000000000000000000000000000000F8
:102CDC0000000000000000000000000000000000E8
:102CEC0000000000000000000000000000000000D8
:102CFC0000000000000000000000000000000000C8
:102D0C0000000000000000000000000000000000B7
:102D1C0000000000000000000000000000000000A7
:042D2C00E0030020A0
:0400000508001931A5
:00000001FF
