:020000040800F2
:100000000000032075220008792100087B210008E8
:100010007D2100087F2100088121000800000000E8
:100020000000000000000000000000008321000824
:1000300085210008000000008721000889210008B0
:10004000C5220008C5220008C5220008C5220008F4
:10005000C5220008C5220008C5220008C5220008E4
:10006000C5220008C5220008C5220008C5220008D4
:10007000C5220008C5220008C5220008C5220008C4
:10008000C5220008C5220008C5220008C5220008B4
:10009000C5220008C5220008C5220008C5220008A4
:1000A000C522000891210008C5220008C5220008C9
:1000B000C5220008C5220008C5220008C522000884
:1000C000C5220008C5220008C5220008C522000874
:1000D000C5220008C5220008C5220008C522000864
:1000E000C5220008C5220008C5220008C522000854
:1000F000C5220008C5220008C5220008C522000844
:10010000C5220008C5220008C5220008C522000833
:10011000C5220008C5220008C5220008C522000823
:10012000C5220008C5220008C5220008C522000813
:10013000C5220008C5220008C5220008C522000803
:10014000C5220008C5220008C5220008C5220008F3
:10015000C5220008C5220008C5220008C5220008E3
:10016000C5220008C5220008C5220008C5220008D3
:10017000C5220008C5220008C522000800000000B2
:10018000C5220008C5220008C5220008C5220008B3
:10019000C5220008C5220008C5220008C5220008A3
:0C01A0000000000000000000C522000864
:1001B00010B5054C237833B9044B13B10448AFF3A1
:1001C00000800123237010BD5001002000000000BA
:1001D000AC42000808B5034B1BB103490348AFF319
:1001E000008008BD0000000054010020AC4200085F
:1001F00081F0004102E000BF83F0004330B54FEAD8
:1002000041044FEA430594EA050F08BF90EA020F44
:100210001FBF54EA000C55EA020C7FEA645C7FEAD7
:10022000655C00F0E2804FEA5454D4EB5555B8BFFA
:100230006D420CDD2C4480EA020281EA030382EA6B
:10024000000083EA010180EA020281EA0303362DFD
:1002500088BF30BD11F0004F4FEA01314FF4801CD0
:100260004CEA113102D0404261EB410113F0004FE2
:100270004FEA03334CEA133302D0524263EB430399
:1002800094EA050F00F0A780A4F10104D5F1200E37
:100290000DDB02FA0EFC22FA05F2801841F1000192
:1002A00003FA0EF2801843FA05F359410EE0A5F166
:1002B00020050EF1200E012A03FA0EFC28BF4CF097
:1002C000020C43FA05F3C01851EBE37101F000454D
:1002D00007D54FF0000EDCF1000C7EEB00006EEB5A
:1002E0000101B1F5801F1BD3B1F5001F0CD34908E4
:1002F0005FEA30004FEA3C0C04F101044FEA44523B
:1003000012F5800F80F09A80BCF1004F08BF5FEAC1
:10031000500C50F1000041EB045141EA050130BDA1
:100320005FEA4C0C404141EB0101013C28BFB1F5B3
:10033000801FE9D291F0000F04BF01460020B1FAFE
:1003400081F308BF2033A3F10B03B3F120020CDAD1
:100350000C3208DD02F1140CC2F10C0201FA0CF0AF
:1003600021FA02F10CE002F11402D8BFC2F1200C14
:1003700001FA02F120FA0CFCDCBF41EA0C019040CA
:10038000E41AA2BF01EB0451294330BD6FEA040413
:100390001F3C1CDA0C340EDC04F11404C4F12002FE
:1003A00020FA04F001FA02F340EA030021FA04F310
:1003B00045EA030130BDC4F10C04C4F1200220FA67
:1003C00002F001FA04F340EA0300294630BD21FAA5
:1003D00004F0294630BD94F0000F83F4801306BF6B
:1003E00081F480110134013D4EE77FEA645C18BF5F
:1003F0007FEA655C29D094EA050F08BF90EA020FF6
:1004000005D054EA000C04BF1946104630BD91EAED
:10041000030F1EBF0021002030BD5FEA545C05D1F0
:100420004000494128BF41F0004130BD14F580042F
:100430003CBF01F5801130BD01F0004545F0FE41A3
:1004400041F470014FF0000030BD7FEA645C1ABFD8
:10045000194610467FEA655C1CBF0B46024650EA0F
:10046000013406BF52EA033591EA030F41F400213B
:1004700030BD00BF90F0000F04BF0021704730B5C1
:100480004FF4806404F132044FF000054FF0000196
:1004900050E700BF90F0000F04BF0021704730B557
:1004A0004FF4806404F1320410F0004548BF40422C
:1004B0004FF000013EE700BF42004FEAE2014FEA81
:1004C00031014FEA02701FBF12F07F4393F07F4F5C
:1004D00081F06051704732F07F4208BF704793F05F
:1004E0007F4F04BF41F40021704730B54FF4607472
:1004F00001F0004521F000411CE700BF50EA010275
:1005000008BF704730B54FF000050AE050EA01021D
:1005100008BF704730B511F0004502D5404261EB8D
:1005200041014FF4806404F132045FEA915C3FF4CE
:10053000D8AE4FF003025FEADC0C18BF03325FEA6B
:10054000DC0C18BF033202EBDC02C2F1200300FA1C
:1005500003FC20FA02F001FA03FE40EA0E0021FA41
:1005600002F11444BDE600BF70B54FF0FF0C4CF42F
:10057000E06C1CEA11541DBF1CEA135594EA0C0FE1
:1005800095EA0C0F00F0DEF82C4481EA030621EA1C
:100590004C5123EA4C5350EA013518BF52EA033557
:1005A00041F4801143F4801338D0A0FB02CE4FF009
:1005B0000005E1FB02E506F00042E0FB03E54FF039
:1005C0000006E1FB03569CF0000F18BF4EF0010E31
:1005D000A4F1FF04B6F5007F64F5407404D25FEA2D
:1005E0004E0E6D4146EB060642EAC62141EA5551E0
:1005F0004FEAC52040EA5E504FEACE2EB4F1FD0C22
:1006000088BFBCF5E06F1ED8BEF1004F08BF5FEA9F
:10061000500E50F1000041EB045170BD06F0004651
:1006200046EA010140EA020081EA0301B4EB5C04FE
:10063000C2BFD4EB0C0541EA045170BD41F48011F6
:100640004FF0000E013C00F3AB8014F1360FDEBF1B
:10065000002001F0004170BDC4F10004203C35DAF7
:100660000C341BDC04F11404C4F1200500FA05F37A
:1006700020FA04F001FA05F240EA020001F000421B
:1006800021F0004110EBD37021FA04F642EB060191
:100690005EEA430E08BF20EAD37070BDC4F10C04BB
:1006A000C4F1200500FA04F320FA05F001FA04F27F
:1006B00040EA020001F0004110EBD37041F100016B
:1006C0005EEA430E08BF20EAD37070BDC4F1200576
:1006D00000FA05F24EEA020E20FA04F301FA05F2DE
:1006E00043EA020321FA04F001F0004121FA04F286
:1006F00020EA020000EBD3705EEA430E08BF20EA56
:10070000D37070BD94F0000F0FD101F0004640008F
:1007100041EB010111F4801F08BF013CF7D041EA11
:10072000060195F0000F18BF704703F00046520015
:1007300043EB030313F4801F08BF013DF7D043EAE6
:100740000603704794EA0C0F0CEA135518BF95EA9C
:100750000C0F0CD050EA410618BF52EA4306D1D123
:1007600081EA030101F000414FF0000070BD50EA42
:10077000410606BF1046194652EA430619D094EACC
:100780000C0F02D150EA013613D195EA0C0F05D1B6
:1007900052EA03361CBF104619460AD181EA03010A
:1007A00001F0004141F0FE4141F470014FF00000C2
:1007B00070BD41F0FE4141F4780170BD70B54FF05D
:1007C000FF0C4CF4E06C1CEA11541DBF1CEA1355DD
:1007D00094EA0C0F95EA0C0F00F0A7F8A4EB0504BF
:1007E00081EA030E52EA03354FEA013100F08880B6
:1007F0004FEA03334FF0805545EA131343EA12637F
:100800004FEA022245EA111545EA10654FEA002633
:100810000EF000419D4208BF964244F1FD0404F5EC
:10082000407402D25B084FEA3202B61A65EB030548
:100830005B084FEA32024FF480104FF4002CB6EB05
:10084000020E75EB030E22BFB61A754640EA0C0085
:100850005B084FEA3202B6EB020E75EB030E22BFC5
:10086000B61A754640EA5C005B084FEA3202B6EB06
:10087000020E75EB030E22BFB61A754640EA9C00C5
:100880005B084FEA3202B6EB020E75EB030E22BF95
:10089000B61A754640EADC0055EA060E18D04FEA53
:1008A000051545EA16754FEA06164FEAC30343EAF3
:1008B00052734FEAC2025FEA1C1CC0D111F4801FC0
:1008C0000BD141EA00014FF000004FF0004CB6E7B9
:1008D00011F4801F04BF01430020B4F1FD0C88BF58
:1008E000BCF5E06F3FF6AFAEB5EB030C04BFB6EB63
:1008F000020C5FEA500C50F1000041EB045170BD56
:100900000EF0004E4EEA113114EB5C04C2BFD4EB82
:100910000C0541EA045170BD41F480114FF0000E06
:10092000013C90E645EA060E8DE60CEA135594EA82
:100930000C0F08BF95EA0C0F3FF43BAF94EA0C0F85
:100940000AD150EA01347FF434AF95EA0C0F7FF4FA
:1009500025AF104619462CE795EA0C0F06D152EA4E
:1009600003353FF4FDAE1046194622E750EA410632
:1009700018BF52EA43067FF4C5AE50EA41047FF443
:100980000DAF52EA43057FF4EBAE12E74FF0FF3CA8
:1009900006E000BF4FF0010C02E000BF4FF0010C79
:1009A0004DF804CD4FEA410C7FEA6C5C4FEA430CF2
:1009B00018BF7FEA6C5C1BD001B050EA410C0CBF41
:1009C00052EA430C91EA030F02BF90EA020F0020A3
:1009D000704710F1000F91EA030F58BF994208BF0A
:1009E00090422CBFD8176FEAE37040F001007047C7
:1009F0004FEA410C7FEA6C5C02D150EA013C07D11E
:100A00004FEA430C7FEA6C5CD6D152EA033CD3D068
:100A10005DF8040B704700BF8446104662468C4662
:100A20001946634600E000BF01B5FFF7B7FF002895
:100A300048BF10F1000F01BD4DF808EDFFF7F4FFBE
:100A40000CBF012000205DF808FB00BF4DF808ED49
:100A5000FFF7EAFF34BF012000205DF808FB00BF6C
:100A60004DF808EDFFF7E0FF94BF012000205DF88E
:100A700008FB00BF4DF808EDFFF7CEFF94BF012043
:100A800000205DF808FB00BF4DF808EDFFF7C4FF3C
:100A900034BF012000205DF808FB00BF4FEA410C85
:100AA0007FEA6C5C02D150EA013C0AD14FEA430C68
:100AB0007FEA6C5C02D152EA033C02D14FF00000A5
:100AC00070474FF0010070474A0011D212F5001232
:100AD00011D20DD56FF47873B3EB62520ED44FEA96
:100AE000C12343F0004343EA505323FA02F0704716
:100AF0004FF00000704750EA013002D14FF0FF3054
:100B000070474FF00000704753B94AB9002908BF39
:100B100000281CBF4FF0FF314FF0FF3001F0F6B856
:100B2000ADF1080C6DE904CE00F006F8DDF804E044
:100B3000DDE9022304B070472DE9F047089D0C461B
:100B4000002B4ED194468C458646B2FA82F262D989
:100B50004AB1C2F12003914020FA03F30CFA02FCDF
:100B6000194300FA02FE4FEA1C471FFA8CF6B1FB4C
:100B7000F7F44FEA1E4307FB141143EA014304FB59
:100B800006F199420AD91CEB030304F1FF3080F00F
:100B90001281994240F20F81023C6344591A1FFAB4
:100BA0008EF3B1FBF7F007FB101143EA014300FBA2
:100BB00006F69E420AD91CEB030300F1FF3180F0D8
:100BC000FC809E4240F2F980634402389B1B40EA5D
:100BD000044000211DB1D3400022C5E90032BDE828
:100BE000F0878B4205D90DB1C5E900010021084607
:100BF000F5E7B3FA83F1002946D1A34202D390422C
:100C0000C0F0F080861A64EB03030120002DE6D0CB
:100C1000C5E90063E3E7002A40F09080A1EB0C04F3
:100C20004FEA1C481FFA8CF70121B4FBF8F64FEA93
:100C30001E4308FB164443EA044307FB06F09842B0
:100C400008D91CEB030306F1FF3402D2984200F2EC
:100C5000CD8026461C1A1FFA8EF3B4FBF8F008FB71
:100C6000104443EA044300FB07F79F4208D91CEBFA
:100C7000030300F1FF3402D29F4200F2B08020460D
:100C8000DB1B40EA0640A5E7C1F120068B4022FAB3
:100C900006F71F4320FA06FC04FA01F343EA0C03AB
:100CA000F44000FA01F8380C4FEA1349B4FBF0FEA7
:100CB0001FFA87FC00FB1E4449EA04440EFB0CF9B2
:100CC000A14502FA01F20AD93C190EF1FF3A80F06F
:100CD0008480A14540F28180AEF1020E3C44A4EB39
:100CE00009041FFA83F9B4FBF0F300FB134449EA4B
:100CF000044403FB0CFCA44507D93C1903F1FF3065
:100D000067D2A44565D9023B3C4443EA0E40A0FBB0
:100D10000293A4EB0C049C42CE469C4651D34ED089
:100D200055B1B8EB0E0364EB0C0404FA06F6CB40A5
:100D30001E43CC40C5E90064002150E7C2F1200306
:100D400020FA03F10CFA02FC24FA03F394400C435A
:100D50004FEA1C4800FA02FE1FFA8CF7B3FBF8F0CA
:100D600008FB1031230C43EA014300FB07F19942D1
:100D700008D91CEB030300F1FF362CD299422AD983
:100D8000023863445B1AA4B2B3FBF8F108FB1133D9
:100D900044EA034401FB07F3A34208D91CEB040413
:100DA00001F1FF3613D2A34211D902396444E41A87
:100DB00041EA004139E70446F0E6084606E7C8453F
:100DC000AED2B9EB020E63EB070C0138A8E731464F
:100DD000EDE7034699E73046D4E7D6467FE763441C
:100DE00002384DE70646234608460FE7023E6344B5
:100DF00030E700BF03685A004CBF43F0004323F0C4
:100E000000431844704700BF2DE9F84349B34F1E13
:100E1000044615463E464FF0000909EB060101EB7A
:100E2000D171491004EBC1084046FFF7E3FF8F4240
:100E300003464FEAC1000FD00830AB42204407D828
:100E4000FFF7D8FF0138A84208D201F10109E4E711
:100E5000894506D04E1EE0E7AB42F9D84046BDE8D2
:100E6000F8834FF000084046BDE8F883012807D01A
:100E7000022807D0044B00280CBF184600207047FA
:100E800002487047024870473515000839150008B8
:100E90003D15000830B5214B83B004468D1E1BB3B1
:100EA00001A92846AFF3008088B301992A46FFF7CD
:100EB000ABFF014658B3FFF79DFF4B68A064012BC1
:100EC00028D0002B01F104001FDBFFF793FF002364
:100ED00023650368E064002B0DDBFFF78BFF0346FF
:100EE0000020236103B030BD0D4B0E49C91AC91053
:100EF00018460191DAE7C3F30360FFF7B7FF034633
:100F000028B10020236103B030BD0123E0E70023B6
:100F10000920E6E700230520E3E700BF000000000A
:100F20002C4300080C4400080368DA0710B5044697
:100F300006D49B0700F1480009D500F069FC23683E
:100F4000590709D51A070ED5DB0613D510BD00F0D9
:100F500057FC23685907F5D404F1D00000F060FC79
:100F600023681A07F0D404F5A87000F061FC236828
:100F7000DB06EBD404F5E870BDE8104000F09CBC43
:100F8000092070470346006800B11844704700BF4D
:100F9000704700BF70B504460E46316C2046FFF71F
:100FA00079FF054688B9326C626123693246214671
:100FB000012098470828F0D0072806D12846316C30
:100FC000FFF7E6FF301D00F00FFC03F07DF800BFD7
:100FD0002DE9F0470D1DD0F80C80D0F81890074689
:100FE00014460FCDADF5727D0DF10C0CACE80F0081
:100FF0000FCDACE80F000FCDACE80F0095E80F0067
:1010000002AE4FF0000E8CE80F00C6F800E020E0C2
:10101000336C7B614FF4F07231467AA803F0D4F858
:101020003B697AAA394650469847889B73642146A3
:10103000CDE9006905463B463A460120C0470446D3
:1010400018BB4FF4F0727AA9304603F0BDF8082DB2
:1010500019D1316C3846FFF71DFF09345FFA84FA65
:1010600005460028D4D0B36B73643A46CDE90069D5
:101070003B464AF010010120C04730B928460DF523
:10108000727DBDE8F087072D05D0092528460DF5AE
:10109000727DBDE8F0872046316CFFF779FF03A829
:1010A00000F0A2FB406C7047F0B5CB6B0B6401F114
:1010B000040C0E460546BCE80F00F9B001AC0FC4A5
:1010C000BCE80F000FC4BCE80F000FC49CE80F0081
:1010D0004FF0FF3784E80F00009706E02B696A465F
:1010E000294698470828044608D110992846FFF752
:1010F000D1FE0028F2D0092079B0F0BD6846FFF794
:1011000013FF062CF7D131462846FFF743FF00BFF7
:10111000C160D96B826119640022194658E700BF8B
:1011200070B5C66843690B64AEB903690A460446E4
:101130000D46014602209847072805D008280FD100
:1011400029462046FFF726FF3046296CFFF720FF8F
:10115000281D00F049FB0122FFF73AFF02F0B4FF1F
:1011600002F0B2FFC2681AB1CA6B0A6400222FE70C
:101170009AE700BF704700BF836801460BB10120AA
:1011800018477047012910D009D883B90F2A0ED803
:1011900000EB820218465368009A136070470339C7
:1011A00001298CBF022001207047084670470220A9
:1011B000704700BF00B585B00A46002303A900911F
:1011C0001946FFF7DFFF039805B05DF804FB00BF89
:1011D000012910D009D883B90F2A0ED8009900EB45
:1011E00082020968516018467047033901298CBF93
:1011F000022001207047084670470220704700BF58
:1012000010B584B0002303AC039200940A4619463B
:10121000FFF7DEFF04B010BD70B5D36B136402F1AD
:10122000040C05460C46BCE80F00ADF50E7D0DF133
:101230005C0EAEE80F00BCE80F00AEE80F00BCE8A3
:101240000F00AEE80F009CE80F004FF0FF368EE86D
:101250000F00169610E0FFF7D3FF214616A8A84707
:10126000034616AA6946082083B9049B98470528B7
:1012700006460CD0092809D026996846FFF70AFED1
:1012800003466A460C2116A8002BE4D0092616A8AE
:10129000FFF74AFE30460DF50E7D70BD2DE9F04F8B
:1012A0009346CA6C89B00D4652F8041B069200F0B2
:1012B000030C002B79D00C0C8DF81D400904E4B20E
:1012C000059102EB840202212F6D8DF81C10BCF1F8
:1012D000020F08BFAA6B17F001070CD005A95846EA
:1012E00000F084FB18B9082009B0BDE8F08F092090
:1012F00009B0BDE8F08F1668002EEFD000F00801AD
:101300000191B246029764469946B9F1020F48D05E
:10131000B2F800A0568802F10408AA6C26F0010376
:101320000F2158469F18FFF745FF874237D82AF00C
:1013300001023A44824294BF00220122730003F06A
:1013400002030AF0010A43EA0A03012B47D0022BE9
:1013500031D0002BCBD114B1002A40F0C98008F164
:101360000402D2F800A0BAF1000FCED105A9584668
:10137000029F00F03BFB0028B9D1002FB3D00F2112
:101380005846FFF717FF0E2102465846FFF738FF71
:10139000674A0F215846FFF733FF0720A8E70022CE
:1013A000CCE7566802F10808B7E7090205918DF805
:1013B0001D30032188E7D8F8006026F00043002C98
:1013C00044D122B1019A002A5AD0002B58D0002EC5
:1013D00001DA08F10408013308EB8302C1E7ECB934
:1013E000CAB1D8F80430D8F80020991C4FEAD2725C
:1013F0003FF47DAF05F158010133049100F08B807B
:1014000008F10400FFF7BEFD04AB01462846AFF328
:101410000080002857D108F10802A2E70D215846A4
:10142000FFF7C8FE2B6A8342F5D1AB6A9845F2D12B
:101430004046FFF7DFFC0F2102465846FFF7E0FE6B
:101440002A4600215846FFF7DBFEA6E70D21584645
:101450000393FFF7AFFE2A6A039B8242B7D1AA6AC1
:101460009045B4D100270422C5E90B724244AB6217
:101470006A63D8F80020BA4255DB01220292AAE73B
:10148000039408F1040A002605F158071C460DE0F4
:1014900050460497FFF776FD0022014604AB28462C
:1014A00001360AF1040AAFF30080E0B9A642EFD199
:1014B0000D215846FFF77EFE049BC5F82880C5E93C
:1014C0000803062014E704460D215846FFF772FE74
:1014D000049E2862022C04BFEE6205F12C06C5E9C9
:1014E0000968062004E72346D8F80060039C6EE7ED
:1014F0004046FFF77FFC08F104020446AA63284631
:10150000AFF3008000283FF4F2AE22460F21584688
:10151000FFF776FE41E70C4658460D21FFF74AFEDD
:1015200026462862DBE7581C08EB800081E700BFF5
:10153000000000000023B1E60123AFE60223ADE680
:101540002DE9F0430646C3B015461C46042900F2B7
:10155000D180DFE801F0AC51CF2A0300002C40F02D
:10156000C980102A00F2C6800368DC0600F1E7801B
:1015700020AF384600F0AAF9B46B394600234FF08B
:10158000010C0CFA03F22A42204603F1010303D0B6
:1015900050F8042B0A600446042B01F10401F0D139
:1015A000B463384600F088F999E0032C40F0A2803B
:1015B00094B204EB1243102B4FEA124500F29A80CA
:1015C00003681F0700F1C38020AF384600F052F9CE
:1015D000B26B07EBC50154B10B46D01A01EBC40145
:1015E000E4001D5843F8045B8B42FAD12244B263F5
:1015F000384600F01DF972E0012C4FEA124895B20E
:1016000071D0052C76D108EB0509B9F1200F71D8FE
:10161000B8F10F0F72D8B9F1100F036800F29F8074
:10162000D90708D523F00103304643F0020340F800
:10163000483B00F0F1F820AF384600F0EDF8B36B0E
:10164000002D00F0B9806D006A1E07EBC80100256F
:101650000132043903EB820253F8040B41F8040F02
:101660009342F9D1002D00F0A1804146102938BFE6
:1016700010216B0010396F46013B07EBC1010133AC
:10168000043902EB830352F8040B41F8040F9A4229
:10169000F9D1012C00F08880B8F10F0FB26302D8A5
:1016A00020A800F0B5F8384600F0BAF817E00CBBF7
:1016B000806B23461FFA82FC0124371D04FA03F1D4
:1016C00011EA0C0F024604D052F8041B47F823100D
:1016D00010460133102BF1D1AC0400D4B0630020CC
:1016E00043B0BDE8F08308EB0503102B02D8B8F136
:1016F000100F14D1022043B0BDE8F083002DEED0CE
:1017000003685A075CD46F46384600F08DF8B26B18
:101710006B00A8F11001013B07EBC101AFE70368C3
:10172000DA0759D420AF384600F06EF8B36B002DBD
:1017300089D10433B363384600F062F8CFE723F071
:101740001003036000F5E87000F0C0F810E723F024
:101750000803036000F5A87000F08CF834E7D9079F
:1017600008D523F0010343F0020340F8483B00F0A2
:1017700053F83368580706D5304623F0040340F881
:10178000D03B00F051F820AF384600F045F86846ED
:1017900000F04AF8C8F110025200B36BA9F110052D
:1017A000013A07EBC80153E720AFC2E7012CC0D0D4
:1017B000B8F10F0FB36392D8384600F029F88EE7DE
:1017C00023F0040340F8D03B6F4600F02DF8384674
:1017D00000F02AF8B26B9BE7304623F0030340F891
:1017E000483B00F011F89DE700F1340191E8380022
:1017F0009C46A6464CF8045D90E8FF0FE54600BD08
:1018000090EC210B704700BF80EC210B704700BFAC
:1018100090EC200B704700BF80EC200B704700BF9E
:10182000D0EC200B704700BFC0EC200B704700BF0E
:10183000F0EC0201F0EC0211F0EC0221F0EC0231CC
:10184000F0EC0241F0EC0251F0EC0261F0EC0271BC
:10185000F0EC0281F0EC0291F0EC02A1F0EC02B1AC
:10186000F0EC02C1F0EC02D1F0EC02E1F0EC02F19C
:10187000704700BFE0EC0201E0EC0211E0EC022155
:10188000E0EC0231E0EC0241E0EC0251E0EC0261FC
:10189000E0EC0271E0EC0281E0EC0291E0EC02A1EC
:1018A000E0EC02B1E0EC02C1E0EC02D1E0EC02E1DC
:1018B000E0EC02F1704700BFB0FC0181B0FC019187
:1018C000B0FC01A1B0FC01B1704700BFA0FC0181D8
:1018D000A0FC0191A0FC01A1A0FC01B1704700BFD8
:1018E000EC4600B52DE900502DE9FF1F4FF0000335
:1018F0002DE90C0001A9FFF7D7FBDDF840E012B09D
:10190000704700BFEC4600B52DE900502DE9FF1FE0
:101910004FF000032DE90C0001A9FFF701FCDDF8F1
:1019200040E012B0704700BFEC4600B52DE9005012
:101930002DE9FF1F4FF000032DE90C0001A9FFF76F
:1019400011FCDDF840E012B0704700BFEC4600B576
:101950002DE900502DE9FF1F4FF000032DE90C0089
:1019600001ABFFF7D5FBDDF840E012B0704700BFD8
:10197000EC4600B52DE900502DE9FF1F4FF00003A4
:101980002DE90C0001AAFFF747FCDDF840E012B09A
:10199000704700BF027A03467AB9427AA2B1416821
:1019A000013A10B44272086803220C1D1A72020236
:1019B0005C60000E10BC1A6070470068013A1A7231
:1019C00002021A60000E7047B020704700B585B063
:1019D000002303AA009219460C22FFF7D3FB0398B9
:1019E00005B05DF804FB00BFF0E700BF2DE9F04350
:1019F000064685B00D464FF000082846FFF7CAFF9F
:101A0000B028044600F0DA80070646D500F0F0035F
:101A1000802B5ED0B02B73D01BD8902B00F09B8016
:101A2000A02B12D1C34303F007034FF47F621A4186
:101A3000010702F47F6201D542F480420023194677
:101A40003046FFF77DFD0028D7D0092005B0BDE85E
:101A5000F083C02B6DD1C62800F09380C72800F01A
:101A6000B28000F0F803C02B00F0D280C82800F04C
:101A7000DD80C928E9D12846FFF78CFF020300F07A
:101A80000F0002F470220130024301210523304689
:101A9000FFF756FD0028B0D0D7E78300DBB21F1D4B
:101AA0000DF10C0900231946CDF800900D223046A7
:101AB000FFF768FB039BCDF8009060064CBFDF1B6F
:101AC000FF1800230D22194630460397FFF780FBCD
:101AD00093E72846FFF75EFF24022043B0F5004F4E
:101AE000B3D004010023A2B219463046FFF728FD07
:101AF0000028AAD114F4004F18BF4FF001087CE76A
:101B0000B12851D0B22800F0AD80B3286DD000F0DC
:101B1000FC03B42B99D000F007020132012342F4F8
:101B2000002219463046FFF70BFD00283FF465AF51
:101B30008BE700F0F803D02B87D100F007020132C9
:101B4000052342F4002201213046FFF7F9FC00286A
:101B50003FF453AF79E700F00D030D2B3FF475AF61
:101B600003AF002300F00F02194600973046FFF73D
:101B700009FB002300970D2219463046FFF728FB8A
:101B80003BE72846FFF706FF020300F00F00013095
:101B900002F470220323024319463046FFF7D0FCBB
:101BA00000283FF42AAF50E72846FFF7F3FE431E14
:101BB000DBB20E2B02467FF641AF46E7B8F1000FCD
:101BC00040D0002042E72846FFF7E4FE431EDBB288
:101BD0000E2B02463FF639AF002304213046FFF7B3
:101BE000AFFC00283FF409AF2FE72846FFF7D2FEED
:101BF000020300F00F00013002F4702201230243BF
:101C000019463046FFF79CFC00283FF4F6AE1CE76F
:101C100000F00F020132032342F42022194630461D
:101C2000FFF78EFC00283FF4E8AE0EE72846FFF7EA
:101C3000B1FE00F0F00200F00F031032013343EA6E
:101C4000023222E703AC434641460E22009430465E
:101C5000FFF798FA009443460F2241463046FFF7BB
:101C6000B7FAAEE700230DF10C090D221946CDF8A5
:101C700000903046FFF786FA2846FFF78BFE0206F3
:101C8000039C4FF002070BD500F07F00B8400444DE
:101C900028460394FFF77EFE030607F10707F3D4F7
:101CA00000FA07F204F50174224400230392CDF8F0
:101CB00000900D2219463046FFF78AFA9DE600BFD4
:101CC00010B5C26C536884B04FF0030C08321C028C
:101CD00008461B0E01A9019402928DF80CC08DF8E4
:101CE0000D30FFF783FE04B010BD00BF08B5FFF74D
:101CF0007BFE806C08BD00BF08B5FFF775FEC06CA9
:101D0000C379023300EB830008BD00BF704700BFFA
:101D100030B40022C26002828274C2740272002453
:101D20000025C0E90045427230BC7047C1600282A4
:101D300083740023C3740372DDE90012C0E900124A
:101D400043727047D0B50446D0E90067C07CFEF707
:101D5000A1FB00224FF07E53FEF706FC32463B46C5
:101D600001F05EFA0022044BFEF7FEFB01F0C6FA1A
:101D7000FEF7AAFE2072D0BD0000604008B5C17415
:101D8000FFF7E0FF08BD10B50446427A837C9A4213
:101D900007D0627A237A9A420BD0637A0133637256
:101DA00010BD0022018AC06800F05EFC002363724F
:101DB000EFE70122218AE06800F056FCEDE7000021
:101DC000154B83420ED070472046FFF7DCFF1834D6
:101DD000124B9C42F8D1124A136801331360642BF2
:101DE00014D010BD10B50F4CF2E7E37C013BE37457
:101DF00018340A4B9C420BD0E37C002BF5D1A17C1C
:101E00000139C9B22046FFF7B9FFEEE7054CF0E70C
:101E1000034B00221A60E4E7300200203002002069
:101E20006C0100207001002030B589B000240394BB
:101E300004940594069407940094194B1A6B42F08D
:101E400001021A631A6B02F001020092009A0194D7
:101E50001A6B42F080021A631A6B02F08002019240
:101E6000019A02941A6B42F040021A631B6B03F052
:101E700040030293029B0B4D22464FF4FF7128460C
:101E800000F0F2FB4FF4FF730393012304930594D6
:101E9000069403A9284600F0E1FA09B030BD00BF5E
:101EA000003802400018024072B6FEE700B595B057
:101EB0003022002108A802F00EF9002303930493B6
:101EC0000593069307930193234A116C41F08051C7
:101ED0001164126C02F080520192019A02931F4B1E
:101EE0001A6842F440421A601B6803F440430293AC
:101EF000029B012308934FF48033099302230E932E
:101F00004FF480020F9206221092B4221192129383
:101F10000423139308A800F0EBFBB0B900F0AAFB70
:101F2000A8B90F23039302230493002305934FF4CE
:101F3000A05306934FF4C0530793052103A800F064
:101F400027FE30B915B05DF804FBFFF7ADFFFFF7D2
:101F5000ABFFFFF7A9FF00BF003802400070004050
:101F600008B500F0D7F9FFF7A1FFFFF75DFF00F01C
:101F700029F900F0D3F8FEE7012800D0704738B502
:101F80004FF6FF73994208D038BD2846FFF7C0FED0
:101F9000013C1835002CF8DAF6E70724004DF9E784
:101FA00070010020F0B5B3B0594D0026594FCDE96E
:101FB000006780230222294602A8FFF7B7FE564C8D
:101FC000A6460DF1080CBCE80F00AEE80F00DCF8E7
:101FD0000030CEF80030CDE9006780230422294686
:101FE00008A8FFF7A3FE04F1180E0DF1200CBCE8C1
:101FF0000F00AEE80F00DCF80030CEF80030CDE97D
:1020000000678023082229460EA8FFF78FFE04F1FF
:10201000300E0DF1380CBCE80F00AEE80F00DCF814
:102020000030CEF80030CDE9006780231022294629
:1020300014A8FFF77BFE04F1480E0DF1500CBCE82C
:102040000F00AEE80F00DCF80030CEF80030CDE92C
:1020500000678023202229461AA8FFF767FE04F1B3
:10206000600E0DF1680CBCE80F00AEE80F00DCF864
:102070000030CEF80030CDE90067802340222946A9
:102080000DEB0300FFF752FE04F1780E0DF1800C0A
:10209000BCE80F00AEE80F00DCF80030CEF80030EE
:1020A000CDE9006780231A46294626A8FFF73EFEA1
:1020B00004F1900E0DF1980CBCE80F00AEE80F0093
:1020C000DCF80030CEF80030CDE9006780234FF413
:1020D000807229462CA8FFF729FEA8340DF1B00C18
:1020E000BCE80F000FC4DCF80030236000240AE0D5
:1020F000210104EB4402D30001F0F001064818442A
:10210000FFF73CFE0134072CF2DD33B0F0BD00BF19
:10211000001802400000F03F7001002008B503489D
:1021200000F014FEFFF73EFFFEE700BF3002002084
:1021300008B54FF6FF710120FFF71EFF08BD000034
:1021400082B0002100910B4B5A6C42F480425A64D9
:102150005A6C02F480420092009A01911A6C42F08B
:1021600080521A641B6C03F080530193019B02B0F0
:10217000704700BF00380240FEE7FEE7FEE7FEE7DB
:10218000FEE770477047704708B500F0DDF808BDFE
:1021900008B5024800F022FE08BD00BF3002002052
:1021A0000120704708B501F0E3FF162303604FF0EC
:1021B000FF3008BD08B54FF0FF31FFF7F3FFFEE732
:1021C0007047000000B587B0002302930393049387
:1021D0000593009301931548154A0260436083609C
:1021E00041F29412C26003614361836100F018FF01
:1021F00090B94FF48053029302A90C4800F048FFB5
:1022000068B90023009301936946084800F0C0FFB5
:1022100040B907B05DF804FBFFF746FEE9E7FFF7BA
:1022200043FEEEE7FFF740FEF3E700BF3002002079
:102230000000014002680E4B9A4200D0704700B582
:1022400083B00021019103F59C335A6C42F00102E6
:102250005A645B6C03F001030193019B0A46192049
:1022600000F0CAF8192000F0D7F803B05DF804FBBD
:1022700000000140DFF834D00D480E490E4A00231B
:1022800002E0D458C4500433C4188C42F9D30B4A2A
:102290000B4C002301E013600432A242FBD3FFF792
:1022A0008FFF01F06BFFFFF75BFE7047000003201C
:1022B000000000204C0100201C44000850010020B8
:1022C00050050020FEE7000010B504460E4B1A78BA
:1022D0004FF47A73B3FBF2F30C4A1068B0FBF3F0DF
:1022E00000F0A8F868B90F2C01D901200AE00022FB
:1022F00021464FF0FF3000F07FF8054B1C600020B6
:1023000000E0012010BD00BF0400002000000020FC
:102310000800002008B50B4B1A6842F400721A60DE
:102320001A6842F480621A601A6842F480721A6075
:10233000032000F04FF80F20FFF7C6FFFFF700FF64
:10234000002008BD003C0240034A1168034B1B7883
:102350000B441360704700BF780200200400002087
:10236000014B1868704700BF78020020002808DB86
:102370000901C9B200F1604000F5614080F8001326
:10238000704700F00F000901C9B2014B19547047A2
:1023900014ED00E000B500F00700C0F1070CBCF13F
:1023A000040F28BF4FF0040C031D062B0FD9C31ECA
:1023B0004FF0FF3E0EFA0CF021EA000199400EFAB0
:1023C00003FE22EA0E0241EA02005DF804FB00234C
:1023D000EEE70000074AD36823F4E0631B041B0CFC
:1023E000000200F4E060034343F0BF6343F40033B2
:1023F000D360704700ED00E010B50446054BD86887
:10240000C0F30220FFF7C6FF01462046FFF7AEFFEC
:1024100010BD00BF00ED00E0002807DB00F01F0248
:10242000400901239340024A42F82030704700BF20
:1024300000E100E00138B0F1807F0BD24FF0E023E3
:102440005861054AF02182F8231000209861072284
:102450001A6170470120704700ED00E000230F2B48
:1024600000F2F98030B583B069E085684FEA430E29
:10247000032404FA0EF425EA0405CC6804FA0EF4E9
:102480002C438460446824EA02044A68C2F30012C0
:102490009A402243426060E0DC08083450F824206F
:1024A00003F00705AD004FF00F0E0EFA05FE22EA0D
:1024B0000E0E0A69AA4042EA0E0240F8242060E0AB
:1024C000092200E0002202FA0EF22A430234624D91
:1024D00045F82420614A94686FEA0C0224EA0C054E
:1024E000D1F804E01EF4801F01D04CEA04055B4CD7
:1024F000A560E46802EA0405D1F804E01EF4001FB8
:1025000001D04CEA0405554CE560646802EA040514
:10251000D1F804E01EF4003F01D04CEA04054F4C12
:102520006560246822404D6815F4803F01D04CEA74
:1025300004024A4C226001330F2B00F28A800122F0
:102540009A400C6804EA020C32EA0404F3D14C68A5
:1025500004F00304013C012C87D94A6802F003020D
:10256000032A09D0C4685D000322AA4024EA0204B9
:102570008A68AA402243C2604A6802F00302022A23
:102580008AD004684FEA430E032202FA0EF224EACC
:1025900002044A6802F0030202FA0EF222430260C9
:1025A0004A6812F4403FC6D0002201922C4A546C73
:1025B00044F480445464526C02F480420192019AC3
:1025C0009C08A51C244A52F8255003F0030E4FEA3C
:1025D0008E0E0F2202FA0EF225EA0205214A9042DF
:1025E0003FF470AF02F58062904222D002F5806223
:1025F000904220D002F5806290421ED002F58062A7
:1026000090421CD002F5806290421AD002F580629E
:10261000904218D002F58062904216D002F5806296
:10262000904214D002F5806290423FF449AF0A22F2
:1026300049E7012247E7022245E7032243E7042254
:1026400041E705223FE706223DE707223BE7082254
:1026500039E703B030BD704700380140003C01400D
:1026600000380240000002400AB18161704709044D
:102670008161704710B582B000230193194B1A6C29
:1026800042F080521A641B6C03F080530193019B4B
:10269000154B01221A64FFF763FE0446134B5B6877
:1026A00013F4803F08D1FFF75BFE001BB0F57A7F83
:1026B000F4D9032002B010BD0B4B01225A64FFF77E
:1026C0004FFE0446094B5B6813F4003F07D1FFF748
:1026D00047FE001BB0F57A7FF4D90320EAE700201B
:1026E000E8E700BF0038024000000E4200700040E2
:1026F000002800F0E08170B582B00446036813F052
:10270000010F3BD09F4B9B6803F00C03042B2CD094
:102710009C4B9B6803F00C03082B21D06368B3F536
:10272000803F4FD0B3F5A02F52D0964B1A6822F4B9
:1027300080321A601A6822F480221A606368002BC3
:1027400050D0FFF70DFE05468E4B1B6813F4003F7B
:1027500014D1FFF705FE401B6428F5D90320B1E131
:10276000884B5B6813F4800FD8D0864B1B6813F43A
:10277000003F03D06368002B00F09F81236813F0B3
:10278000020F54D07F4B9B6813F00C0F3ED07D4B53
:102790009B6803F00C03082B33D0E368002B68D050
:1027A000794B01221A60FFF7DBFD0546754B1B686C
:1027B00013F0020F54D1FFF7D3FD401B0228F5D9C7
:1027C00003207FE16F4A136843F480331360B5E759
:1027D0006C4B1A6842F480221A601A6842F4803204
:1027E0001A60ABE7FFF7BCFD0546664B1B6813F4A8
:1027F000003FC3D0FFF7B4FD401B6428F5D9032088
:1028000060E1604B5B6813F4800FC6D15D4B1B68C1
:1028100013F0020F03D0E368012B40F05081594AB6
:10282000136823F0F803216943EAC10313602368A6
:1028300013F0080F42D063696BB3534B0122C3F806
:10284000802EFFF78DFD05464E4B5B6F13F0020F98
:1028500034D1FFF785FD401B0228F5D9032031E173
:10286000484A136823F0F803216943EAC10313605F
:10287000DDE7454B00221A60FFF772FD0546414B2C
:102880001B6813F0020FD2D0FFF76AFD401B02282D
:10289000F5D9032016E13C4B0022C3F8802EFFF748
:1028A0005FFD0546374B5B6F13F0020F06D0FFF755
:1028B00057FD401B0228F5D9032003E1236813F0DC
:1028C000040F77D02F4B1B6C13F0805F33D10023A4
:1028D00001932C4B1A6C42F080521A641B6C03F06B
:1028E00080530193019B0125284B1B6813F4807FC3
:1028F00023D0A368012B34D0052B38D0214B1A6F7D
:1029000022F001021A671A6F22F004021A67A36804
:10291000002B3DD0FFF724FD06461A4B1B6F13F02A
:10292000020F46D1FFF71CFD801B41F2883398420D
:10293000F3D90320C6E00025D6E7144A136843F410
:1029400080731360FFF70CFD0646104B1B6813F4F1
:10295000807FCED1FFF704FD801B0228F5D903202C
:10296000B0E0084A136F43F001031367CFE7054B4C
:102970001A6F42F004021A671A6F42F001021A67D6
:10298000C5E700BF00380240000047420070004029
:10299000FFF7E6FC0646524B1B6F13F0020F08D000
:1029A000FFF7DEFC801B41F288339842F3D9032005
:1029B00088E0EDB9A369002B00F08380484A926853
:1029C00002F00C02082A51D0022B17D0454B0022EE
:1029D0001A66FFF7C5FC0446414B1B6813F0007FE5
:1029E00042D0FFF7BDFC001B0228F5D9032069E0A7
:1029F0003B4A136C23F080531364DBE7394B00220E
:102A00001A66FFF7ADFC0546354B1B6813F0007FD7
:102A100006D0FFF7A5FC401B0228F5D9032051E0A2
:102A2000E369226A1343626A43EA8213A26A520884
:102A3000013A43EA0243E26A43EA0263284A5360E6
:102A4000284B01221A66FFF78BFC0446244B1B68B7
:102A500013F0007F06D1FFF783FC001B0228F5D995
:102A600003202FE000202DE000202BE0012B2BD0B5
:102A70001B4B5B6803F48001E269914226D103F0AD
:102A80003F02216A8A4223D1616A47F6C0721A4026
:102A9000B2EB811F1ED103F44031A26A5208013A01
:102AA000B1EB024F18D103F07063E26AB3EB026F2F
:102AB00014D1002006E001207047012002E001202F
:102AC00000E0002002B070BD0120FBE70120F9E723
:102AD0000120F7E70120F5E70120F3E70120F1E706
:102AE000003802400000474208B5264B9B6803F0BF
:102AF0000C03042B41D0082B41D1224B5A6802F021
:102B00003F025B6813F4800F12D01E4B5968C1F36B
:102B100088111D480023A1FB0001FDF7F5FF194BAB
:102B20005B68C3F3014301335B00B0FBF3F027E0C4
:102B3000144B5868C0F388104FEA401CBCEB000CE3
:102B40006EEB0E0E4FEA8E1343EA9C634FEA8C1134
:102B5000B1EB0C0163EB0E03DB0043EA5173C900D8
:102B600011EB000C43F10003990200234FEA8C2083
:102B700041EA9C51FDF7C8FFD1E7034800E0034854
:102B800008BD00BF00380240001BB7000024F4005D
:102B9000002800F09B8070B50D4604464F4B1B6823
:102BA00003F00F038B4208D2CBB24C4A1370136868
:102BB00003F00F038B4240F08B80236813F0020F69
:102BC00017D013F0040F04D0454A936843F4E05340
:102BD0009360236813F0080F04D0414A936843F4CC
:102BE000604393603E4A936823F0F003A1680B436F
:102BF0009360236813F0010F32D06368012B21D05A
:102C00009A1E012A25D9364A126812F0020F61D0A5
:102C100033498A6822F0030213438B60FFF7A0FB5D
:102C200006462F4B9B6803F00C036268B3EB820FE0
:102C300016D0FFF795FB801B41F288339842F0D9FC
:102C4000032042E0264A126812F4003FE0D101203E
:102C50003BE0234A126812F0007FD9D1012034E012
:102C60001E4B1B6803F00F03AB4207D9EAB21B4BA4
:102C70001A701B6803F00F03AB422DD1236813F0C9
:102C8000040F06D0164A936823F4E053E1680B431F
:102C90009360236813F0080F07D0114A936823F458
:102CA0006043216943EAC1039360FFF71DFF0C4BAA
:102CB0009B68C3F303130B4AD35CD8400A4B1860DC
:102CC0000A4B1868FFF700FB002070BD0120704719
:102CD0000120FAE70120F8E70120F6E7003C024076
:102CE00000380240C8420008000000200800002010
:102CF00010B4036A046A24F001040462846924F0B5
:102D0000F00C4CEA021223F00A030B4382610362C7
:102D100010BC704710B4036A23F010030362846987
:102D2000036A24F4704C4CEA023223F0A00343EA15
:102D300001138261036210BC7047836823F0700343
:102D40000B4343F0070383607047000090F83D3069
:102D5000DBB2012B37D1022380F83D300268D36803
:102D600043F00103D3600368194A934220D0B3F1C2
:102D7000804F1DD0A2F57C42934219D002F58062AB
:102D8000934215D002F58062934211D002F5784249
:102D900093420DD002F57052934209D0A2F59432BD
:102DA000934205D01A6842F001021A600020704771
:102DB0009A6802F00702062A07D01A6842F0010258
:102DC0001A6000207047012070470020704700BF44
:102DD00000000140704770477047704710B50446C7
:102DE00003681A6912F0020F11D0DA6812F0020FAC
:102DF0000DD06FF002021A610123037703689B690B
:102E000013F0030F70D0FFF7E6FF0023237723684A
:102E10001A6912F0040F12D0DA6812F0040F0ED003
:102E20006FF004021A610223237723689B6913F46D
:102E3000407F5FD02046FFF7CEFF00232377236833
:102E40001A6912F0080F12D0DA6812F0080F0ED0CB
:102E50006FF008021A61042323772368DB6913F0FB
:102E6000030F4ED02046FFF7B6FF002323772368D9
:102E70001A6912F0100F12D0DA6812F0100F0ED08B
:102E80006FF010021A61082323772368DB6913F4BB
:102E9000407F3DD02046FFF79EFF00232377236825
:102EA0001A6912F0010F03D0DA6812F0010F36D15F
:102EB00023681A6912F0800F03D0DA6812F0800FCD
:102EC00034D123681A6912F0400F03D0DA6812F087
:102ED000400F32D123681A6912F0200F03D0DA684C
:102EE00012F0200F30D110BDFFF774FF2046FFF71E
:102EF00073FF8AE72046FFF76DFF2046FFF76CFF60
:102F00009BE72046FFF766FF2046FFF765FFACE72B
:102F10002046FFF75FFF2046FFF75EFFBDE76FF03B
:102F200001021A612046FEF74BFFC1E76FF08002F5
:102F30001A61204600F073F9C3E76FF040021A618E
:102F40002046FFF74AFFC5E76FF020021A612046CE
:102F500000F064F9C7E700000368304A904212D0DD
:102F6000B0F1804F0FD0A2F57C4290420BD002F519
:102F70008062904207D002F58062904203D002F551
:102F80007842904203D123F070034A681343234AE6
:102F900090422AD0B0F1804F27D0A2F57C429042D7
:102FA00023D002F5806290421FD002F580629042E9
:102FB0001BD002F57842904217D002F57052904231
:102FC00013D002F5806290420FD002F580629042E9
:102FD0000BD0A2F59832904207D002F58062904261
:102FE00003D002F58062904203D123F44073CA6893
:102FF000134323F080034A69134303608B68C36261
:103000000B688362054B984203D003F580639842B6
:1030100001D10B6903630123436170470000014044
:1030200040B310B5044690F83D30F3B1022384F864
:103030003D30214651F8040BFFF78EFF012384F841
:10304000463084F83E3084F83F3084F8403084F8CD
:10305000413084F8423084F8433084F8443084F8B6
:10306000453084F83D30002010BD80F83C30FFF73B
:10307000E1F8DBE70120704710B4846824F47F4C4A
:1030800042EA03220A4342EA0C02826010BC704703
:1030900090F83C30012B78D010B50446012380F81D
:1030A0003C30022380F83D300268936823F47F436C
:1030B00023F0770393600B68602B4CD029D8402B0A
:1030C00054D00CD9502B22D1CA6849680068FFF748
:1030D0000FFE50212068FFF730FE002005E0202B76
:1030E0000DD009D9302B0AD00120012384F83D30BE
:1030F000002384F83C3010BD0BB1102B05D11946CC
:103100002068FFF71AFE0020EFE70120EDE701201D
:10311000EBE7B3F5805F34D0B3F5005F0CD1CB683B
:103120004A6889680068FFF7A7FF2268936843F43C
:10313000804393600020D8E7702B24D1CB684A6885
:1031400089680068FFF798FF2268936843F0770367
:1031500093600020C9E7CA6849680068FFF7DAFD94
:1031600060212068FFF7E9FD0020BEE7CA684968D2
:103170000068FFF7BDFD40212068FFF7DEFD00205D
:10318000B3E70020B1E70120AFE70220704700005D
:1031900090F83C20012A3CD010B40346012280F86C
:1031A0003C20022280F83D2002685068946820F09C
:1031B000700C086840EA0C0050601A681648824299
:1031C0001AD0B2F1804F17D0A0F57C40824213D0C4
:1031D00000F5806082420FD000F5806082420BD003
:1031E00000F57840824207D000F57050824203D04B
:1031F000A0F59430824204D124F080044968214330
:103200009160012283F83D20002083F83C0010BC2F
:1032100070470220704700BF0000014070477047B0
:103220002DE9F84314461D468046894600F0ACF867
:10323000224606460F462B4620462946FDF72EFC21
:10324000C8BB0022002340464946FDF7F5FBB8B154
:103250000022002320462946FDF7EEFB002841D13D
:103260002046294600F044F828B3002200232046D7
:103270002946FDF7EBFBF0B100F07AFF222319E0BD
:103280003046394600F034F8C8B94046494600F0A7
:103290002FF8A0B12046294600F02AF878B132462E
:1032A0003B4630463946FDF7F9FB0028E4D000F0F4
:1032B0005FFF2123036030463946BDE8F8830022D2
:1032C000002330463946FDF7B7FB0028F3D04046CF
:1032D000494600F00DF80028EDD02046294600F0C0
:1032E00007F8C8E7014F0026E5E700BF0000F03F00
:1032F00041F0004000F58010C00F7047F8B5C1F3F1
:103300000A57A7F2FF32132A04460D460B461ADC71
:10331000002A0BDA01F00043013204BF43F07F536F
:1033200043F4401300221D46144616E01548104190
:103330000140214311D04FF4002141FA02F213441D
:1033400023EA0003EEE7332A0ADDB2F5806F04D1E9
:103350000246FCF753FF04460D4620462946F8BDB9
:10336000A7F213474FF0FF30F8402042F5D0C2F1EA
:10337000330101228A40121928BF013322EA0002D8
:10338000D1E700BFFFFF0F002DE9F04F91B0CDE96D
:1033900000238B46DDE9001828F00047824657EAF3
:1033A000010012D15346DB188BF40022524198429F
:1033B000924B934180F0CE84DDE90023504659467C
:1033C000FCF71CFF11B0BDE8F08F8D4B2BF00046D1
:1033D0009E425D46D14607D802D1BAF1000FEBD12B
:1033E0009F4201D80FD171B105F1404505F5801517
:1033F00055EA0905E0D1DDE90032DB1882F400224C
:1034000052419D42D4E7002D334639DA7D4A974236
:103410004ED8A2F15472974240F2AB843A15A2F210
:10342000FF32142A0FDDC2F1340221FA02F404FA49
:1034300002F28A4240F09D8404F00104C4F10204C7
:1034400000295AD10EE0002956D1C2F1140247FAE0
:1034500002F404FA02F2BA4240F0888404F0010453
:10346000C4F10204684A974230D1B8F1000F80F2EB
:103470007984654952465B460020FDF79FF9A1E734
:103480000024002939D15E4A9742EBD106F140432E
:1034900003F5801353EA090300F05C845B4B9E4202
:1034A00008D9B8F1000FC0F25984DDE9000189E7BD
:1034B0000224E6E7B8F1000F4FF000004FF00001E2
:1034C00080DADDE9000303F100417BE7B8F1804FCA
:1034D00006D152465B4650465946FDF745F871E71E
:1034E0004B4A904509D1002D07DB5046594611B093
:1034F000BDE8F04F00F012BD00245046594602933B
:1035000000F06AFC029BB9F1000F27D13E4A25F07A
:10351000404C944500D00EBBB8F1000F05DA0246CE
:103520000B4600203849FDF749F9002DBFF64AAF98
:1035300006F1404606F58016264308D102460B46A2
:1035400010461946FCF758FE02460B4695E7012C3B
:103550007FF438AF01F10043194633E7EA0F013A2F
:1035600052EA040C02D152465B46E9E7013C14439F
:1035700014BFDFF894A0DFF89CA04FF00009B7F16A
:10358000844FCDE9029A40F20781234B9F421F4BA3
:1035900013D99E4208D8B8F1000F08DA002011B004
:1035A000BDE8F04F00F0B4BCB8F1000FF6DC00202D
:1035B00011B0BDE8F04F00F0A6BC9E420CD2DDE990
:1035C000020100220023FDF741FA003818BF012054
:1035D000B8F1000FECDAE2E70B4B9E424FF000022D
:1035E0001CD9DDE902010023FDF730FA003818BFCD
:1035F0000120B8F1000FD2DCDAE700BF0000F0FFD5
:103600000000F07FFFFF3F430000F03FFFFFEF3F70
:103610000000E03F0000F0BF0000F0435A4BFCF711
:10362000EBFD51A3D3E9002304460D46FCF79CFFB4
:103630004FA3D3E9002306460F4620462946FCF750
:1036400093FF524B82468B46002220462946FCF7C8
:103650008BFF02460B4648A1D1E90001FCF7CCFDE7
:1036600022462B46FCF780FF02460B4600204849C5
:10367000FCF7C2FD2246804689462B462046294655
:10368000FCF772FF02460B4640464946FCF76CFFCA
:103690003BA3D3E90023FCF767FF02460B465046E5
:1036A0005946FCF7A9FD02460B468046894630463E
:1036B0003946FCF7A3FD002432463B4620460D4622
:1036C000FCF79AFD02460B4640464946FCF794FD3E
:1036D000DDE90023CDE9042300230493DDE904ABF5
:1036E00006460F4652465B46DDE90001FCF784FDC5
:1036F00022462B46FCF738FFDDE900238046894649
:1037000030463946FCF730FF02460B4640464946F4
:10371000FCF774FD52465B4606460F462046294696
:10372000FCF722FF0B460246804689463046394662
:10373000FCF764FD174B994204460D468A468B46BA
:1037400040F3DE8201F13F4303F5E003034300F061
:10375000DD81DDE9020100220023FDF777F9003861
:1037600018BF01201BE700BF000000604715F73FAE
:1037700044DF5DF80BAE543E555555555555D53F74
:10378000FE822B654715F73F0000F03F0000D03F59
:103790000000E03FFFFF8F40D34A2A40002A40F05C
:1037A0007A81D24B0022FCF7DFFE6FF034040B4627
:1037B0001A15A2F2FF3222440A92CD4AC3F3130330
:1037C00043F07F55934245F4401508DDC94A9342C2
:1037D00040F363810A9B01330A93A5F58015002607
:1037E000F3000B93C44B03EBC603D3E90034294623
:1037F000CDE908341A4623468246FCF7FDFC5246C2
:103800002B46CDE90C01DDE90801FCF7F7FC024687
:103810000B460020B949FCF7D1FF02460B46CDE923
:103820000E01DDE90C01FCF79FFECDE90601DDE9A3
:103830000634CDE9043400230493DDE90489AB4662
:103840006D1045F0005505F5002505EB8643002277
:103850004046494614461D46FCF786FE02460B4686
:10386000DDE90C01FCF7C8FCDDE9082306460F463C
:1038700020462946FCF7C0FC02460B4650465946F6
:10388000FCF7BAFC42464B46FCF76EFE02460B467E
:1038900030463946FCF7B0FCDDE90E23FCF764FE48
:1038A000DDE90623CDE9080110461946FCF75CFE68
:1038B0007BA3D3E9002304460D46FCF755FE7AA30B
:1038C000D3E90023FCF79AFC22462B46FCF74CFE7A
:1038D00077A3D3E90023FCF791FC22462B46FCF7A3
:1038E00043FE75A3D3E90023FCF788FC22462B4650
:1038F000FCF73AFE72A3D3E90023FCF77FFC2246D3
:103900002B46FCF731FE70A3D3E90023FCF776FCCD
:10391000224606460F462B4620462946FCF724FE43
:1039200002460B4630463946FCF71EFE4246044628
:103930000D464B46DDE90601FCF760FCDDE9082396
:10394000FCF712FE22462B46FCF758FC4246824604
:103950008B464B4640464946FCF706FE684B002224
:1039600006460F46FCF74AFC52465B46FCF746FC0F
:1039700000240D4622460B4640464946FCF7F4FD1E
:103980005F4B80468946002220462946FCF734FCDE
:1039900032463B46FCF730FC02460B465046594641
:1039A000FCF72AFCDDE90623FCF7DEFD224606468D
:1039B0000F462B46DDE90801FCF7D6FD02460B4613
:1039C00030463946FCF71AFC06460F4602460B46BF
:1039D00040464946FCF712FC00243DA3D3E90023EE
:1039E00020460D46FCF7C0FD4246CDE906014B4698
:1039F00020462946FCF700FC02460B463046394675
:103A0000FCF7FAFB34A3D3E90023FCF7ADFD34A3A4
:103A1000D3E9002306460F4620462946FCF7A4FDBD
:103A200002460B4630463946FCF7E8FB0B9A354B0D
:103A30001344D3E90023FCF7E1FB82460A988B4646
:103A4000FCF728FD0B9A304B1344D3E90089064656
:103A50000F4652465B46DDE90601FCF7CFFB4246C6
:103A60004B46FCF7CBFB32463B46FCF7C7FB00243A
:103A700032463B4620460D46FCF7BEFB42464B46CF
:103A8000FCF7BAFBDDE90623FCF7B6FB02460B4662
:103A9000504659461AE600248AE60126A0E600BFF1
:103AA000EF4E454A287ECA3F65DBC9934A86CD3F23
:103AB00001411DA96074D13F4D268F515555D53F09
:103AC000FFAB6FDBB66DDB3F033333333333E33FA1
:103AD000000000E009C7EE3FFD033ADC09C7EE3FF6
:103AE000F5015B14E02F3EBE0000F07F0000404374
:103AF0008E98030079B60B00F84200080000F03FF2
:103B000000000840D8420008E84200089AA3D3E920
:103B1000002330463946FCF771FB4246CDE90001EF
:103B20004B4620462946FCF767FB02460B46DDE97B
:103B30000001FCF7A9FF00287FF40BAE4FEA2A5AD8
:103B40004FF48013AAF2FE3A43FA0AFADA44CAF3AF
:103B50000A519B48A1F2FF31084100EA0A03CAF367
:103B6000130AC1F114014AF4801A4AFA01FABBF1AE
:103B7000000F404649464FF00002B8BFCAF1000AA4
:103B8000FCF73AFB8046894632463B46404649466A
:103B9000FCF734FB00247AA3D3E9002320460D462A
:103BA000FCF7E2FC4246CDE900014B46204629469F
:103BB000FCF722FB02460B4630463946FCF71CFB5D
:103BC00071A3D3E90023FCF7CFFC71A3D3E9002351
:103BD0008046894620462946FCF7C6FC02460B462D
:103BE00040464946FCF70AFB04460D4602460B4692
:103BF000DDE90001FCF702FBDDE900238046894690
:103C0000FCF7FAFA02460B4620462946FCF7F4FA7E
:103C1000424606460F464B4640464946FCF7A4FC42
:103C20005DA3D3E9002304460D46FCF79DFC5CA38D
:103C3000D3E90023FCF7E0FA22462B46FCF794FC7C
:103C400059A3D3E90023FCF7D9FA22462B46FCF707
:103C50008BFC57A3D3E90023FCF7CEFA22462B4670
:103C6000FCF782FC54A3D3E90023FCF7C7FA2246F1
:103C70002B46FCF779FC02460B4640464946FCF7CA
:103C8000BBFA04460D4602460B4640464946FCF741
:103C90006BFC0022CDE900014FF08043204629460D
:103CA000FCF7AAFA02460B46DDE90001FCF786FDA7
:103CB000324604460D463B4640464946FCF754FC16
:103CC00032463B46FCF79AFA02460B462046294606
:103CD000FCF792FA42464B46FCF78EFA02460B4638
:103CE00000203849FCF788FA01EB0A54B4F5801F2C
:103CF0002EDA524600F074F8DDE90223FFF7EDBB3F
:103D0000314C21F00043A3421AD9304B0B440343FA
:103D100009D0DDE9020100220023FCF797FE0038FC
:103D200018BF012044E442464B46FCF765FA324690
:103D30003B46FCF79FFE0028EBD1DFF894A0FDE6A0
:103D40009A46244B9A453FF6F9AEDDF810A01BE7E2
:103D50002146D1E71B490020FFF734BB002000219A
:103D6000FFF730BB50465946FFF72CBB0C46FFF718
:103D700079BB0024FFF764BBFE822B654715973C97
:103D800000000000432EE63FEF39FAFE422EE63FE8
:103D9000396CA80C615C20BED0A4BE726937663E47
:103DA000F16BD2C541BDBB3E2CDE25AF6A56113F3B
:103DB00093BDBE166CC1663F3E5555555555C53F22
:103DC0000000F0FF0000F03FFFCB904000346F3F59
:103DD00000CC90400000E03F21F0004319467047BE
:103DE0002DE9F0481646C1F30A5283468C460B462D
:103DF00082B921F00043034339D02F4B0022FCF756
:103E0000B3FB2E4B9E4283468C460DDA26A3D3E9A4
:103E100000231BE040F2FF77BA4209D10246FCF7CB
:103E2000EDF983468C4622E0C1F30A520B46363A3E
:103E30004CF250318E420CDD1DA3D3E900234FEA32
:103E4000DC711C4661F3DF741D482146FCF78CFBD6
:103E5000E7E7324440F2FE718A42EDDC002A0ADDD7
:103E600023F0FF4323F4E00343EA0255AC465846EF
:103E70006146BDE8F08812F1350F09DA0CF0004315
:103E800043F0D27141F4B7310E4841F01F01BDE754
:103E900023F0FF43363223F4E00343EA0255584649
:103EA000094B29460022D1E759F3F8C21F6EA5013C
:103EB0009C7500883CE4377E00005043B03CFFFF17
:103EC0009C75008859F3F8C20000903C70B5044618
:103ED0000D46164600F04CF929460660204670BD96
:103EE00013B50446194610460CB103F10043CDE961
:103EF0000023DDE90023FCF737FB222202B0BDE8F6
:103F00001040FFF7E3BF00224FF08053FFF7E8BFF8
:103F100000224FF0E043FFF7E3BF0000674A8A4307
:103F20002DE9F84F06460F460B4604460ED10246D1
:103F3000FCF71AFB02460B4630463946FCF75EF9A1
:103F400006460F4630463946BDE8F88F00290CDC9E
:103F500021F000420243F5D089B10246FCF74CF94A
:103F600002460B46FCF72AFCEAE70A1515D10021A8
:103F700009E0E30A153A6405002BFAD0F7E70A4690
:103F8000FAE75B000131D802FBD5481E121AC1F1D5
:103F9000200024FA00F003438C40C3F31303A2F281
:103FA000FF3743F48013D2075CBF5B0003EBD4738D
:103FB0004FEA430358BF6400002603EBD4737F101D
:103FC0006400162132464FF4001015189D42DEBFE2
:103FD0002A185B1B3618E50F013905EB43034FEA3E
:103FE00044044FEA5000F0D10D464FF0200A4FF044
:103FF00000409A4201EB000C02DB13D1A44511D81A
:10400000BCF1000F0CEB000142DA002940DB02F1A9
:10401000010E9B1AA44588BF03F1FF33A4EB0C04E7
:10402000054472464FEAD47CBAF1010A0CEB430313
:104030004FEA44044FEA5000DBD11C431AD0204C15
:10404000DFF880B0D4E90001DBE90023FCF7D4F805
:10405000D4E9008902460B4640464946FCF700FD7C
:1040600040B1B5F1FF3FD4E90001DBE9002311D1F4
:104070000136554672106B08F10702F17F5202F5C6
:10408000001248BF43F0004302EB0751184657E7C0
:104090009646BEE7FCF7B2F8D4E9008902460B4623
:1040A00040464946FCF7D2FC20B1A81C08BF0136A7
:1040B0000235DFE76B1C23F00105DBE70000F07F32
:1040C000180000201000002008B5062000F034F889
:1040D0000120FEF76FF802440346934200D1704777
:1040E00003F8011BF9E71F2938B505460C4604D92A
:1040F000162303604FF0FF3038BDD0F8182112B1FD
:1041000052F821304BB9284600F030F822460146DB
:104110002846BDE8384000F017B8012B0AD0591CDA
:1041200003D1162303600120E6E7002142F82410A2
:10413000204698470020DFE7024B01461868FFF74A
:10414000D2BF00BF2000002038B5074D0023044631
:10415000084611462B60FEF725F8431C02D12B6858
:1041600003B1236038BD00BFB4030020FEF718B8C8
:10417000014B1868704700BF2000002070B50D4D3E
:104180000D4C641BA4100026A64209D10B4D0C4C0B
:1041900000F08CF8641BA4100026A64205D170BD67
:1041A00055F8043B98470136EEE755F8043B98472D
:1041B0000136F2E70C4400080C4400080C440008E7
:1041C00018440008704770470A44914200F1FF33D9
:1041D00000D1704710B511F8014B03F8014F91421F
:1041E000F9D110BD024B13B1024800F005B8704779
:1041F0000000000005420008002301461A46184648
:1042000000F014B838B5074D074C641BA4101CB956
:10421000BDE8384000F050B8013C55F824309847CC
:10422000F5E700BF184400081C4400082DE9F047DA
:10423000DFF86CA00646DAF8000098460F46914673
:10424000FFF7C0FF174B1C680CB9174C1C60656862
:10425000DAF800001F2D05DDFFF7B5FF4FF0FF3046
:10426000BDE8F0879EB104EB85010122C1F888907A
:10427000D4F88831AA401343C4F88831022EC1F81B
:10428000088102BFD4F88C311343C4F88C316B1C05
:104290000235636044F82570FFF795FF0020DFE7E3
:1042A00048010020BC030020C0030020F8B500BF77
:1042B000F8BC08BC9E467047F8B500BFF8BC08BC07
:0442C0009E4670475F
:1042C80000000000000000000102030406070809BE
:1042D800000000000000000006D0CF43EBFD4C3E7C
:1042E80000000000000000000000004003B8E23FAA
:1042F800000000000000F03F000000000000F83F50
:1043080008B10181B0B000840000000008B101814B
:10431800B0B000840000000008B10181B0B0008492
:044328000000000091
:10432C000CC8FF7F0100000060CBFF7FB0A90280AA
:10433C00ECCBFF7FB0B0A8803CCCFF7F010000002D
:10434C0048CCFF7FB0B0AA807CCCFF7FAE71B2802E
:10435C0048CDFF7F0100000044CDFF7FAB3F38808C
:10436C00A4CDFF7F01000000ACCDFF7FB0B0AA80D0
:10437C00E8CDFF7F0100000094CEFF7FAA0DB28034
:10438C0010CFFF7FB0AF0880A0D1FF7F01000000ED
:10439C00A4D1FF7FAD3F028044D4FF7F0100000019
:1043AC0020D6FF7F0084048034D6FF7F01000000FC
:1043BC0030D6FF7FB0AD0480FCD8FF7FB0A803805F
:1043CC0020D9FF7F44FFFF7F24D9FF7F48FFFF7F69
:1043DC0030D9FF7F01000000A2D9FF7FB0B0A880C8
:1043EC003CDAFF7F01000000B0DBFF7FB0AB328016
:1043FC0020DDFF7F08FFFF7F2CDDFF7F0100000029
:0C440C00E5410008D5010008312100083E
:04441800B1010008E6
:10441C000024F40001000000100000000000000067
:10442C0059F3F8C21F6EA501000000000000F03F18
:10443C002800002000000000000000007C0200208A
:10444C00E40200204C0300200000000000000000EB
:10445C000000000000000000000000000000000050
:10446C000000000000000000000000000000000040
:10447C000000000000000000000000000000000030
:10448C000000000000000000000000000000000020
:10449C000000000000000000000000000000000010
:1044AC000000000000000000000000000000000000
:1044BC0000000000000000000000000000000000F0
:1044CC0000000000000000000000000000000000E0
:1044DC0001000000000000000E33CDAB34126DE67D
:1044EC00ECDE05000B0000000000000000000000E6
:1044FC0000000000000000000000000000000000B0
:10450C00000000000000000000000000000000009F
:10451C00000000000000000000000000000000008F
:10452C00000000000000000000000000000000007F
:10453C00000000000000000000000000000000006F
:10454C00000000000000000000000000000000005F
:0C455C000000000000000000B803002078
:040000050800227558
:00000001FF
