:020000040800F2
:100000004807002051020008C11500089D1400088F
:10001000BD150008E1040008F11700080000000009
:10002000000000000000000000000000C9150008EA
:10003000E504000800000000C5150008CD15000803
:100040006B0200086B0200086B0200086B020008DC
:100050006B0200086B0200086B0200086B020008CC
:100060006B0200086B0200086B0200086B020008BC
:100070006B0200086B0200086B0200086B020008AC
:100080006B0200086B0200086B0200086B0200089C
:100090006B0200086B0200086B0200086B0200088C
:1000A0006B020008A91600086B0200086B0200082A
:1000B0006B0200086B0200086B0200086B0200086C
:1000C0006B0200086B0200086B0200086B0200085C
:1000D0006B0200086B0200086B0200086B0200084C
:1000E0006B0200086B0200086B0200086B0200083C
:1000F0006B0200086B0200086B0200086B0200082C
:100100006B0200086B0200086B0200086B0200081B
:100110006B0200086B0200086B0200086B0200080B
:100120006B0200086B0200086B0200086B020008FB
:100130006B0200086B0200086B0200086B020008EB
:100140006B0200086B0200086B0200086B020008DB
:100150006B0200086B0200086B0200086B020008CB
:100160006B0200086B0200086B0200086B020008BB
:100170006B0200086B0200086B0200080000000020
:100180006B0200086B0200086B0200086B0200089B
:100190006B0200086B0200086B0200086B0200088B
:1001A00000000000000000006B02000800F002F8F0
:1001B00000F03EF80AA090E8000C82448344AAF1C3
:1001C0000107DA4501D100F033F8AFF2090EBAE8C1
:1001D0000F0013F0010F18BFFB1A43F0010318477B
:1001E000A0380000C0380000103A24BF78C878C199
:1001F000FAD8520724BF30C830C144BF04680C602D
:10020000704700000023002400250026103A28BF74
:1002100078C1FBD8520728BF30C148BF0B60704778
:100220001FB503F050FB00F0AFF81FBD10B510BDB7
:1002300000F0E2F81146FFF7F3FF01F07DFC00F05B
:1002400000F903B4FFF7F2FF03BC00F0CBF80000A5
:100250000948804709480047FEE7FEE7FEE7FEE75A
:10026000FEE7FEE7FEE7FEE7FEE7FEE70448054996
:10027000054A064B7047000095160008AD010008BE
:1002800048010020480700204803002048030020C0
:1002900053EA020C00F069802DE9F04B4FF00006A4
:1002A000002B1FBFB3FA83F503FA05F424FA05F611
:1002B0005E4012BF1643B2FA82F502FA05F4C5F1A8
:1002C00020051EBF22FA05FC44EA0C04203556EA3C
:1002D000044C4FEA144418BF641C4FF000084FF060
:1002E0000009904271EB030C39D3002919BFB1FA10
:1002F00081F701FA07F6B0FA80F700FA07F6C7F1BE
:1003000020071EBF20FA07FC46EA0C062037B6FB82
:10031000F4FCA7EB0507103F07F01F0BCBF12006FD
:100320002CFA06F60CFA0BFB44BFB3460026202F2E
:10033000A4BF5E464FF0000B5BEA060C08BF4FF00F
:10034000010B19EB0B0948EB0608ABFB027C06FB23
:1003500002CC0BFB03CCC01B71EB0C01C1E70B46BD
:10036000024641464846BDE8F08B13B5084318BF26
:100370004FF0FF300146AFF30080BDE81C407047EE
:10038000704770477047000070B5064C7C44064DBE
:100390007D4404E02046016808448047241DAC42A7
:1003A000F8D170BD103700001037000010B500F014
:1003B00009F8006810BD10B5044600F003F80460A9
:1003C00010BD0000004870471000002010B500204C
:1003D00000F040F8FFF72AFFBDE81040012000F0D0
:1003E00001B8000001491820ABBEFEE7260002005C
:1003F00000487047100000207546FFF7F9FFAE4631
:1004000005006946534620F00700854618B020B520
:10041000FFF72CFFBDE820404FF000064FF000072B
:100420004FF000084FF0000BAC46ACE8C009ACE858
:10043000C009ACE8C009ACE8C00921F007018D464D
:10044000704710B50446AFF300802046BDE8104069
:10045000FFF7F7BE10B500F00BF8BDE8104000F054
:1004600001B87047002801D0FFF7BCBF70470000FB
:1004700010B5002102A000F013F8012010BD00000B
:10048000534947414252543A2041626E6F726D6146
:100490006C207465726D696E6174696F6E00000026
:1004A00070B505460C460A2000E06D1C00F011F8FE
:1004B00035B128780028F8D102E0641C00F009F872
:1004C00014B120780028F8D1BDE870400A20AFF3BD
:1004D000008008B569468DF800000320ABBE08BD5A
:1004E000FEE7000070470000EFF3108072B600BF17
:1004F000FEE700002DE9F04F82B000F13E4242F2EB
:10050000004502F1FF77C4F202050A2243F6004ECD
:100510004FEAB726A84208BF0922C4F2010E092EED
:1005200038BF4FEAB7220125002600274FF0000808
:10053000009208E008F101080437B8F1100F06F145
:10054000020600F0A7800C6805FA08F914EA090F02
:10055000F0D0D1F804B003220BF0030CACF101048D
:10056000B240012C6FEA020A10D88268CC6802EA15
:100570000A02B440224382604268CBF3001422EAAC
:10058000090204FA08F42243426005E0BCF1030FBB
:1005900002D14FF0030C20E0C2688C6802EA0A0224
:1005A000B4402243BCF1020FC26016D16FF00302C7
:1005B00002EA58020244D2F820C007F01C050F23BB
:1005C0000C69AB402CEA030304FA05F52B431362D4
:1005D000D1F804B001250BF0030C02680CFA06F305
:1005E00002EA0A021A431BF4403F0260A2D0002232
:1005F00043F644030192C4F202031A684FF6084C12
:1006000042F480421A601A68CFF6FF7C02F48042FE
:100610000192019A28F00302724452F80C3007F05C
:100620000C050F24AC40A343009C04FA05F52B43B2
:1006300042F80C30DEF808204B6842EA090543F620
:100640000C4CDC0258BF22EA0905CEF80850C4F26F
:10065000010CDCF800209C0242EA090558BF22EA9E
:100660000905CCF80050DEF804209C0342EA090595
:1006700058BF22EA0905CEF80450DEF80020DB035B
:1006800042EA090558BF22EA0905CEF800500125C3
:1006900050E700BF02B0BDE8F08F0000002A08BF9D
:1006A000090481617047000040F24010C2F200006E
:1006B0000068704740F2000040F24011C2F20000B2
:1006C000C2F2000100780A68104408607047000018
:1006D00080B543F60040C4F20200016841F40071A5
:1006E0000160016841F480610160016841F480713A
:1006F0000160032000F088F80F2000F005F800F0FA
:1007000027F8002080BD000070B540F20006C2F25C
:10071000000640F208013278C2F200014FF47A7309
:100720000968B3FBF2F20446B1FBF2F1084600F0AF
:1007300059FB0F2C4FF0010508D838B94FF0FF30A6
:1007400021460022002500F033F87460284670BD71
:1007500082B0002043F640010190C4F202014A68D1
:1007600042F480424A604A6802F480420192019A4F
:100770000090086840F080500860086800F08050E1
:100780000090009802B07047002848BF7047C1B27F
:1007900000F01F00012202FA00F04EF20012CEF229
:1007A000000242EAD10121F0030108607047000015
:1007B00010B54EF60C5CCEF2000CDCF80030C3F342
:1007C000022E8EF00704042C28BF0424BEF103037C
:1007D0004FF0FF3E0EFA04F438BF0023A1439940C6
:1007E0000EFA03F39A43114300F00F0200F1604345
:1007F0000901043A03F564436244002848BF02F14A
:100800000C03197010BD00004EF60C51CEF2000121
:100810000A684FF6FF031A4060F30A2242F0806034
:1008200040F0FD700860704770B582B00020019004
:1008300043F64000C4F202000168402641F08051B6
:1008400001600068C4F20E2600F08050019001980B
:1008500047F204050120C4F200053060FFF724FFD1
:10086000044600BF2868C00306D4FFF71DFF001B25
:10087000B0F57A7FF6D90EE001207060FFF714FF23
:10088000044600BF2868800308D4FFF70DFF001B53
:10089000B0F57A7FF6D9032002B070BD002002B017
:1008A00070BD00002DE9F041002800F08B8043F678
:1008B0000808C4F202080446D8F8F8030D4600F010
:1008C0000F00884207D288F8F853D8F8F80300F0F0
:1008D0000F00A84276D12068810717D5410705D5BA
:1008E000D8F8001041F4E051C8F80010010705D510
:1008F000D8F8001041F46041C8F80010D8F8001092
:10090000A26821F0F0011143C8F80010C0073FD1E0
:10091000D8F8F80300F00F00A84207D988F8F85378
:10092000D8F8F80300F00F00A8424BD12068410727
:1009300007D5D8F80010E26821F4E0511143C8F857
:100940000010000708D5D8F80000216920F46040A5
:1009500040EAC100C8F8000000F054F8D8F80010D0
:1009600043F67022C1F30311C0F60002515C40F25D
:10097000080220FA01F140F20400C2F2000000680F
:10098000C2F200021160FFF7BFFE0020BDE8F08157
:100990006068811E022907D258F8081C89015CBFD3
:1009A0000120BDE8F08111E0012807D158F8081CAA
:1009B00089035CBF0120BDE8F08107E058F8081CFE
:1009C000890703D40120BDE8F08100BFD8F80010EA
:1009D00021F003010843C8F80000FFF765FE064652
:1009E00041F28837D8F80000616800F00C00B0EBE5
:1009F000810F8DD0FFF758FE801BB842F2D903203B
:100A0000BDE8F08110B543F60404C4F20204606846
:100A100000F00C0008280BD0042819BF42F2004057
:100A2000C0F2F40041F60030C0F2B70010BD00BFC4
:100A3000206821682368490241F60031C0F2B701FD
:100A400000F03F02C3F388105CBF42F20041C0F2E5
:100A5000F401A1FB00010023FFF71AFC2168022228
:100A6000C1F3014102EB4101B0FBF1F010BD000008
:100A70002DE9F04182B0002868D00446007843F6A2
:100A80000006C007C4F202060BD0B06800F00C00EC
:100A9000042840F09F803068800302D560680028F9
:100AA00054D0207880071AD5B06810F00C0F09D008
:100AB000B06800F00C00082840F0A6807068400282
:100AC00000F1A2803068800702D5E06801283DD19E
:100AD0003068216920F0F80040EAC10030602078D9
:100AE000000737D4207840074CD4A56955B3B068C7
:100AF00000F00C00082840F0BB80012D26D0706863
:100B0000E16900F480028A4220D1216A00F03F02AC
:100B10008A421BD147F6C071626A0140B1EB821F65
:100B200014D1A16A4FF6FF73C903994300F4403210
:100B3000A1F580318A4209D1E16A00F07060B0EB22
:100B4000016F03D1002002B0BDE8F081012002B0A6
:100B5000BDE8F0816069002840F20000C4F247203F
:100B600076D00121C0F8801EFFF79EFD054600BF2C
:100B7000706F8007B6D4FFF797FD401B0228F7D9A6
:100B8000DDE000BF306C10F080580AD100200190E9
:100B9000306C40F080503064306C00F08050019038
:100BA000019847F20007C4F200073868C00541D435
:100BB000386840F480703860FFF776FD054600BF66
:100BC0003868C00536D4FFF76FFD401B0228F7D9FF
:100BD000B5E000BFB06800F00C00082803D17068D1
:100BE00040023FF558AF6068B0F5803F07D0B0F5E0
:100BF000A02F40F08D80306840F480203060306855
:100C000040F4803030608DE0E068002852D0002051
:100C1000C4F2472001210160FFF746FD054600BFF1
:100C2000306880073FF554AFFFF73EFD401B0228B8
:100C3000F6D984E0A068012805D005284ED1306F90
:100C400040F004003067306F40F0010030674FE043
:100C50000021C0F8801EFFF727FD0546706F800752
:100C60007FF540AFFFF720FD401B0228F6D966E074
:100C70000027C4F2472700203866FFF715FD022D34
:100C800005460BD1306880015ED5FFF70DFD401B96
:100C900002284FF00300F5D955E700BF3068800106
:100CA0007FF550AFFFF700FD401B02284FF0030017
:100CB000F4D948E70020C4F2472000210160FFF783
:100CC000F3FC0546306880077FF509AFFFF7ECFCC1
:100CD000401B02284FF00300F4D934E7316F00289D
:100CE00021F001013167316F21F0040131674DD0EE
:100CF000FFF7DAFC054641F2883700BF306F800706
:100D000056D4FFF7D1FC401BB842F7D917E000BF1B
:100D10003168002821F480313160316821F480216C
:100D200031604FD0FFF7C0FC054600BF306880033C
:100D30003FF5B7AEFFF7B8FC401B6428F6D9032097
:100D400002B0BDE8F08100BF04F11C052FCD0843BF
:100D500040EA8210D9034FF6FF729143A1F580312A
:100D600040EA05600843706001203866FFF79CFC8C
:100D7000044600BF306880013FF5E4AEFFF794FC05
:100D8000001B02284FF00300F4D9DCE6FFF78CFCCF
:100D9000054641F2883700BF306F800708D5FFF75E
:100DA00083FC401BB8424FF00300F5D9CBE600BFEF
:100DB000B8F1000F7FF499AE306C20F080503064B1
:100DC00093E600BFFFF770FC054600BF3068800364
:100DD0007FF567AEFFF768FC401B64284FF0030007
:100DE000F4D9B0E6411E0020B0EB116F1CBF01200A
:100DF00070474EF21002CEF2000251604EF62351BF
:100E0000CEF20001F0230B70072190601160704753
:100E1000704700007047000010B590F83C20012A90
:100E20004FF0020251D080F83D200268D2F804E071
:100E3000D2F808C00C682EF07003234341F2FF740F
:100E4000C4F20004A24253600EDC40F2FF73C4F20D
:100E500000039A4216DCB2F1804F2BD040F20043DF
:100E6000C4F2000324E000BF40F2FF33C4F20103E8
:100E70009A4213DC41F60003C4F200039A4219D0EF
:100E8000002313E040F60003C4F200039A4211D09D
:100E900040F60043C4F200030AE000BF44F200033E
:100EA000C4F201039A4205D040F20043C4F20103A8
:100EB0009A4204D149682CF08003194391600121C2
:100EC000002280F83D1080F83C20104610BD000044
:100ED000002804BF0120704710B5044690F83D007B
:100EE00028B9002084F83C00204600F01FF80220BA
:100EF00084F83D002068211D00F0DCFB012084F80F
:100F0000460084F83E0084F83F0084F8400084F8EE
:100F1000410084F8420084F8430084F8440084F8D7
:100F2000450084F83D00002010BD000080B582B06F
:100F300000680021C4F2010188421CBF02B080BDDC
:100F40000020019043F64400C4F202000168002230
:100F500041F0010101600068002100F001000190F2
:100F600001981920FFF724FC192002B0BDE8804049
:100F7000FFF70ABC90F83D1001291CBF0120704703
:100F8000022180F83D10006841F2FF72C168C4F28E
:100F90000002904241F00101C1600DDC40F2FF719E
:100FA000C4F20001884215DCB0F1804F2AD040F233
:100FB0000041C4F2000123E040F2FF31C4F201011C
:100FC000884213DC41F60001C4F20001884219D0C6
:100FD000002113E040F60001C4F20001884211D064
:100FE00040F60041C4F200010AE000BF44F20001F3
:100FF000C4F20101884205D040F20041C4F201016F
:10100000884206D1816801F00701062904BF00204B
:101010007047016841F00101016000207047000045
:1010200080B590F83C20012A4FF0020200F0C28007
:1010300080F83D20D0F800C04FF67772DCF8083019
:1010400023EA0202CCF808200B684F2B28DC1F2B68
:1010500044DD202B45D0302B43D0402B40F0AC80DA
:10106000D1F804E0C968DCF82030DCF8202022F058
:101070000102CCF82020DCF8182022F0F00242EA2D
:10108000011123F00A0242EA0E02CCF81810CCF843
:101090002020DCF8081041F0470121F0300180E009
:1010A0006F2B27DDB3F5005F48D0B3F5805F7AD0B2
:1010B000702B40F08180D1E901E3C968DCF8082099
:1010C00043EA0E0322F47F4243EA01211143CCF8A4
:1010D0000810DCF8081041F0770162E00BB1102B2A
:1010E0006AD1DCF8081021F07001194341F00701C2
:1010F00057E000BF502B35D0602B5DD1D1F804E014
:10110000C968DCF8203023F01003CCF82030DCF87C
:101110001830DCF8202023F4704322F0A00243EAC8
:10112000013142EA0E12CCF81810CCF82020DCF87D
:10113000081041F0670121F0100132E0D1E901E32C
:10114000C968DCF8082043EA0E0322F47F4243EA30
:1011500001211143CCF80810DCF8081041F480415B
:101160001FE000BFD1F804E0C968DCF82030DCF8EB
:10117000202022F00102CCF82020DCF8182022F0F8
:10118000F00242EA011123F00A0242EA0E02CCF810
:101190001810CCF82020DCF8081041F0570121F09D
:1011A0002001CCF808100022012180F83D10002118
:1011B00080F83C10104680BD0122F5E77047000022
:1011C00010B5016804460869800744BFC8685FEA33
:1011D000807039D40869400744BFC8685FEA40702E
:1011E0003ED40869000744BFC8685FEA007045D470
:1011F0000869C00644BFC8685FEAC0604AD408698D
:10120000C0071CBFC8685FEAC07051D108690006FA
:1012100044BFC8685FEA006052D40869400644BF12
:10122000C8685FEA406053D40869800646BFC86852
:101230005FEA806010BD6FF0200220460A61BDE8C1
:101240001040FFF7E7BD00BF6FF00200086101200A
:1012500020778869800743D02046FFF7AFFF45E03D
:101260006FF00400086102202077886910F4407F45
:1012700040D02046FFF7A2FF42E000BF6FF0080019
:10128000086104202077C86980073DD02046FFF719
:1012900095FF3FE06FF01000086108202077C869D3
:1012A00010F4407F3AD02046FFF788FF3CE000BFB3
:1012B0006FF001000861204600F03EF82168A5E7C4
:1012C0006FF0800008612046FFF7A2FD2168A4E7C7
:1012D0006FF040000861204600F0DEF82168A3E7C7
:1012E000204600F025F8204600F024F82168002070
:1012F00020776FE7204600F01BF8204600F01AF830
:101300002168002020776CE7204600F011F8204685
:1013100000F010F821680020207769E7204600F0EF
:1013200007F8204600F006F821680020207766E7DD
:1013300070470000704700002DE9F04F81B040F287
:101340007801C2F20001884202D001B0BDE8F08FFE
:1013500040F2C004C2F20004204600F039FB04F160
:101360001005284600F034FB04F12007384600F051
:101370002FFB04F13006304600F02AFB04F1400B4D
:10138000584600F025FB04F1500A504600F020FBBF
:1013900004F16009484600F01BFB04F17008404668
:1013A00000F016FB40F27401C2F20001086801303F
:1013B000B0F57A7F0860C8D1204600F079FBA17BA8
:1013C000002818BF0146481EC1B2204600F020FB8D
:1013D000284600F06DFBA17F002818BF0146481E7B
:1013E000C1B2284600F014FB384600F061FB94F8C7
:1013F0002E10002818BF0146481EC1B2384600F022
:1014000007FB304600F054FB94F83E10002818BF4C
:101410000146481EC1B2304600F0FAFA584600F0C4
:1014200047FB94F84E10002818BF0146481EC1B271
:10143000584600F0EDFA504600F03AFB94F85E1082
:10144000002818BF0146481EC1B2504600F0E0FA1D
:10145000484600F02DFB94F86E10002818BF014696
:10146000481EC1B2484600F0D3FA404600F020FBC7
:1014700094F87E10002818BF0146481EC1B24046AD
:1014800000F0C6FA40F274010020C2F200010860C8
:1014900001B0BDE8F08F000070470000FEE70000DB
:1014A00070B586B0002543F6300005950095C4F26E
:1014B0000200016841F6000441F001010160016889
:1014C000C4F2020401F00101009100990095016845
:1014D000002241F08001016001684FF4FF7601F0C5
:1014E0008001009100990095016841F04001016080
:1014F000016801F04001009100990095016841F0F8
:101500000201016000684FF4FF7100F002000090DA
:1015100000982046FFF7C2F80120CDE902050495A6
:1015200001AD204629460196FEF7E4FF0420019014
:101530004FF48810029002200390A4F5A050294691
:10154000FEF7D8FF06B070BD80B586B040F27800D7
:1015500000220021C2F20000C4F201022C234FF04D
:10156000090C0591CDE90311CDE90011C0E9002373
:10157000C0E9021CC0E904118161FFF7A9FC002841
:1015800018BFFEF7B1FF4FF48050029040F2780090
:10159000C2F2000002A9FFF743FD002818BFFEF7C2
:1015A000A3FF40F27800C2F200006946FFF734FC66
:1015B000002818BFFEF798FF06B080BDFEE70000C8
:1015C000FEE700007047000070470000FFF772B8A8
:1015D00080B592B0002043F64001CDE90A00CDE984
:1015E00008000590CDE90300CDE901000090C4F2A8
:1015F00002010A6842F080520A60096801F08051D5
:1016000000910099009047F20000C4F200000168C8
:1016100041F44041016000684FF4800100F4404013
:1016200000900098012006904FF480300D91062123
:10163000079002200E91B4210C90CDE90F100420E8
:10164000119006A8FFF714FA20B1EFF3108072B6DC
:10165000FEE700BFFFF7E8F820B1EFF3108072B6A5
:10166000FEE700BF0F2001900220029000200390AF
:101670004FF4A05004904FF4C050059001A80521EC
:10168000FFF710F920B1EFF3108072B6FEE700BF4C
:1016900012B080BD4EF68850CEF20000016841F4D1
:1016A000700101607047000040F27800C2F2000053
:1016B000FFF786BD10B540F6FF3E0368C4F2000E8A
:1016C00040F2004C7045C4F2010C27DCB0F1804FB1
:1016D00031D040F20042C4F2000290422BD040F6DA
:1016E0000002C4F20002904225D041F6FF72C4F21B
:1016F0000002904229DC70453CDCB0F1804F5FD0A5
:1017000040F20042C4F20002904259D040F600027A
:10171000C4F20002904253D056E000BF40F60042AF
:10172000C4F20002904206D0604504D00022C4F208
:1017300001029042D9D14A6823F07003134341F665
:10174000FF72C4F200029042D5DD43F6FF72C4F28C
:101750000102904222DC42F20002C4F200029042F6
:101760002ED00022C4F20102904229D0604527D039
:101770002AE000BF40F60042C4F2000290421FD0AF
:1017800041F60002C4F20002904219D041F6004234
:10179000C4F20002904213D016E000BF44F20002EF
:1017A000C4F2010290420BD044F60002C4F20102DE
:1017B000904205D044F20042C4F20102904203D1AB
:1017C000CA6823F44073134323F080024B69D1F8B5
:1017D00000E08C681A430260C46240F48062C0F882
:1017E00028E0624504BF096901630121416110BD20
:1017F000FEE70000000000002DE9F04F81B02DED64
:10180000028B86B09FED708B41F60009C4F202098D
:10181000B0EE480A02A8494602228023F0EE680A88
:1018200000F02EF940F2C004DDE90201DDF81320DA
:10183000C2F20004049BB0EE480AC4F80B2084E80E
:101840000B0002A8494604228023F0EE680A00F04B
:1018500017F9DDE90201DDF81320049BC4F81B2011
:10186000C4E90513214641F8100FB0EE480A019172
:1018700002A8494608228023F0EE680A00F000F929
:10188000DDE90201DDF81320049BA246B0EE480A10
:10189000C4F82B20C4E909134AF8200F02A84946CE
:1018A00010228023F0EE680A00F0EAF8DDE9020178
:1018B000DDF81320049BA346B0EE480AC4F83B2091
:1018C000C4E90D134BF8300F02A8494620228023AB
:1018D000F0EE680A00F0D4F8DDE90201DDF813202B
:1018E000049BA046B0EE480AC4F84B20C4E911138B
:1018F00048F8400F02A8494640228023F0EE680ACB
:1019000000F0BEF8DDE90201DDF81320049B274654
:10191000B0EE480AC4F85B20C4E9151347F8500F2D
:1019200002A8494680228023F0EE680A00F0A8F859
:10193000DDE90201DDF81320049B2646B0EE480ADB
:10194000C4F86B20C4E9191346F8600F02A8494691
:101950004FF480728023F0EE680A00F091F8DDE920
:101960000201DDF81320049B2546C4F87B20C4E95E
:101970001D1345F8700F2046002100F049F801982A
:10198000102100F045F85046202100F041F858465B
:10199000302100F03DF84046402100F039F838464B
:1019A000502100F035F83046602100F031F828462B
:1019B000702100F02DF806B0BDEC028B01B0BDE83F
:1019C000F08F00BF00BF00BF9A9999999999014083
:1019D000B0B504468579807B854205D02079854263
:1019E0000CD0681CA071B0BDA068A18900220025A0
:1019F000FEF754FEA57120798542F2D1A068A18935
:101A00000122FEF74BFEA579681CA071B0BD000055
:101A100010B52DED028B04464171084601F03EFBE6
:101A20009FED130B53EC102B01F088FB41EC180BCE
:101A3000206801F0D7FE41EC110BB0EE480AF0EE41
:101A4000680A00F0DDF851EC100B9FED0B0B53EC26
:101A5000102B01F073FB41EC100B00F001FF51EC77
:101A6000100B01F0D5FA2071BDEC028B10BD00BF48
:101A7000000000000000803F000000000000604007
:101A8000B0B500250446816082818373858051EC66
:101A9000100B01F075F820602046A571B0BD000064
:101AA00000218160818181730160C0F8031070475B
:101AB0004079704710B540F27000C2F20000007823
:101AC000BFF35F8FC00718BF10BD40F27000C2F2B5
:101AD000000000F047F858B340F2C004C2F200041E
:101AE0002046FFF7DDFF04F11000FFF7D9FF04F1F6
:101AF0002000FFF7D5FF04F13000FFF7D1FF04F11C
:101B00004000FFF7CDFF04F15000FFF7C9FF04F1DB
:101B10006000FFF7C5FF04F17000FFF7C1FF40F25E
:101B20007000C2F20000BDE8104000F04BB800BFEA
:101B300010BDFEF74BFC0000FEF7CAFDFFF748FDA5
:101B4000FFF7AEFCFFF700FD00F002F8FEE7000033
:101B500040F27800C2F20000FFF70CFAFFF74CFEEB
:101B6000FEE7000080B5017809B1002080BD417812
:101B7000012903D08A0705D402224270481E18BFEB
:101B8000012080BD01A0FFF7D4FF00BF5F5F637835
:101B9000615F67756172645F616371756972652009
:101BA00064657465637465642072656375727369D6
:101BB000766520696E697469616C697A6174696FB0
:101BC0006E000000012101704170704703B401985C
:101BD0004100009850EAC12018BF04204A0D18BFE8
:101BE00040F0010040F2FF72B2EB515F08BF40F0DD
:101BF0000200012808BF052002B070470000000065
:101C00002DE9F04D2DED040B2DED0E8B94B0DDE99B
:101C10002350259CDDF888A025F0004624F00048DC
:101C2000BAF1000F14BF0121002101EB4502FC496C
:101C300053184A1093422AD3002814BF01230023CB
:101C400003EB44030B44F7498B4220D358EA0001CD
:101C50009FEDF5AB76D0DFF8D8B35D4503D1BAF18F
:101C6000000F05D188E0BAF1000F08BF002100D0B5
:101C7000012101EB450111F5001F08D8002814BF10
:101C80000121002101EB440111F5001F0BD99DED4D
:101C9000241B9DED220B14B0BDEC0E8B04B0BDE8EF
:101CA000F04D00F0E1BE0027002DBCBFE1498845A2
:101CB00021DAE1498845A8BF02271CDAC3451ADCAE
:101CC000DE4901EB2851142908DDC1F1340220FA64
:101CD00002F101FA02F282420DD108E058B9C1F1D5
:101CE000140228FA02F101FA02F2424503D101F08E
:101CF0000101C1F1020756EA0A0124D1002C22DABF
:101D0000002D18BF022F01D0012F0AD00220FEF7AC
:101D100052FB14B0BDEC0E8B04B0BDE8F04D00F0EA
:101D20008BBE0220FEF747FB00F086FE51EC100B45
:101D300000F019FF41EC100B14B0BDEC0E8B04B099
:101D4000BDE8F08D18E09FEDBE9B9FEDBF8B002896
:101D500071D1B848804522D105F1804010F580103E
:101D600008BFBAF1000F07D0B3450ADC002CA8BFAA
:101D70009DED240BE0DA0DE0B0EE4A0AF0EE6A0ABF
:101D8000DAE7002C06DA9DED240B51EC100B00F085
:101D9000EAFE6FE0AE48784490ED000BCCE7D84502
:101DA0004DD1002C48DA2EB186423AD1BAF1000F5B
:101DB00042D126E0BAF1000F13D00220FEF7FBFA61
:101DC00000F06EFE8DED020B9DED220B8DED000BF4
:101DD00010EE900A039961F31E0003909DED020B33
:101DE000AAE78DED029B9DED220B19EE901A10EEE5
:101DF000900A8DED000B61F31E0003909DED020B28
:101E00009AE78DED028B9DED220B18EE901A10EEE5
:101E1000900A8DED000B61F31E0003909DED020B07
:101E20008AE709DA9DED220B51EC1A0B53EC102BCB
:101E300000F094FF1EE020E09DED220B7CE786423F
:101E40001BDAB4F1804F0DD0A4F10050B0F1FF5077
:101E500013D1002D11DB9DED220B51EC100B00F086
:101E60004BFE07E09DED220B53EC102B51EC100BB9
:101E700000F0CABC41EC100B5EE79DED220B51EC6B
:101E8000100B00F02DFEBAF1000FCDE90A0142D18E
:101E90009FED710B46B3A6F1E040B0F17F600CD02E
:101EA0005E4538D1002D00DAA7B3022F0CBF012008
:101EB0004FF0FF3001F0DBF8DCE7002D01DD002CF6
:101EC0000DDA002D01DD002C1FDB002D16DA002CB1
:101ED00014DB012F08BF9FED620B3FF42DAFB0EE76
:101EE000490AF0EE690A27E7022F18BF002D0CD02F
:101EF000012F0AD1002DFFF61FAF06E0002DB8BF5D
:101F0000002C08DA012F3FF417AFB0EE480AF0EECC
:101F1000680A11E71BE0012000EBE57050EA0701B9
:101F200015D0791EB0EE4A8AF0EE6A8A084308BFDF
:101F30009FED4D8B4E480025804570DD4D494E4844
:101F4000884514DDB0420DDB002C19DB2FE00120A9
:101F5000FEF731FA14B0BDEC0E8B04B0BDE8F04DC5
:101F600000F08EBDB34502DC002C09DC1FE0864288
:101F700002DA002C1BDA03E05E452BDD002C16DDB7
:101F80000220FEF718FA00F08BFD8DED020B53ECEA
:101F9000192B51EC180B01F0D1F8CDE90001039990
:101FA000019861F31E0003909DED020BC4E6022030
:101FB000FEF701FA00F084FD10EE901A18EE900A78
:101FC0008DED020B8DED008B61F31E0003909DEDF6
:101FD000020BB1E69DED0A0B53EC1A2B51EC100BE2
:101FE00001F012FB9FED260BCDE90A0153EC102BFB
:101FF0009DED0A0B51EC100B01F0A0F89FED221B98
:1020000053EC112B01F028FA9DED0A1B53EC112B18
:1020100001F094F89FED1E1B53EC112B3CE08CE07B
:10202000FFFF1F00FFFF0F00000000000000F03F57
:102030000000F03F0000F07F0000404301FCFFFF84
:10204000000000000000F07F000000000000000021
:10205000CE1C000000000000000000000000008016
:10206000000000000000F0FF000000000000F0BFD2
:102070000000E0410000F043FFFFEF3F00000000E0
:10208000000000000000D03F555555555555D53F2F
:10209000000000000000E03F01F0DEF99DED0A0BBA
:1020A00041EC190B53EC102B51EC100B01F046F8DE
:1020B00053EC192B01F042F89DED0A0B41EC1B0B80
:1020C00053EC102B9FEDFE0B51EC100B01F036F88A
:1020D00041EC190B9FEDFC0B51EC1B0B53EC102B3F
:1020E00001F02CF841EC1B0B9FEDF90B53EC102B7E
:1020F0009DED0A0B51EC100B01F020F853EC1B2B5B
:1021000001F082FA41EC1B0B51EC190B53EC1B2B29
:1021100000F068FD0490CDE904519DED040B53ECF3
:10212000192B51EC100B01F06FFA53EC1B2B01F043
:1021300093F941EC100B00F0A9B90020B6F5801F0F
:102140000EDA9FEDE50B53EC102B9DED0A0B51ECD5
:10215000100B00F0F3FFCDE90A016FF034000E46DA
:1021600000EB2650A0F2FF37C6F31300DC4940F025
:102170007F6646F040568842D8BF002408DDD94922
:102180008142C8BF012403DC0024A6F580167F1C11
:10219000D548784400EBC4080B9698ED000B53EC3F
:1021A000102B9DED0A0B51EC100B01F02DFA98ED60
:1021B000000B41EC1B0B53EC102B9DED0A0B51EC6B
:1021C000100B00F00FFD41EC100B51EC1A0B53EC0F
:1021D000102B00F0C3FD41EC1C0B51EC1B0B53EC1E
:1021E0001C2B00F0ABFF41EC190BC0488DED0E9B92
:1021F00078440E9590ED000B4FF0005040EA6600D9
:1022000000EB84408DED120B00F50020139098ED4B
:10221000000B53EC102B9DED120B51EC100B01F049
:10222000F3F99DED0A1B53EC112B01F015F941EC6C
:10223000100B53EC102B9DED0E0B51EC100B00F01E
:102240007DFF9DED120B41EC1D0B53EC102B9DED12
:102250000E0B51EC100B00F071FF53EC1B2B01F037
:10226000FBF853EC1D2B01F0CFF953EC1C2B00F0C5
:1022700065FF41EC1C0B53EC192B51EC190B00F0D2
:102280005DFF41EC1B0B9A480621B0EE4B0AF0EEC5
:102290006B0A784400F054FBB0EE401AF0EE601A7E
:1022A000B0EE41DAF0EE61DA53EC1B2B51EC1B0B74
:1022B00000F044FF53EC1D2B00F040FF9DED0E0B92
:1022C00041EC1B0B53EC192B51EC100B00F08AFC6A
:1022D00053EC1C2B00F032FF53EC1B2B00F082FC64
:1022E0009DED0E0B41EC1B0B53EC102B51EC100B26
:1022F00000F024FF41EC1D0B53EC1D2B9FED7EEBFA
:1023000051EC1E0B00F06EFC53EC1B2B00F06AFC32
:102310001290CDE912519DED120B53EC1E2B51EC96
:10232000100B01F071F953EC1D2B01F06DF953EC1A
:102330001B2B01F091F89DED120B41EC1D0B53ECA2
:10234000102B9DED0E0B51EC100B00F0F7FE41EC45
:102350001B0B53EC192B51EC1D0B00F0EFFE9DED08
:10236000120B41EC190B53EC102B51EC1C0B00F031
:10237000E5FE53EC192B00F035FC41EC190B51EC48
:102380001B0B53EC192B00F02DFC0490CDE90451EC
:102390009DED040B53EC1B2B51EC100B01F034F9A9
:1023A00053EC192B01F058F89DED040B41EC190B7F
:1023B00053EC102B9FED520B51EC100B00F0BEFEB6
:1023C00041EC1B0B9FED500B51EC190B53EC102BF8
:1023D00000F0B4FE9DED040B41EC190B53EC102BF7
:1023E0009FED4B0B51EC100B00F0A8FE53EC192B9A
:1023F00000F0F8FB41EC100B4748784400EBC400B8
:1024000090ED001B51EC100B53EC112B00F0EAFB8C
:1024100041EC190B384600F02AFECDE90A0153ECD5
:10242000192B51EC1B0B00F0DDFB41EC100B3B4872
:10243000784400EBC40451EC100B94ED001B53ECFA
:10244000112B00F0CFFB9DED0A1B53EC112B00F07C
:10245000C9FB0490CDE904519DED0A0B53EC102B00
:102460009DED040B51EC100B01F0CEF894ED001B28
:1024700053EC112B01F0C8F853EC1B2B01F0C4F8FE
:1024800053EC192B00F0E8FF41EC100B9DED241BE1
:1024900053EC102B8DED001B00959DED240B51ECA2
:1024A000100B00F04BFE9DED000B41EC190B53ECB3
:1024B000102B9DED240B51EC100B01F0A5F82FE033
:1024C000000000604715F73FFE822B654715F73F78
:1024D00044DF5DF80BAE543E0000000000004043B6
:1024E0008E9803007AB60B004A180000741800009A
:1024F0007A17000000000000000000000000084003
:10250000000000E009C7EE3FFD033ADC09C7EE3FDB
:10251000F5015B14E02F3EBE02160000BC15000062
:102520009DED041B53EC112B00F008FE53EC192B0E
:1025300000F058FB9DED040B41EC190B53EC102BF4
:102540009DED000B51EC100B00F0F8FDCDE90401FE
:102550009DED040B51EC190B53EC102B00F042FBDA
:10256000CDE902010C46AA498C422FDB611A0843CF
:1025700018D19DED040B53EC102B9DED020B51EC8B
:10258000100B01F041F841EC1B0B9FEDA30B51EC3C
:10259000190B53EC102B00F025FB53EC1B2B00F018
:1025A000CBFE2DD20220FDF706FF00F079FA10EEE7
:1025B000901A18EE900A8DED020B8DED008B61F3F1
:1025C0001E0003909DED020BFFF7B6BB944A24F06A
:1025D0000041914214D39349214408437FF4E7AC6E
:1025E0009DED040B53EC102B9DED020B51EC100BE9
:1025F00001F00AF853EC192B00F09EFE7FF6D7ACE1
:1026000024F000408849894A002601EB205182428B
:102610002BDA481C4FF4801121FA00F02044844A40
:10262000C0F30A517A44A1F2FF3192ED000B814AC6
:102630008DED0A0BCA4020EA0202C0F3130040F4F9
:102640008010C1F1140120FA01F60B92002CB8BFE2
:1026500076429DED0A0B53EC102B9DED040B51ECD3
:10266000100B00F0D1FFCDE904019DED040B51ECFE
:10267000190B53EC102B00F0B5FA9FED6F0B0A907D
:10268000CDE90A5153EC102B9DED0A0B51EC100BC8
:1026900000F054FD41EC1B0B9FED690B53EC102B2C
:1026A0009DED0A0B51EC100B00F048FD9DED040B65
:1026B00041EC1C0B53EC102B9DED0A0B51EC100B55
:1026C00000F0A2FF53EC192B00F0C6FE9FED5E1B3D
:1026D00053EC112B00F032FD53EC1C2B00F082FA6E
:1026E00041EC190B51EC1B0B53EC192B00F07AFA4F
:1026F000CDE902019DED020B53EC1B2B51EC100BAD
:1027000000F082FF53EC192B00F0A6FE9DED020BAA
:1027100041EC190B53EC102B51EC100B00F00EFD9B
:10272000CDE90A014A489DED0A0B0521784400F0E5
:1027300007F99DED0A1B51EC100B53EC112B00F027
:10274000FDFC9DED021B53EC112B00F085FECDE945
:1027500004019DED020B53EC192B51EC100B00F012
:10276000EDFC53EC192B00F03DFA9FED3B0B41ECD7
:10277000190B53EC102B9DED040B51EC100B00F0DA
:1027800043FF9DED040B41EC1B0B53EC102B9DED17
:10279000020B51EC100B00F0D1FC53EC1B2B00F0A2
:1027A000DDFA53EC192B00F02FFF9DED021B53ECCB
:1027B000112B00F029FF53EC1A2B00F04DFECDE950
:1027C000020101EB065001150029C8BF039015DC7A
:1027D0009DED020B324651EC100B01F0B8F8FFF7FB
:1027E000F5F9042808BF00F06BF932469DED020BA5
:1027F00051EC100B01F0ABF8CDE902019DED020B9D
:1028000051EC180B53EC102B00F098FCFFF732BB87
:102810000000904000000000FE822B654715973CA9
:1028200000CC904000346F3F01FCFFFF0000E03F10
:1028300040140000FFFF0F0000000000432EE63FA1
:10284000396CA80C615C20BEEF39FAFE422EE63FDF
:102850001013000000000000000000000000004015
:1028600010B52DED020B2DED088B84B09DED0C0BFA
:1028700051EC100B00F096FD41EC180B9DED0C0B8C
:1028800053EC182B51EC100B00F0BEFE41EC190B71
:102890000D989FED290B10F0004F53EC102B51ECCD
:1028A000190B9FED21AB9FED22BB0ED000F00AFC6F
:1028B0000ED953EC1B2B51EC190B00F03DFD1CD233
:1028C00014E000BF41EC180B17E000F0FBFB06D250
:1028D00053EC1A2B51EC180B00F096FEF2E753EC78
:1028E0001B2B51EC190B00F027FD06D853EC1A2BCB
:1028F00051EC180B00F076F9E4E78DED028B9DEDBD
:102900000C0B18EE901A10EE900A8DED000B61F38F
:102910001E0003909DED020B04B0BDEC088B02B0CD
:1029200010BD000000000000000000000000F03FAB
:10293000000000000000E03F000000000000E0BFD9
:1029400070B504462DED028B4D1E00EBC500B0EEB8
:10295000408AF0EE608A90ED000B35F0060017D04B
:1029600053EC182B51EC100B00F0E8FB41EC100B72
:102970006D1E04EBC50090ED001B51EC100B53ECE9
:10298000112B00F02FF941EC100B35F00600E7D1C8
:10299000022D36D0042D1CD0062D1CBFBDEC028BA1
:1029A00070BD53EC182B51EC100B00F0C7FB94EDED
:1029B0000A1B53EC112B00F015F953EC182B00F007
:1029C000BDFB94ED081B53EC112B00F00BF941EC0F
:1029D000100B53EC182B51EC100B00F0AFFB94EDE7
:1029E000061B53EC112B00F0FDF853EC182B00F0F4
:1029F000A5FB94ED040B53EC102B00F0F3F841EC25
:102A0000100B53EC182B51EC100B00F097FB94EDCE
:102A1000021B53EC112B00F0E5F853EC182B00F0DF
:102A20008DFB94ED001B53EC112B00F0DBF8BDEC9B
:102A3000028B41EC100B70BD9FED070B10B553ECF2
:102A4000102B9FED070B51EC100B00F087F941ECB8
:102A5000100B10BD0000000000000000000000008E
:102A6000000000000000F03F10B553EC112B51ECBA
:102A7000100B00F0B7F841EC100B10BD0000000087
:102A80009FED050B10B553EC102B51EC100B00F023
:102A900065F941EC100B10BD0000000000000000C3
:102AA0009FED050B10B553EC102B51EC100B00F003
:102AB00045FB41EC100B10BD000000000000007051
:102AC0009FED050B10B553EC102B51EC100B00F0E3
:102AD00035FB41EC100B10BD0000000000000010A1
:102AE00082B0CDE9000121F0004001909DED000B86
:102AF00002B051EC100B704700B52DED048B83B084
:102B000041EC190B00F0B4FC41EC180B18EE100A64
:102B100018EE901A8DED008B002818BF0120084395
:102B200020F00040C0F17F6000F1E040C00F14D001
:102B300019EE101A19EE900A8DED009B002918BFAE
:102B40000121084320F00040C0F17F6000F1E04027
:102B5000C00F04BF0120FDF72EFC51EC180B03B091
:102B6000BDEC048B00BD81F00041704780F0004057
:102B7000704721F00041704720F00040704700008E
:102B800021F0004201F00043A2F16052B2F5801F33
:102B900028BFD2F17F6C0BD95FEA001C43EAC20266
:102BA00042EB507018BF704728BF20F001007047FB
:102BB000B2F5801FBCBF184670474FEA410C1CF5A8
:102BC000001F02D2084600F08BBE70B500F060FB1B
:102BD00000000089FFF7F6BF4FF00040A0F580002D
:102BE0007047000010B591EA030F48BF83F000431F
:102BF00000F11285841A71EB030C05D2121943EB14
:102C00000C03001B61EB0C014FEA1154A4EB135CA5
:102C1000DFF81CE11EEA430F18BF9EEA445F00F094
:102C2000748021EA045123EA0E0343F48013DCF19B
:102C3000200E32D322FA0CFE10EB0E0023FA0CFE0B
:102C400041EB0E01CCF1200E03FA0EFE10EB0E004C
:102C5000CCF1200E51F10001B1F5801F32D201EB11
:102C6000045112FA0EF2BDE8104058BF7047401CE4
:102C700038BF5FEA420218BF7047002814BF20F037
:102C8000010041F100014FEA410313F5001F38BF75
:102C90007047A1F1C04100F049BB012A43EB030298
:102CA000ACF1200CDCF11F0E32BF4FF0000E23FA06
:102CB0000CF310EB030041EB0451B4EB115FD0D0E7
:102CC000A1EB045101F58011490801EB04515FEAC1
:102CD00030000ED350F1000038BF12FA0EFE08D1BA
:102CE000BDE81040C9E7401C38BF5FEA4202CAD1C4
:102CF000C3E7BDE810404FEA410313F5001F38BF9A
:102D00007047A1F1C04100F011BB9EEA445F08D0BA
:102D100011EA5E0FBDE8104004BF01F00041002041
:102D20007047BDE8104070B500F0B2FA64FBBE3EDB
:102D30000000E0FF02494FF0000000F0D6BD00BFE8
:102D40000000F87F491058BFC1F140415B1058BFE7
:102D5000C3F140438B42EFF3008070472DE9C0413F
:102D600030B4DFF8A4C23CEA111418BF3CEA1314D3
:102D700000F0ED801CEA111481EA030544EAD574E1
:102D800018BF1CEA131500F0C880A4EB050404F179
:102D90007F7404F500344FF0004545EAC12145EA4F
:102DA000C32341EA505143EA52534FEAC0204FEA4D
:102DB000C222994208BF904200F09D804FEA1365FD
:102DC0000FF24416765D4FEA134506FB05F7C7F18F
:102DD000807706FB07F74FEAD737A7FB03687642F1
:102DE000A7FB06CEC8F5803838BFA8F1010807FB5D
:102DF00008E6A6FB028C4FF0000EE6FB03CEDCF1EA
:102E0000000CCEF1004E38BFAEF1010EA6FB0C58FF
:102E10004FF00007E6FB0E87A1FB08C6A0FB07CE1C
:102E200016EB0E064FF0000545F10005E1FB0765C6
:102E300015F1E04E7EBFA4F580345FEA46066D4191
:102E400016F1800745F100054FEA172747EA0567A5
:102E50004FEA15254FEA0666A6F1DE46B6F1805F19
:102E600020D9384605EBC47124F0010C01EB0C119C
:102E7000BCF1FE6F02D8F0BCBDE8008124425CBF0B
:102E800001F5801E9EEAC47F02D4F0BCBDE800813B
:102E9000244200F13980A1F1C041F0BCBDE80041FD
:102EA00000F044BA4FEAD02040EA41504FEAD12125
:102EB0004FEAD22242EA43524FEAD323A7FB0286CB
:102EC00007FB036605FB02661EEA0E0F58BFA6EB62
:102ED0000056B6EB00564FEA520E4EEAC37E18EB90
:102EE0000E0E56EB530EBCD518EB02085E417F1C4C
:102EF00055F10005B5E74FF480154FF000074FF08E
:102F000000064FF00008ACE701F1C04101F00041BC
:102F10004FF00000F0BCBDE800810CEA131511EA87
:102F20000C1F00D00CE013EA0C1F00F026804FF0BD
:102F3000000081EA030101F00041F0BCBDE800811E
:102F4000F0BCBDE8004181EA030100F0EFB9F0BC3C
:102F5000BDE8004170B500F09BF900BF097EFC3E62
:102F600000F007B84FF0000081EA030101F00041D2
:102F7000704781EA030100F0D9B9F0BCBDE8004117
:102F800022494FF000007047FFFDFBF9F7F5F4F21E
:102F9000F0EEEDEBE9E8E6E4E3E1E0DEDDDBDAD8F4
:102FA000D7D5D4D3D1D0CFCDCCCBCAC8C7C6C5C452
:102FB000C2C1C0BFBEBDBCBBBAB9B8B7B6B5B4B369
:102FC000B2B1B0AFAEADACABAAA9A8A8A7A6A5A454
:102FD000A3A3A2A1A09F9F9E9D9C9C9B9A99999818
:102FE0009797969595949393929191908F8F8E8EBB
:102FF0008D8C8C8B8B8A8989888887878685858448
:1030000084838382828181800000FF070000F87F33
:103010004FEA41034FEA5353A3F58063D3F11E03F4
:10302000C8BFD3F1210C0CDD4FF0004242EAC122AF
:1030300042EA505232FA03FC8CEAE17CACEBE170DC
:103040007047102BC4BF0020704703F5787CBCF19B
:10305000FF3F04D06FF0004282EA2100704770B554
:1030600000F016F94992248000207047F2E710F032
:10307000004248BF4042B0FA80F310FA03F10AD090
:10308000C3F11D0303F5806302EB03524FEA415085
:1030900002EBD12170474FF000007047B0FA80F387
:1030A00010FA03F10AD0C3F11D0303F580634FEA60
:1030B00003524FEA415002EBD12170474FF000001C
:1030C0007047000051EA030C17D41CF5801F58BF4D
:1030D000BCF5801F00F10680994218BF704708BFF9
:1030E0009042704707D711F5801F58BF13F5801F16
:1030F00019D499427047894270471CF5801F08D542
:10310000BCF5801FF7D58B4218BF704708BF8242BD
:1031100070474FF4001C1CEB410F38BF1CEB430FF2
:1031200001D28B42704770B500F0B2F8922449008A
:103130004FF000514FF08053FFF704BE70B5DFF839
:1031400048C11CEA111E1EBF1CEA13159EEA0C0F93
:1031500095EA0C0F00F06F8081EA03044EEAD47EFA
:10316000AE4421EA4C1123EA4C1341F4801143F49C
:103170008013AEF17F7EA1FB024CA0FB03653619E4
:1031800055EB0C05A1FB034C4CF10003A0FB021C0A
:1031900016EB0C06654153F10003094218BF46F0D7
:1031A000010613F4007F0BD14FEA03314FEA0530DB
:1031B00041EA155140EA165034036FF003020AE069
:1031C0004FEAC3214FEAC52041EA555140EA565023
:1031D000F4026FF0020202EB2E4201EB025585EA87
:1031E000CE710AD05FEA440C18BF24F0004450F1BD
:1031F000000041F1000120EAD47040F2FE7C6245FB
:1032000000D270BDA84214BF4FF080444FF040443C
:10321000002E08BF0024BEF1806FA8BFA1F1C041FD
:10322000BDE8704080F2828001F1C04101F00041B0
:103230004FF0000070470CEA13159EEA0C0F18BF00
:1032400095EA0C0F06D081EA030E4FF000000EF055
:10325000004170BD00F01CF88900013E00F007B885
:1032600000F009B84FEA430C5FEA5C5C08D081EAE1
:10327000030100F05BB84FEA410C5FEA5C5CF6D1F9
:1032800002494FF0000070470000FF070000F87F80
:103290000EF1020E2EF0030E5EF8046B364205D4DA
:1032A000012A43EB030515F5001F12D8012841EB55
:1032B000010C1CF5001F0CD80ED14FEAD17C0CEB91
:1032C0004C0C0CF1020C15F5001F08BF4CEBD37C25
:1032D00004E04FF0080C01E04FEAD37C0CEB4C0506
:1032E00026FA05F606F00706B6F1040C06D20EEB38
:1032F000860CBDE870404CF0010C6047DFE80CF034
:10330000090B02024FF00041A1F500214FF000002F
:1033100070BD19461046012851EB010418BFD4F5C1
:10332000001484BF002001F0004170BD0808A0F522
:1033300000114FEA3101704753EA010C17D41CF514
:10334000801F58BFBCF5801F00F106808B4218BF5C
:10335000704708BF8242704707D713F5801F58BFD8
:1033600011F5801F19D48B4270479B4270471CF5A2
:10337000801F08D5BCF5801FF7D5994218BF70474C
:1033800008BF904270474FF4001C1CEB430F38BF3E
:103390001CEB410F01D2994270470FB40CBC03BC27
:1033A000FFF7C1BE5FEA410C5FEA5C5CACF580638D
:1033B0005B1C39D4D3F1340240F34580B2F12003D1
:1033C00014DA4FF0010C0CFA02FCACF101030340DB
:1033D00020EA0300B3EB5C0208BF10EA0C0F98BFB1
:1033E000704710EB0C0041F1000170470AD0C3F1A7
:1033F000200201FA02FC01284CF1000021FA03F13D
:1034000001FA03F14FF0010C0CFA03FCACF10103DB
:1034100021EA0301B0F1004F08BF11EA0C0F4FF091
:10342000000088BF61447047B3F1FF3F28BF50EAF6
:10343000C12C01F000414FF0000084BF41F07C51ED
:1034400041F470017047B3F5806FB8BF704770B535
:10345000FFF71EFF40DBB6BE10B591EA030F81F007
:1034600000413FF5C7AB83F0004300F0D5B8000042
:103470002DE9F04101F5801CBCF5001FC0F2A980C8
:103480004FEA115C21EA0C5141F480110CF1FD0C62
:103490005FEA5C0C0CF5C07C01D340004941890215
:1034A00041EA905187022EA48E0EA45D0A0C04FB03
:1034B00004F602FB06F6C6F14046A4FB0662F60DD2
:1034C00046EA422606FB06F4A4FB01235242C3F15E
:1034D000404338BF5B1EA6FB02420024E6FB0324E8
:1034E000D20B42EA4446A6FB0623A1FB02E2A3FB61
:1034F00007E4E3FB61426442C2F1404E38BFAEF1E3
:10350000010EA6FB04234FF00002E6FB0E32A2FBE5
:1035100003463400E2FB6264A1FB06E6A4FB07E875
:10352000E4FB61687642C8F1405838BFA8F1010851
:10353000A2FB06E4A3FB08E5E2FB6854A1FB05E659
:10354000A7FB04E8E1FB648618F1200556F10006AC
:10355000A80940EA8660B109A8F11B0808F03F08F5
:10356000B8F10A0F1CD901EB0C51BDE8F08100BF86
:10357000FCF5EEE8E2DDD8D3CFCBC7C3C0BDB9B60A
:10358000B4B1AEACA9A7A5A3A19F9D9B9A9896950F
:103590009392908F8D8C8B89888786858483828196
:1035A000A0FB006800FB01F208EB4208B8EB87289B
:1035B00007D5341858EB0104D5D5401C51F1000152
:1035C000D1E7341A78EB0104CDD4401E71F100012B
:1035D000C9E75FEA4C0C5FEA9C5C0DD105D301F0B2
:1035E00000414FF00000BDE8F081BDE8F04170B54A
:1035F000FFF74EFE6DDBFFBEBDE8F04101494FF025
:10360000000070470000F87F10B591EA030F48BF33
:1036100083F000433FF5EEAA841A71EB030C07D246
:103620008CF0004C121943EB0C03001B61EB0C01F6
:103630004FEA1154A4EB135CDFF8A4E11EEA430F38
:1036400018BF9EEA445F00F0B48021EA045123EAE7
:103650006E035242C3EB6E0338BF5B1EDCF1200EDB
:1036600025D322FA0CFE10EB0E0043FA0CFE41EBC0
:103670000E01CCF1200E03FA0EFE10EB0E00CCF181
:10368000200E51F1000129D401EB045112FA0EF27F
:10369000BDE8104058BF7047401C1CBFB2F1004F3E
:1036A000704700280CBF491C20F00100704712EB46
:1036B000020E43EB030218BF4FF0010E4EEA420226
:1036C000ACF1200CDCF11E0E56D943FA0CFE10EBC7
:1036D0000E00CCF11E0E51F1FF31D5D50EF1010EC9
:1036E00012FA0EFE404141EB010101EB445C5FEA3E
:1036F0005C5C10D901EB045110EBDE7038BFBEF1F9
:10370000004FBDE8104018BF704700280CBF491C8F
:1037100020F00100704734D24FEAD42C24F4006426
:1037200011F500111BD0B1FA81F20B3AA41AA41EB4
:10373000D2F12003914030FA03F31943904001EB9A
:10374000CC7101EB0451002CBDE81040A8BF7047BC
:1037500001F1C04101F000414FF000007047B0FAA4
:1037600080F310FA03F102D1BDE810407047E41A6B
:10377000173C4805C90AE2E701EB0451BDE81040D7
:10378000704749104FEA300001EB0451BDE810408A
:1037900002E04FF0000170474A0008BF0042F8D035
:1037A000B2F5001F28BF704701F000414FF0000044
:1037B00070479EEA445F07D011EA5E0FBDE81040F3
:1037C00004BF002100207047BDE8104070B5FFF72E
:1037D0005FFD00BF40DFF63E104683F000417047BA
:1037E0000000E0FF43004FEAD30C4FEA3C0C43409B
:1037F0001FBF40070CF1605113F0FE4F70471CF0E3
:10380000006F03D10CF00041002070470CF0004322
:1038100043EA507040EACC0010B500F00EF800BF4B
:10382000000000924FEA0001FFF780BD4FF0004119
:10383000A1F500214FF0000070470EF1020E2EF0AE
:10384000030E5EF8044B244204D44FEA4102B2F165
:103850007F4F11D84FEA4003B3F17F4F0CD80ED100
:103860004FEAD07C0CEB4C0C0CF1020CB2F17F4F08
:1038700008BF4CEBD17C04E04FF0080C01E04FEAAC
:10388000D17C0CEB4C0324FA03F404F00704B4F1EC
:10389000040C06D20EEB840CBDE810404CF0010C79
:1038A0006047DFE80CF0070802024FF00040A0F587
:1038B000800010BD0846420018BFD2F1807288BF58
:1038C00000F0004010BDF1EE100A4FF6FF71C0F29B
:1038D000C03120EA010040F04070E1EE100A70476C
:1038E000FF2141EAD050C00570470CF00F03092BAF
:1038F00008BF082000F059800A2B0BD0082B18BFF6
:10390000704708BF1CF0400F0AD04FF000004FF086
:10391000000170471CF0400F18BF4FF00040704787
:103920001CF0100F08D000F07F4220F0704342EAF4
:10393000D3014FEA4370704700F0604021F07F42AE
:1039400042EA000201F07F4040EA727070474FF097
:10395000FF0C4CF4E06C1CEA11531CBF9CEA030CF6
:103960009445C2BFDA4201EB02517047002B0DD0E3
:10397000BCF1000F0FD001F00041002AA4BF41F0BC
:10398000E04141F07F614FF00000704701F00041DD
:103990004FF00000704750EA01334FF09B0C18BF06
:1039A0004CF0806C7FF4C6A970471CF4801F11D0C6
:1039B0001CF4E02F03D06FEACC31490070474FF080
:1039C0004050EFF3008222F0704242EA000282F39C
:1039D000008870474FF000007047000000000000B2
:1039E000000000000000F03F000000000000F83F71
:1039F00000000000000000000000004003B8E23FAB
:103A0000000000000000000006D0CF43EBFD4C3E5C
:103A1000033333333333E33FFFAB6FDBB66DDB3F51
:103A20004D268F515555D53F01411DA96074D13F99
:103A300065DBC9934A86CD3FEF4E454A287ECA3F93
:103A40003E5555555555C53F93BDBE166CC166BF15
:103A50002CDE25AF6A56113FF16BD2C541BDBBBE0E
:103A6000D0A4BE726937663E00000000000000006E
:103A7000000000000000000001020304060708091E
:103A8000A83A00080000002010000000E80100082B
:103A9000B83A0008100000203807000004020008AF
:103AA00015E0FFFF00000000010000001000000012
:083AB0000024F40000000000F6
:04000005080001AD41
:00000001FF
