:020000040800F2
:100000004807002051020008F51E00086D1D000879
:10001000F11E00082D05000859230008000000000B
:10002000000000000000000000000000691F000840
:100030003105000800000000651F0008C11F00080E
:100040006B0200086B0200086B0200086B020008DC
:100050006B0200086B0200086B0200086B020008CC
:10006000350500086B0200086B0200086B020008EF
:100070006B0200086B0200086B0200086B020008AC
:100080006B0200086B0200086B0200086B0200089C
:100090006B0200086B0200086B0200086B0200088C
:1000A0006B020008A92000086B0200086B02000820
:1000B0006B0200086B0200086B0200086B0200086C
:1000C0006B0200086B0200086B0200086B0200085C
:1000D0006B0200086B0200086B0200086B0200084C
:1000E0006B0200086B0200086B0200086B0200083C
:1000F0006B0200086B0200086B0200086B0200082C
:100100006B0200086B0200086B0200086B0200081B
:100110006B0200086B0200086B0200086B0200080B
:100120006B0200086B0200086B0200086B020008FB
:100130006B0200086B0200086B0200086B020008EB
:100140006B0200086B0200086B0200086B020008DB
:100150006B0200086B0200086B0200086B020008CB
:100160006B0200086B0200086B0200086B020008BB
:100170006B0200086B0200086B0200080000000020
:100180006B0200086B0200086B0200086B0200089B
:100190006B0200086B0200086B0200086B0200088B
:1001A00000000000000000006B02000800F002F8F0
:1001B00000F03EF80AA090E8000C82448344AAF1C3
:1001C0000107DA4501D100F033F8AFF2090EBAE8C1
:1001D0000F0013F0010F18BFFB1A43F0010318477B
:1001E0004046000060460000103A24BF78C878C13D
:1001F000FAD8520724BF30C830C144BF04680C602D
:10020000704700000023002400250026103A28BF74
:1002100078C1FBD8520728BF30C148BF0B60704778
:100220001FB504F020FA00F0D5F81FBD10B510BDC1
:1002300000F008F91146FFF7F3FF02F05BFB00F056
:1002400026F903B4FFF7F2FF03BC00F0F1F8000059
:100250000948804709480047FEE7FEE7FEE7FEE75A
:10026000FEE7FEE7FEE7FEE7FEE7FEE70448054996
:10027000054A064B7047000095200008AD010008B4
:1002800048010020480700204803002048030020C0
:1002900053EA020C00F069802DE9F04B4FF00006A4
:1002A000002B1FBFB3FA83F503FA05F424FA05F611
:1002B0005E4012BF1643B2FA82F502FA05F4C5F1A8
:1002C00020051EBF22FA05FC44EA0C04203556EA3C
:1002D000044C4FEA144418BF641C4FF000084FF060
:1002E0000009904271EB030C39D3002919BFB1FA10
:1002F00081F701FA07F6B0FA80F700FA07F6C7F1BE
:1003000020071EBF20FA07FC46EA0C062037B6FB82
:10031000F4FCA7EB0507103F07F01F0BCBF12006FD
:100320002CFA06F60CFA0BFB44BFB3460026202F2E
:10033000A4BF5E464FF0000B5BEA060C08BF4FF00F
:10034000010B19EB0B0948EB0608ABFB027C06FB23
:1003500002CC0BFB03CCC01B71EB0C01C1E70B46BD
:10036000024641464846BDE8F08B13B5084318BF26
:100370004FF0FF300146AFF30080BDE81C407047EE
:100380004FF0000200B5134694469646203922BF2E
:10039000A0E80C50A0E80C50B1F12001BFF4F7AF79
:1003A000090728BFA0E80C5048BF0CC05DF804EB5B
:1003B000890028BF40F8042B08BF704748BF20F8C9
:1003C000022B11F0804F18BF00F8012B70477047C7
:1003D0007047704770B5064C7C44064D7D4404E080
:1003E0002046016808448047241DAC42F8D170BD06
:1003F000644400006444000010B500F009F800688F
:1004000010BD10B5044600F003F8046010BD0000F4
:10041000004870471000002010B5002000F040F8A0
:10042000FFF704FFBDE81040012000F001B8000014
:1004300001491820ABBEFEE72600020000487047C5
:10044000100000207546FFF7F9FFAE46050069462B
:10045000534620F00700854618B020B5FFF706FF89
:10046000BDE820404FF000064FF000074FF00008B5
:100470004FF0000BAC46ACE8C009ACE8C009ACE8F2
:10048000C009ACE8C00921F007018D46704710B5DE
:100490000446AFF300802046BDE81040FFF7D1BE10
:1004A00010B500F00BF8BDE8104000F001B870473F
:1004B000002801D0FFF7BCBF7047000010B5002135
:1004C00002A000F013F8012010BD0000534947417D
:1004D0004252543A2041626E6F726D616C207465B5
:1004E000726D696E6174696F6E00000070B50546CB
:1004F0000C460A2000E06D1C00F011F835B1287898
:100500000028F8D102E0641C00F009F814B120784A
:100510000028F8D1BDE870400A20AFF3008008B58C
:1005200069468DF800000320ABBE08BDFFE7FEE77B
:100530007047000080B5042000F018F880BD00006E
:1005400081B0EFF3108072B60090FFE7FEE7000085
:1005500080B582B0ADF80600BDF80600042803D1CE
:10056000FFE701F093FFFFE702B080BD80B582B0E6
:10057000ADF8060043F61440C4F201000068BDF86F
:10058000061008420CD0FFE7BDF8060043F6144100
:10059000C4F201010860BDF80600FFF7D9FFFFE7CC
:1005A00002B080BD90B00F900E9100200C900B9087
:1005B0000A900D90FFE70D980F2800F2E881FFE701
:1005C0000D99012088400C900E9800680C99084005
:1005D0000B900B980C99884240F0D481FFE70E985D
:1005E000406800F00300012807D0FFE70E9840683C
:1005F00000F0030002282FD1FFE70F9880680A90CF
:100600000D984100032000FA01F10A9888430A90EE
:100610000E98C0680D99490000FA01F10A98084344
:100620000A900A980F9988600F9840680A900D996F
:10063000012000FA01F10A9888430A900E98406858
:10064000C0F300100D9900FA01F10A9808430A90CE
:100650000A980F994860FFE70E98406800F0030081
:10066000032818D0FFE70F98C0680A900D98410042
:10067000032000FA01F10A9888430A900E988068D6
:100680000D99490000FA01F10A9808430A900A9866
:100690000F99C860FFE70E98406800F00300022839
:1006A00026D1FFE70F980D996FF0030202EA51017E
:1006B0000844006A0A900D9800F0070081000F209E
:1006C00000FA01F10A9888430A900E9800690D9982
:1006D00001F00701890000FA01F10A9808430A9025
:1006E0000A980F990D9B02EA530211440862FFE732
:1006F0000F9800680A900D984100032000FA01F15C
:100700000A9888430A900E98406800F003000D99FB
:10071000490000FA01F10A9808430A900A980F99D3
:1007200008600E9880798007002800F02A81FFE792
:10073000FFE70020099043F64400C4F2020001687C
:1007400041F480410160006800F4804009900998FC
:10075000FFE70D9820F0030043F60801C4F2010101
:1007600040580A900D9800F0030081000F2000FA15
:1007700001F10A9888430A900F980021C4F20201FF
:10078000884203D1FFE7002008907AE00F9840F2FA
:100790000041C4F20201884203D1FFE70120079023
:1007A0006CE00F9840F60001C4F20201884203D1C8
:1007B000FFE7022006905EE00F9840F60041C4F289
:1007C0000201884203D1FFE70320059050E00F9813
:1007D00041F20001C4F20201884203D1FFE7042084
:1007E000049042E00F9841F20041C4F202018842B5
:1007F00003D1FFE70520039034E00F9841F6000194
:10080000C4F20201884203D1FFE70620029026E0ED
:100810000F9841F60041C4F20201884203D1FFE77C
:100820000720019018E00F9842F20001C4F2020183
:10083000884203D1FFE7082000900AE00F9942F2B6
:100840000042C4F202020A20914208BF092000902F
:10085000FFE700980190FFE701980290FFE70298F8
:100860000390FFE703980490FFE704980590FFE7E3
:1008700005980690FFE706980790FFE7079808900D
:10088000FFE70898C0B20D9901F00301890000FA52
:1008900001F10A9808430A900A980D9921F0030182
:1008A00043F60802C4F20102885043F60840C4F23D
:1008B000010000680A900B990A9888430A900E98E4
:1008C0008079C006002805D5FFE70B990A980843F0
:1008D0000A90FFE70A9843F60841C4F20101086054
:1008E00043F60C40C4F2010000680A900B990A9884
:1008F00088430A900E9880798006002805D5FFE786
:100900000B990A9808430A90FFE70A9843F60C41AE
:10091000C4F20101086043F60440C4F2010000681B
:100920000A900B990A9888430A900E98807980075C
:10093000002805D5FFE70B990A9808430A90FFE7BE
:100940000A9843F60441C4F20101086043F60040EE
:10095000C4F2010000680A900B990A9888430A9033
:100960000E988079C00728B1FFE70B990A980843D1
:100970000A90FFE70A9843F60041C4F201010860BB
:10098000FFE7FFE7FFE70D9801300D9013E610B089
:100990007047000082B00190ADF802108DF8012080
:1009A0009DF8010028B1FFE7BDF8020001998861B8
:1009B00005E0BDF80200000401998861FFE702B07C
:1009C0007047000040F24410C2F200000068704717
:1009D00040F20400C2F20000027840F24411C2F278
:1009E00000010868104408607047000080B543F6B5
:1009F0000041C4F20201086840F400700860086811
:100A000040F480600860086840F48070086003204B
:100A100000F08AF80F2000F005F800F03BF8002005
:100A200080BD000080B582B0009040F20000C2F2AC
:100A30000000006840F20401C2F200010A784FF49D
:100A40007A71B1FBF2F1B0FBF1F000F0DBFD20B107
:100A5000FFE701208DF8070018E000980F280DD857
:100A6000FFE700994FF0FF30002200F043F80098B4
:100A700040F20801C2F20001086003E001208DF895
:100A8000070003E000208DF80700FFE79DF807004E
:100A900002B080BD82B0FFE70020019043F6440021
:100AA000C4F20200016841F480410160006800F472
:100AB000804001900198FFE7FFE70020009043F697
:100AC0004000C4F20200016841F0805101600068FA
:100AD00000F0805000900098FFE702B070470000DF
:100AE00080B582B08DF807009DF9070001F06CFE1B
:100AF00002B080BD80B586B08DF8170004910392D6
:100B00000020029001F078FE02909DF917000190FC
:100B100002980499039A01F0EFF90146019801F057
:100B200073FE06B080BD000080B582B001900198D0
:100B300001F08CFE02B080BD80B584B00020029030
:100B4000FFE70020019043F64000C4F20200016874
:100B500041F080510160006800F0805001900198E0
:100B6000FFE74021C4F20E2101200860FFF72AFFB1
:100B70000290FFE747F20400C4F20000006800F4AE
:100B80008030B0F5803F0DD0FFE7FFF71BFF0299E3
:100B9000401AB0F57A7F04D9FFE703208DF80F00E3
:100BA00025E0E7E74421C4F20E2101200860FFF7A9
:100BB00009FF0290FFE747F20400C4F2000000685A
:100BC00000F40030B0F5003F0DD0FFE7FFF7FAFE6C
:100BD0000299401AB0F57A7F04D9FFE703208DF817
:100BE0000F0004E0E7E700208DF80F00FFE79DF815
:100BF0000F0004B080BD000080B584B00290019168
:100C0000029820B9FFE701208DF80F0021E101983B
:100C100043F60041C4F20201096801F00F01884265
:100C200012D9FFE7019943F60040C4F202000170B7
:100C3000006800F00F000199884204D0FFE701200E
:100C40008DF80F0005E1FFE7029800788007002883
:100C50002AD5FFE7029800784007002809D5FFE76A
:100C600043F60801C4F20201086840F4E05008604D
:100C7000FFE7029800780007002809D5FFE743F650
:100C80000801C4F20201086840F460400860FFE710
:100C900043F60801C4F20201086820F0F000029A4D
:100CA000926810430860FFE702980078C0070028A8
:100CB0006ED0FFE702984068012811D1FFE743F6A4
:100CC0000000C4F20200006800F400310020B0EB24
:100CD000514F04D1FFE701208DF80F00B9E02CE05F
:100CE00002984068022805D0FFE702984068032870
:100CF00011D1FFE743F60000C4F20200006800F0E3
:100D000000710020B0EB516F04D1FFE701208DF896
:100D10000F009EE010E043F60000C4F202000068FD
:100D200000F002010020B0EB510F04D1FFE70120D9
:100D30008DF80F008DE0FFE7FFE743F60801C4F2EE
:100D40000201086820F00300029A5268104308600C
:100D5000FFF738FE0090FFE743F60800C4F20200F8
:100D6000006800F00C0002994968B0EB810F0ED0CA
:100D7000FFE7FFF727FE0099401A41F289318842C8
:100D800004D3FFE703208DF80F0062E0E4E7FFE7FC
:100D9000019843F60041C4F20201096801F00F0115
:100DA000884212D2FFE7019943F60040C4F20200E4
:100DB0000170006800F00F000199884204D0FFE73D
:100DC00001208DF80F0044E0FFE70298007840070B
:100DD00000280CD5FFE743F60801C4F202010868B9
:100DE00020F4E050029AD26810430860FFE70298AE
:100DF0000078000700280DD5FFE743F60801C4F28C
:100E00000201086820F46040029A126940EAC200B8
:100E10000860FFE700F022F843F60801C4F202017F
:100E20000968C9B20A0944F61001C0F60001895CDC
:100E3000C84040F20001C2F20001086040F2080020
:100E4000C2F200000068FFF7EDFD00208DF80F00F2
:100E5000FFE79DF80F0004B080BD000080B586B0AC
:100E60000020059004900390029043F60800C4F21D
:100E70000200006800F00C000146019140B1FFE75C
:100E8000019804280AD0FFE7019808280CD04FE009
:100E900042F20040C0F2F40002904FE041F6003010
:100EA000C0F2B700029049E043F60400C4F2020029
:100EB000016801F03F01059100684002002813D548
:100EC000FFE743F60400C4F202000068C0F3881094
:100ED00041F60031C0F2B701A0FB0101059A0023E1
:100EE000FFF7D6F9049012E043F60400C4F20200C2
:100EF0000068C0F3881042F20041C0F2F401A0FB88
:100F00000101059A0023FFF7C3F90490FFE743F6B8
:100F10000400C4F20200006800F44031022000EB3B
:100F2000D130039004980399B0FBF1F0029005E0F2
:100F300042F20040C0F2F4000290FFE7029806B0CF
:100F400080BD000080B586B00490049820B9FFE70A
:100F500001208DF8170050E304980078C00700289E
:100F600000F0A580FFE743F60800C4F20200006825
:100F700000F00C00042813D0FFE743F60800C4F289
:100F80000200006800F00C0008281ED1FFE743F6BD
:100F90000400C4F2020000684002002815D5FFE7F3
:100FA00043F60000C4F20200006800F400310020A3
:100FB000B0EB514F08D0FFE70498406820B9FFE735
:100FC00001208DF8170018E370E0FFE704984068EF
:100FD000B0F5803F09D1FFE743F60001C4F20201FA
:100FE000086840F48030086020E004984068B0F55C
:100FF000A02F0DD1FFE743F60001C4F202010868FB
:1010000040F480200860086840F4803008600CE0FC
:1010100043F60001C4F20201086820F48030086041
:10102000086820F480200860FFE7FFE7FFE70498E6
:101030004068E8B1FFE7FFF7C5FC0390FFE743F620
:101040000000C4F20200006800F400310020B0EBA0
:10105000514F0CD1FFE7FFF7B5FC0399401A652803
:1010600004D3FFE703208DF81700C6E2E7E71CE092
:10107000FFF7A8FC0390FFE743F60000C4F202006C
:10108000006800F400310020B0EB514F0CD0FFE7B6
:10109000FFF798FC0399401A652804D3FFE7032063
:1010A0008DF81700A9E2E7E7FFE7FFE7FFE70498FD
:1010B00000788007002840F19680FFE743F608009B
:1010C000C4F20200006810F00C0F13D0FFE743F6E3
:1010D0000800C4F20200006800F00C0008282CD1BF
:1010E000FFE743F60400C4F2020000684002002853
:1010F00023D4FFE743F60000C4F20200006800F0CA
:1011000002010020B0EB510F09D0FFE70498C0683E
:10111000012804D0FFE701208DF817006DE243F6A7
:101120000001C4F20201086820F0F800049A126974
:1011300040EAC2000860FFE754E00498C06870B35A
:10114000FFE70021C4F2472101200860FFF73AFCC5
:101150000390FFE743F60000C4F20200006800F0CD
:1011600002010020B0EB510F0CD1FFE7FFF72AFC82
:101170000399401A032804D3FFE703208DF81700D2
:101180003BE2E7E743F60001C4F20201086820F001
:10119000F800049A126940EAC200086021E00021C8
:1011A000C4F2472100200860FFF70CFC0390FFE722
:1011B00043F60000C4F20200006800F002010020C3
:1011C000B0EB510F0CD0FFE7FFF7FCFB0399401A7F
:1011D000032804D3FFE703208DF817000DE2E7E7AB
:1011E000FFE7FFE7FFE704980078000700284BD5EA
:1011F000FFE70498406918B3FFE740F68061C4F246
:10120000472101200860FFF7DDFB0390FFE743F66D
:101210007400C4F20200006800F002010020B0EB8C
:10122000510F0CD1FFE7FFF7CDFB0399401A0328BC
:1012300004D3FFE703208DF81700DEE1E7E722E0A3
:1012400040F68061C4F2472100200860FFF7BAFB36
:101250000390FFE743F67400C4F20200006800F058
:1012600002010020B0EB510F0CD0FFE7FFF7AAFB03
:101270000399401A032804D3FFE703208DF81700D1
:10128000BBE1E7E7FFE7FFE70498007840070028A5
:1012900040F1CE80FFE700208DF8070043F64000C4
:1012A000C4F202000068C000002815D4FFE7FFE781
:1012B0000020009043F64000C4F20200016841F0B3
:1012C00080510160006800F0805000900098FFE7B6
:1012D00001208DF80700FFE747F20000C4F200008C
:1012E0000068C005002822D4FFE747F20001C4F2DD
:1012F0000001086840F480700860FFF763FB03900A
:10130000FFE747F20000C4F200000068C0050028B3
:101310000CD4FFE7FFF756FB0399401A032804D3C8
:10132000FFE703208DF8170067E1EAE7FFE7FFE733
:1013300004988068012809D1FFE743F67001C4F2E0
:101340000201086840F0010008601FE0049880680E
:1013500005280DD1FFE743F67001C4F202010868C9
:1013600040F004000860086840F0010008600CE0EC
:1013700043F67001C4F20201086820F00100086021
:10138000086820F004000860FFE7FFE7FFE7049823
:101390008068F8B1FFE7FFF715FB0390FFE743F61E
:1013A0007000C4F20200006800F002010020B0EBFF
:1013B000510F0ED1FFE7FFF705FB0399401A41F2E9
:1013C0008931884204D3FFE703208DF8170014E128
:1013D000E5E71EE0FFF7F6FA0390FFE743F670003B
:1013E000C4F20200006800F002010020B0EB510FCF
:1013F0000ED0FFE7FFF7E6FA0399401A41F2893170
:10140000884204D3FFE703208DF81700F5E0E5E7F5
:10141000FFE79DF80700012809D1FFE743F64001E7
:10142000C4F20201086820F080500860FFE7FFE77F
:1014300004988069002800F0DC80FFE743F608008C
:10144000C4F20200006800F00C00082800F085805B
:10145000FFE70498806902285CD1FFE76021C4F2AD
:10146000472100200860FFF7ADFA0390FFE743F63D
:101470000000C4F20200006800F000710020B0EB30
:10148000516F0CD0FFE7FFF79DFA0399401A03282C
:1014900004D3FFE703208DF81700AEE0E7E70499D7
:1014A000C869D1F820C04B6A8A6A40EA0C0040EA59
:1014B0008310D2034FF6FF739A43A2F58032104394
:1014C000C96A40EA016043F60401C4F202010860FF
:1014D0006021C4F2472101200860FFF773FA0390EE
:1014E000FFE743F60000C4F20200006800F000715C
:1014F0000020B0EB516F0CD1FFE7FFF763FA0399BF
:10150000401A032804D3FFE703208DF8170074E086
:10151000E7E721E06021C4F2472100200860FFF7DF
:1015200051FA0390FFE743F60000C4F2020000689E
:1015300000F000710020B0EB516F0CD0FFE7FFF717
:1015400041FA0399401A032804D3FFE703208DF8DA
:10155000170052E0E7E7FFE74AE0049880690128B6
:1015600004D1FFE701208DF8170046E043F60400A0
:10157000C4F202000068029004988069012831D00A
:10158000FFE7029800F480000499C969884229D1D4
:10159000FFE7029800F03F000499096A884221D1D0
:1015A000FFE7029847F6C07108400499496AB0EB1A
:1015B000811F17D1FFE7029800F440300499896A2F
:1015C000C9034FF6FF729143A1F58031884209D1DA
:1015D000FFE7029800F070600499C96AB0EB016FF0
:1015E00004D0FFE701208DF8170006E0FFE7FFE7D2
:1015F000FFE700208DF81700FFE79DF8170006B001
:1016000080BD000080B582B00190019800F0AEFC72
:1016100002B080BD81B0009001B0704781B00090F1
:1016200001B0704785B003900291FFE7039890F8EE
:101630003C00012804D1FFE702208DF813007EE072
:101640000399012081F83C00FFE7FFE7039902209E
:1016500081F83D0003980068406801900398006895
:1016600080680090019820F0700001900298016855
:10167000019808430190019803990968486003980C
:1016800000680021C4F2010188423CD0FFE70398C2
:101690000068B0F1804F36D0FFE70398006840F251
:1016A0000041C4F2000188422DD0FFE70398006892
:1016B00040F60001C4F20001884224D0FFE70398FD
:1016C000006840F60041C4F2000188421BD0FFE7E9
:1016D0000398006840F20041C4F20101884212D030
:1016E000FFE70398006844F20001C4F20101884258
:1016F00009D0FFE70398006841F60001C4F2000139
:1017000088420ED1FFE7009820F0800000900298F8
:101710004168009808430090009803990968886020
:10172000FFE70399012081F83D00FFE703990020BE
:1017300081F83C00FFE700208DF81300FFE79DF8DB
:10174000130005B07047000080B582B0009000988B
:1017500020B9FFE701208DF807003FE0009890F8DE
:101760003D0040B9FFE70099002081F83C00009857
:1017700000F038F8FFE70099022081F83D00009959
:1017800051F8040B00F098FC0099012081F8460004
:10179000FFE70099012081F83E00009981F83F00A1
:1017A000009981F84000009981F84100FFE7FFE7C8
:1017B0000099012081F84200009981F843000099C6
:1017C00081F84400009981F84500FFE70099012065
:1017D00081F83D0000208DF80700FFE79DF8070025
:1017E00002B080BD80B584B00390039800680021EA
:1017F000C4F2010188421BD1FFE7FFE700200290FD
:1018000043F64400C4F20200016841F001010160A6
:10181000006800F0010002900298FFE71920019093
:1018200000221146FFF766F90198FFF759F9FFE723
:1018300004B080BD83B00190019890F83D0001286C
:1018400004D0FFE701208DF80B006AE00199022027
:1018500081F83D0001980168C86840F00100C86047
:10186000019800680021C4F2010188423CD0FFE7E2
:1018700001980068B0F1804F36D0FFE7019800680A
:1018800040F20041C4F2000188422DD0FFE70198E8
:10189000006840F60001C4F20001884224D0FFE74E
:1018A0000198006840F60041C4F2000188421BD054
:1018B000FFE70198006840F20041C4F2010188424C
:1018C00012D0FFE70198006844F20001C4F2010160
:1018D000884209D0FFE70198006841F60001C4F290
:1018E0000001884212D1FFE701980068806800F08B
:1018F000070000900098062807D0FFE701980168CC
:10190000086840F001000860FFE706E00198016800
:10191000086840F001000860FFE700208DF80B0028
:10192000FFE79DF80B0003B07047000080B586B05C
:101930000490039100208DF80B00FFE7049890F8C5
:101940003C00012804D1FFE702208DF81700ABE02E
:101950000499012081F83C00FFE7FFE70499022089
:1019600081F83D000498006880680190019820F09B
:1019700077000190019820F47F400190019804992C
:1019800009688860039800680090002872D0FFE71B
:10199000009810286ED0FFE7009820286AD0FFE753
:1019A0000098302866D0FFE70098402855D0FFE720
:1019B0000098502837D0FFE70098602840D0FFE714
:1019C000009870280BD0FFE70098B0F5805F05D035
:1019D000FFE70098B0F5005F16D052E055E004989C
:1019E0000068039B5A689968DB6800F033FC049830
:1019F000006880680190019840F07700019001989C
:101A000004990968886040E004980068039B5A685C
:101A10009968DB6800F01EFC04980168886840F44F
:101A20008040886031E004980068039A5168D26869
:101A300000F040FC04980068502100F025FC24E0F0
:101A400004980068039A5168D26800F05BFC04981F
:101A50000068602100F018FC17E004980068039A01
:101A60005168D26800F026FC04980068402100F01C
:101A70000BFC0AE0049800680399096800F004FC74
:101A800003E001208DF80B00FFE70499012081F8A5
:101A90003D00FFE70499002081F83C00FFE79DF836
:101AA0000B008DF81700FFE79DF8170006B080BD0A
:101AB00081B0009001B0704780B582B0019001986C
:101AC0000068006900F002010020B0EB510F28D03F
:101AD000FFE701980068C06800F002010020B0EB49
:101AE000510F1DD0FFE7019801686FF002000861F7
:101AF000019901200877019800688069800720B16A
:101B0000FFE70198FFF7D4FF06E0019800F012F913
:101B1000019800F013F9FFE7019900200877FFE72B
:101B2000FFE701980068006900F004010020B0EBB5
:101B3000910F29D0FFE701980068C06800F0040108
:101B40000020B0EB910F1ED0FFE7019801686FF005
:101B500004000861019902200877019800688069F3
:101B600010F4407F04D0FFE70198FFF7A1FF06E0E3
:101B7000019800F0DFF8019800F0E0F8FFE7019924
:101B800000200877FFE7FFE701980068006900F090
:101B900008010020B0EBD10F28D0FFE701980068C2
:101BA000C06800F008010020B0EBD10F1DD0FFE7A6
:101BB000019801686FF00800086101990420087716
:101BC00001980068C069800720B1FFE70198FFF71E
:101BD0006FFF06E0019800F0ADF8019800F0AEF854
:101BE000FFE7019900200877FFE7FFE70198006809
:101BF000006900F010010020B0EB111F29D0FFE7B1
:101C000001980068C06800F010010020B0EB111FBF
:101C10001ED0FFE7019801686FF01000086101997C
:101C20000820087701980068C06910F4407F04D04C
:101C3000FFE70198FFF73CFF06E0019800F07AF813
:101C4000019800F07BF8FFE7019900200877FFE793
:101C5000FFE7019800680069C00780B1FFE70198BD
:101C60000068C068C00748B1FFE7019801686FF0DD
:101C700001000861019800F065F8FFE7FFE70198AF
:101C800000680069C1B20020B0EBD11F13D0FFE79C
:101C900001980068C068C1B20020B0EBD11F09D024
:101CA000FFE7019801686FF0800008610198FFF775
:101CB000B1FCFFE7FFE701980068006900F0400110
:101CC0000020B0EB911F14D0FFE701980068C068B6
:101CD00000F040010020B0EB911F09D0FFE7019810
:101CE00001686FF040000861019800F03BF8FFE7E1
:101CF000FFE701980068006900F020010020B0EBC8
:101D0000511F14D0FFE701980068C06800F020015F
:101D10000020B0EB511F09D0FFE7019801686FF078
:101D2000200008610198FFF779FCFFE7FFE702B0A8
:101D300080BD000081B0009001B0704781B000907C
:101D400001B0704780B582B00190019840F27401F3
:101D5000C2F20001884203D1FFE700F03BFBFFE73E
:101D600002B080BD81B0009001B07047FFE7FEE790
:101D700080B58EB000200D900C900B900A900990C9
:101D8000FFE70020089043F63000C4F2020001682B
:101D900041F001010160006800F00100089008981E
:101DA000FFE7FFE70020079043F63000C4F202008F
:101DB000016841F080010160006800F08000079038
:101DC0000798FFE7FFE70020069043F63000C4F2D3
:101DD0000200016841F040010160006800F040002D
:101DE00006900698FFE7FFE70020059043F63000D5
:101DF000C4F20200016841F002010160006800F0D5
:101E0000020005900598FFE741F60000C4F20200C9
:101E100001904FF4FF71009100220392FEF7BAFD8A
:101E2000009A01980399099201220A920B910C9150
:101E300009A90291FEF7B6FB0299042009904FF41C
:101E400088100A9002200B9040F20040C4F2020079
:101E5000FEF7A8FB039A082004901146FEF74AFEFD
:101E60000498FEF73DFE0EB080BD000080B588B03E
:101E7000002100910791069105910491039102912F
:101E800040F27400C2F2000001900022C4F201028C
:101E900002602C22426081600922C26001614161BE
:101EA0008161FFF751FC18B1FFE7FEF749FBFFE73F
:101EB0004FF48050049040F27400C2F2000004A974
:101EC000FFF734FD18B1FFE7FEF73AFBFFE700200C
:101ED0000290039040F27400C2F2000002A9FFF7E2
:101EE000A1FB18B1FFE7FEF72BFBFFE708B080BDB1
:101EF000FFE7FEE7FFE7FEE788B00790069105924F
:101F0000079800F0070004900498C0F10700052826
:101F100003D3FFE70420019004E00498C0F1070018
:101F20000190FFE70198039004980430062803D835
:101F3000FFE70020009003E0049803380090FFE7DB
:101F40000098029006980399012202FA01F10139E2
:101F50000840029B984005999A40013A1140084375
:101F600008B07047704700007047000080B582B02D
:101F7000009000980138B0F1807F03D3FFE7012083
:101F8000019019E0009801384EF21401CEF20001E0
:101F900008604FF0FF300F2100F036FC4EF21801C0
:101FA000CEF20001002008604EF21002CEF20002D4
:101FB000072111600190FFE7019802B080BD000089
:101FC00080B5FEF705FD80BD80B594B008A830212E
:101FD000FEF7D6F900200790069005900490039034
:101FE000FFE70020029043F64000C4F202000168BF
:101FF00041F080510160006800F08050029002982A
:10200000FFE7FFE70020019047F20000C4F2000064
:10201000016841F440410160006800F440400190D3
:102020000198FFE7012008904FF4803009900220CA
:102030000E904FF480010F9106211091B42111915F
:1020400012900420139008A8FEF77CFF18B1FFE758
:10205000FEF776FAFFE7FEF76FFD18B1FFE7FEF730
:102060006FFAFFE70F2003900220049000200590F4
:102070004FF4A05006904FF4C050079003A80521DC
:10208000FEF7BAFD18B1FFE7FEF75AFAFFE714B002
:1020900080BD00004EF68851CEF20001086840F481
:1020A000700008607047000080B540F27400C2F212
:1020B0000000FFF701FD80BD83B0029001910298FE
:1020C0000068009002980021C4F20101884225D0E6
:1020D000FFE70298B0F1804F20D0FFE7029840F26E
:1020E0000041C4F20001884218D0FFE7029840F690
:1020F0000001C4F20001884210D0FFE7029840F6C8
:102100000041C4F20001884208D0FFE7029840F283
:102110000041C4F2010188420AD1FFE7009820F093
:102120007000009001984168009808430090FFE714
:1021300002980021C4F20101884255D0FFE70298BD
:10214000B0F1804F50D0FFE7029840F20041C4F256
:102150000001884248D0FFE7029840F60001C4F22F
:102160000001884240D0FFE7029840F60041C4F2E7
:102170000001884238D0FFE7029840F20041C4F2E3
:102180000101884230D0FFE7029844F20001C4F216
:102190000101884228D0FFE7029844F20041C4F2CE
:1021A0000101884220D0FFE7029844F60001C4F202
:1021B0000101884218D0FFE7029841F60001C4F2FD
:1021C0000001884210D0FFE7029841F60041C4F2B6
:1021D0000001884208D0FFE7029842F20001C4F2F1
:1021E000000188420AD1FFE7009820F44070009077
:1021F0000198C168009808430090FFE7009820F01C
:10220000800001994969084300900098029908608C
:10221000019880680299C8620198006802998862F2
:1022200002980021C4F20101884208D0FFE7029819
:1022300040F20041C4F20101884205D1FFE7019854
:10224000006902990863FFE702990120486103B021
:102250007047000085B004900391029201930498A6
:1022600080680090009820F47F40009003980299C5
:10227000019A41EA02210143009808430090009826
:102280000499886005B0704783B00290019102986C
:1022900080680090009820F07000009001980099EC
:1022A000084340F00700009000980299886003B04E
:1022B0007047000085B00490039102920498006A70
:1022C00000900499086A20F001000862049880696F
:1022D0000190019820F0F00001900299019840EAE5
:1022E00001100190009820F00A00009003990098D6
:1022F0000843009001980499886100980499086245
:1023000005B0704785B00490039102920499086A61
:1023100020F0100008620498806901900498006A17
:102320000090019820F4704001900299019840EAD1
:1023300001300190009820F0A000009003990098CF
:1023400040EA01100090019804998861009804996E
:10235000086205B070470000FFE7FEE780B584B073
:102360008DF80F009DF80F00C0B9FFE70020029024
:10237000FFE70298072810DCFFE7029940F2C4004B
:10238000C2F2000000EB01100901C9B200F0D4F95B
:10239000FFE7029801300290EBE719E0002001907E
:1023A000FFE70198072812DCFFE7019940F2C4001B
:1023B000C2F2000000EB0110C1F107010901C9B22E
:1023C00000F0BAF9FFE7019801300190E9E7FFE773
:1023D00004B080BD80B58AB040F2C400C2F20000F3
:1023E0000990089080300790FFE708980799884285
:1023F0000AD0FFE708980690069800F039F9FFE741
:10240000089810300890F0E740F2BC00C2F20000DB
:102410000168013101600068B0F57A7F34D1FFE7CF
:1024200040F2C400C2F20000059004908030039096
:10243000FFE70498039988421FD0FFE704980290B1
:10244000029800F0BBF98DF807009DF8070038B935
:10245000FFE70298817B0139C9B200F06DF907E00E
:1024600002989DF807100139C9B200F065F9FFE73D
:10247000FFE7049810300490DBE740F2BC01C2F2A1
:10248000000100200860FFE70AB080BD80B540F27F
:10249000C000C2F20000017881F0010101700078F3
:1024A000FFF75CFF80BD000080B586B08DED040BAA
:1024B0008DED031A9DED040B8DED000B039802F0DA
:1024C00061F89DED000B41EC110B00F07DFA06B0B8
:1024D00080BD00000000000010B5A6B022A841F6A3
:1024E0000001C4F2020100910222802301939FEDBA
:1024F0005E0B8DED020B00F02DF90099019B9DED17
:10250000020B40F2C402C2F2000205922298DDF8EA
:102510008CC0DDF890E0DDF89340C2F80B40C2F8C3
:1025200008E0C2F804C010601EA8042200F012F9EE
:102530000099019B9DED020B059A1E98DDF87CC069
:10254000DDF880E0DDF88340C2F81B40C2F818E0F7
:10255000C2F814C010611AA8082200F0FBF8009914
:10256000019B9DED020B059A1A98DDF86CC0DDF811
:1025700070E0DDF87340C2F82B40C2F828E0C2F8E2
:1025800024C0106216A8102200F0E4F80099019B04
:102590009DED020B059A1698DDF85CC0DDF860E051
:1025A000DDF86340C2F83B40C2F838E0C2F834C0FE
:1025B000106312A8202200F0CDF80099019B9DED38
:1025C000020B059A1298DDF84CC0DDF850E0DDF8FA
:1025D0005340C2F84B40C2F848E0C2F844C010640F
:1025E0000EA8402200F0B6F80099019B9DED020B69
:1025F000059A0E98DDF83CC0DDF840E0DDF8434078
:10260000C2F85B40C2F858E0C2F854C010650AA88E
:102610001A4600F09FF80099019B9DED020B059A68
:102620000A98DDF82CC0DDF830E0DDF83340C2F860
:102630006B40C2F868E0C2F864C0106606A84FF4A8
:10264000807200F087F805990698079A089BDDF8D4
:1026500023C0C1F87BC08B674A6708670020FFF77B
:102660007DFE26B010BD00BF9A99999999990140B5
:1026700080B584B00390039902918879897B884260
:102680000BD1FFE702998868898900220192FEF741
:1026900081F9029901988871FFE7029801798079A0
:1026A000884207D1FFE70299886889890122FEF7ED
:1026B00071F9FFE7029988790130887104B080BD13
:1026C00080B586B0059005980490407900EE100A18
:1026D000B8EE400A10EE100A01F054FF41EC100B66
:1026E00051EC100B9FED120B53EC102B0393029245
:1026F00001F018FA0246049801920A46019942EC48
:10270000101B90ED001AFFF7CFFE029A039B51ECCD
:10271000100B01F0E3FB41EC100B00F085FF51ECD6
:10272000100B01F059FB0499087106B080BD00BF81
:10273000000000000000604080B582B001908DF87C
:10274000031001989DF803104171FFF7B9FF02B023
:1027500080BD000080B588B007900691ADF81620C6
:102760008DF815308DED020B079901910698886060
:10277000BDF8160088819DF8150088730020009030
:10278000487108719DED020B51EC100B01F0DCF863
:102790000099024601980260817108B080BD000076
:1027A00081B0009000980021816081818173417126
:1027B00001710160817101B07047000081B000902B
:1027C0000098407901B0704781B08DF803009DF901
:1027D000030000280ED4FFE79DF9031001F01F024B
:1027E000012090404A094EF20011CEF2000141F85A
:1027F0002200FFE701B070474EF60C50CEF2000009
:102800000068C0F30220704782B08DF80700009185
:102810009DF9070000280AD4FFE7009800019DF900
:1028200007104EF20042CEF2000288540BE00098EE
:1028300000019DF8071001F00F014EF61452CEF280
:1028400000028854FFE702B07047000083B0029096
:10285000029800F0070000904EF60C51CEF20001F5
:102860000868019001984FF6FF021040019001980E
:10287000009A40EA02200022C0F2FA52104301906E
:102880000198086003B0704780B582B040F27000D4
:10289000C2F200000078BFF35F8FC00730BBFFE7D4
:1028A00040F27000C2F2000000F040F8F0B1FFE723
:1028B00040F2C400C2F200000190FFE701980090CE
:1028C000FFF76EFF009800F11001084640F2C402C5
:1028D000C2F20002803291420190EFD1FFE740F254
:1028E0007000C2F2000000F051F8FFE702B080BDB6
:1028F000FDF792FD80B582B000200190FEF776F8DA
:10290000FFF762FBFFF734FAFFF7B0FA00F002F8C6
:10291000FFE7FEE780B540F27400C2F20000FEF768
:1029200089FFFFF7D9FDFFE7FEE7000080B50178DA
:1029300009B1002080BD4178012903D08A0705D460
:1029400002224270481E18BF012080BD01A0FFF77F
:10295000CFFF00BF5F5F6378615F67756172645F1F
:10296000616371756972652064657465637465641B
:102970002072656375727369766520696E69746922
:10298000616C697A6174696F6E00000001210170E9
:102990004170704703B401984100009850EAC1208B
:1029A00018BF04204A0D18BF40F0010040F2FF722A
:1029B000B2EB515F08BF40F00200012808BF0520BC
:1029C00002B07047000000002DE9F04D2DED040B22
:1029D0002DED0E8B94B0DDE92350259CDDF888A009
:1029E00025F0004624F00048BAF1000F14BF012181
:1029F000002101EB4502FC4953184A1093422AD3A7
:102A0000002814BF0123002303EB44030B44F749C0
:102A10008B4220D358EA00019FEDF5AB76D0DFF86A
:102A2000D8B35D4503D1BAF1000F05D188E0BAF102
:102A3000000F08BF002100D0012101EB450111F575
:102A4000001F08D8002814BF0121002101EB440118
:102A500011F5001F0BD99DED241B9DED220B14B029
:102A6000BDEC0E8B04B0BDE8F04D00F0E1BE0027D8
:102A7000002DBCBFE149884521DAE1498845A8BF5E
:102A800002271CDAC3451ADCDE4901EB2851142960
:102A900008DDC1F1340220FA02F101FA02F28242A9
:102AA0000DD108E058B9C1F1140228FA02F101FA77
:102AB00002F2424503D101F00101C1F1020756EAD9
:102AC0000A0124D1002C22DA002D18BF022F01D0D8
:102AD000012F0AD00220FDF794FC14B0BDEC0E8B40
:102AE00004B0BDE8F04D00F08BBE0220FDF789FC7C
:102AF00000F086FE51EC100B00F019FF41EC100BBA
:102B000014B0BDEC0E8B04B0BDE8F08D18E09FED65
:102B1000BE9B9FEDBF8B002871D1B848804522D164
:102B200005F1804010F5801008BFBAF1000F07D002
:102B3000B3450ADC002CA8BF9DED240BE0DA0DE0C4
:102B4000B0EE4A0AF0EE6A0ADAE7002C06DA9DEDEA
:102B5000240B51EC100B00F0EAFE6FE0AE48784415
:102B600090ED000BCCE7D8454DD1002C48DA2EB1C2
:102B700086423AD1BAF1000F42D126E0BAF1000FF5
:102B800013D00220FDF73DFC00F06EFE8DED020B30
:102B90009DED220B8DED000B10EE900A039961F371
:102BA0001E0003909DED020BAAE78DED029B9DEDAB
:102BB000220B19EE901A10EE900A8DED000B61F3C6
:102BC0001E0003909DED020B9AE78DED028B9DEDAB
:102BD000220B18EE901A10EE900A8DED000B61F3A7
:102BE0001E0003909DED020B8AE709DA9DED220B92
:102BF00051EC1A0B53EC102B00F094FF1EE020E078
:102C00009DED220B7CE786421BDAB4F1804F0DD09C
:102C1000A4F10050B0F1FF5013D1002D11DB9DED58
:102C2000220B51EC100B00F04BFE07E09DED220B48
:102C300053EC102B51EC100B00F0CABC41EC100B04
:102C40005EE79DED220B51EC100B00F02DFEBAF16A
:102C5000000FCDE90A0142D19FED710B46B3A6F1F9
:102C6000E040B0F17F600CD05E4538D1002D00DA35
:102C7000A7B3022F0CBF01204FF0FF3001F0DBF8AB
:102C8000DCE7002D01DD002C0DDA002D01DD002C2C
:102C90001FDB002D16DA002C14DB012F08BF9FED7F
:102CA000620B3FF42DAFB0EE490AF0EE690A27E758
:102CB000022F18BF002D0CD0012F0AD1002DFFF6D6
:102CC0001FAF06E0002DB8BF002C08DA012F3FF43B
:102CD00017AFB0EE480AF0EE680A11E71BE00120DA
:102CE00000EBE57050EA070115D0791EB0EE4A8A74
:102CF000F0EE6A8A084308BF9FED4D8B4E480025D1
:102D0000804570DD4D494E48884514DDB0420DDBED
:102D1000002C19DB2FE00120FDF773FB14B0BDEC94
:102D20000E8B04B0BDE8F04D00F08EBDB34502DC63
:102D3000002C09DC1FE0864202DA002C1BDA03E0DB
:102D40005E452BDD002C16DD0220FDF75AFB00F05E
:102D50008BFD8DED020B53EC192B51EC180B01F090
:102D6000BDF8CDE900010399019861F31E000390BD
:102D70009DED020BC4E60220FDF743FB00F084FD4D
:102D800010EE901A18EE900A8DED020B8DED008B6F
:102D900061F31E0003909DED020BB1E69DED0A0B61
:102DA00053EC1A2B51EC100B01F0FEFA9FED260BA1
:102DB000CDE90A0153EC102B9DED0A0B51EC100BE1
:102DC00001F08CF89FED221B53EC112B01F014FA4B
:102DD0009DED0A1B53EC112B01F080F89FED1E1B9B
:102DE00053EC112B3CE08CE0FFFF1F00FFFF0F00B6
:102DF000000000000000F03F0000F03F0000F07F06
:102E00000000404301FCFFFF000000000000F07FD5
:102E10000000000000000000A61C000000000000F0
:102E20000000000000000080000000000000F0FF33
:102E3000000000000000F0BF0000E0410000F0438F
:102E4000FFFFEF3F00000000000000000000D03F47
:102E5000555555555555D53F000000000000E03F41
:102E600001F0CAF99DED0A0B41EC190B53EC102B44
:102E700051EC100B01F032F853EC192B01F02EF845
:102E80009DED0A0B41EC1B0B53EC102B9FEDFE0B41
:102E900051EC100B01F022F841EC190B9FEDFC0BEB
:102EA00051EC1B0B53EC102B01F018F841EC1B0BF1
:102EB0009FEDF90B53EC102B9DED0A0B51EC100B11
:102EC00001F00CF853EC1B2B01F06EFA41EC1B0BDC
:102ED00051EC190B53EC1B2B00F068FD0490CDE96D
:102EE00004519DED040B53EC192B51EC100B01F028
:102EF0005BFA53EC1B2B01F07FF941EC100B00F057
:102F0000A9B90020B6F5801F0EDA9FEDE50B53EC52
:102F1000102B9DED0A0B51EC100B00F0DFFFCDE9FB
:102F20000A016FF034000E4600EB2650A0F2FF3786
:102F3000C6F31300DC4940F07F6646F040568842F5
:102F4000D8BF002408DDD9498142C8BF012403DC71
:102F50000024A6F580167F1CD548784400EBC408F1
:102F60000B9698ED000B53EC102B9DED0A0B51ECDA
:102F7000100B01F019FA98ED000B41EC1B0B53EC10
:102F8000102B9DED0A0B51EC100B00F00FFD41ECE6
:102F9000100B51EC1A0B53EC102B00F0C3FD41EC5D
:102FA0001C0B51EC1B0B53EC1C2B00F097FF41EC5E
:102FB000190BC0488DED0E9B78440E9590ED000BDB
:102FC0004FF0005040EA660000EB84408DED120B9C
:102FD00000F50020139098ED000B53EC102B9DEDA5
:102FE000120B51EC100B01F0DFF99DED0A1B53ECB5
:102FF000112B01F001F941EC100B53EC102B9DED5E
:103000000E0B51EC100B00F069FF9DED120B41EC23
:103010001D0B53EC102B9DED0E0B51EC100B00F023
:103020005DFF53EC1B2B01F0E7F853EC1D2B01F077
:10303000BBF953EC1C2B00F051FF41EC1C0B53EC83
:10304000192B51EC190B00F049FF41EC1B0B9A486E
:103050000621B0EE4B0AF0EE6B0A784400F054FB08
:10306000B0EE401AF0EE601AB0EE41DAF0EE61DA3E
:1030700053EC1B2B51EC1B0B00F030FF53EC1D2BC2
:1030800000F02CFF9DED0E0B41EC1B0B53EC192BAC
:1030900051EC100B00F08AFC53EC1C2B00F01EFFCF
:1030A00053EC1B2B00F082FC9DED0E0B41EC1B0B37
:1030B00053EC102B51EC100B00F010FF41EC1D0BEA
:1030C00053EC1D2B9FED7EEB51EC1E0B00F06EFCC4
:1030D00053EC1B2B00F06AFC1290CDE912519DEDD0
:1030E000120B53EC1E2B51EC100B01F05DF953EC5D
:1030F0001D2B01F059F953EC1B2B01F07DF89DEDD0
:10310000120B41EC1D0B53EC102B9DED0E0B51ECF3
:10311000100B00F0E3FE41EC1B0B53EC192B51ECB0
:103120001D0B00F0DBFE9DED120B41EC190B53EC77
:10313000102B51EC1C0B00F0D1FE53EC192B00F0BE
:1031400035FC41EC190B51EC1B0B53EC192B00F027
:103150002DFC0490CDE904519DED040B53EC1B2B89
:1031600051EC100B01F020F953EC192B01F044F84D
:103170009DED040B41EC190B53EC102B9FED520B02
:1031800051EC100B00F0AAFE41EC1B0B9FED500B15
:1031900051EC190B53EC102B00F0A0FE9DED040B2D
:1031A00041EC190B53EC102B9FED4B0B51EC100B1A
:1031B00000F094FE53EC192B00F0F8FB41EC100BDF
:1031C0004748784400EBC40090ED001B51EC100B15
:1031D00053EC112B00F0EAFB41EC190B384600F0E0
:1031E0002AFECDE90A0153EC192B51EC1B0B00F020
:1031F000DDFB41EC100B3B48784400EBC40451EC80
:10320000100B94ED001B53EC112B00F0CFFB9DED48
:103210000A1B53EC112B00F0C9FB0490CDE90451BB
:103220009DED0A0B53EC102B9DED040B51EC100B94
:1032300001F0BAF894ED001B53EC112B01F0B4F837
:1032400053EC1B2B01F0B0F853EC192B00F0D4FF1A
:1032500041EC100B9DED241B53EC102B8DED001B4E
:1032600000959DED240B51EC100B00F037FE9DED09
:10327000000B41EC190B53EC102B9DED240B51EC82
:10328000100B01F091F82FE0000000604715F73FA8
:10329000FE822B654715F73F44DF5DF80BAE543EC9
:1032A00000000000000040438E9803007AB60B0037
:1032B000221800004C180000521700000000000007
:1032C0000000000000000840000000E009C7EE3FD9
:1032D000FD033ADC09C7EE3FF5015B14E02F3EBE6B
:1032E000DA150000941500009DED041B53EC112B22
:1032F00000F0F4FD53EC192B00F058FB9DED040B8E
:1033000041EC190B53EC102B9DED000B51EC100B05
:1033100000F0E4FDCDE904019DED040B51EC190B27
:1033200053EC102B00F042FBCDE902010C46AA49F8
:103330008C422FDB611A084318D19DED040B53EC2E
:10334000102B9DED020B51EC100B01F02DF841EC10
:103350001B0B9FEDA30B51EC190B53EC102B00F042
:1033600025FB53EC1B2B00F0B7FE2DD20220FDF7FE
:1033700048F800F079FA10EE901A18EE900A8DEDE8
:10338000020B8DED008B61F31E0003909DED020B8F
:10339000FFF7B6BB944A24F00041914214D39349FD
:1033A000214408437FF4E7AC9DED040B53EC102B54
:1033B0009DED020B51EC100B00F0F6FF53EC192BB6
:1033C00000F08AFE7FF6D7AC24F000408849894A95
:1033D000002601EB205182422BDA481C4FF4801169
:1033E00021FA00F02044844AC0F30A517A44A1F241
:1033F000FF3192ED000B814A8DED0A0BCA4020EAA5
:103400000202C0F3130040F48010C1F1140120FA4D
:1034100001F60B92002CB8BF76429DED0A0B53ECDF
:10342000102B9DED040B51EC100B00F0BDFFCDE90E
:1034300004019DED040B51EC190B53EC102B00F023
:10344000B5FA9FED6F0B0A90CDE90A5153EC102BA2
:103450009DED0A0B51EC100B00F040FD41EC1B0BF5
:103460009FED690B53EC102B9DED0A0B51EC100BEB
:1034700000F034FD9DED040B41EC1C0B53EC102BC4
:103480009DED0A0B51EC100B00F08EFF53EC192B45
:1034900000F0B2FE9FED5E1B53EC112B00F01EFD01
:1034A00053EC1C2B00F082FA41EC190B51EC1B0B76
:1034B00053EC192B00F07AFACDE902019DED020BD5
:1034C00053EC1B2B51EC100B00F06EFF53EC192B3F
:1034D00000F092FE9DED020B41EC190B53EC102B0A
:1034E00051EC100B00F0FAFCCDE90A014A489DEDC1
:1034F0000A0B0521784400F007F99DED0A1B51ECF9
:10350000100B53EC112B00F0E9FC9DED021B53EC6A
:10351000112B00F071FECDE904019DED020B53EC7F
:10352000192B51EC100B00F0D9FC53EC192B00F0C7
:103530003DFA9FED3B0B41EC190B53EC102B9DED2D
:10354000040B51EC100B00F02FFF9DED040B41EC30
:103550001B0B53EC102B9DED020B51EC100B00F0EC
:10356000BDFC53EC1B2B00F0DDFA53EC192B00F0E3
:103570001BFF9DED021B53EC112B00F015FF53ECCC
:103580001A2B00F039FECDE9020101EB06500115BE
:103590000029C8BF039015DC9DED020B324651ECAB
:1035A000100B01F0A4F8FFF7F5F9042808BF00F0AC
:1035B0006BF932469DED020B51EC100B01F097F8C0
:1035C000CDE902019DED020B51EC180B53EC102BD1
:1035D00000F084FCFFF732BB0000904000000000C8
:1035E000FE822B654715973C00CC904000346F3F1E
:1035F00001FCFFFF0000E03F18140000FFFF0F0078
:1036000000000000432EE63F396CA80C615C20BE30
:10361000EF39FAFE422EE63FE812000000000000FB
:10362000000000000000004010B52DED020B2DED54
:10363000088B84B09DED0C0B51EC100B00F082FD5B
:1036400041EC180B9DED0C0B53EC182B51EC100BAF
:1036500000F0AAFE41EC190B0D989FED290B10F01C
:10366000004F53EC102B51EC190B9FED21AB9FED4C
:1036700022BB0ED000F0F6FB0ED953EC1B2B51EC05
:10368000190B00F029FD1CD214E000BF41EC180B0F
:1036900017E000F0E7FB06D253EC1A2B51EC180BA5
:1036A00000F082FEF2E753EC1B2B51EC190B00F0FB
:1036B00013FD06D853EC1A2B51EC180B00F076F9D9
:1036C000E4E78DED028B9DED0C0B18EE901A10EED9
:1036D000900A8DED000B61F31E0003909DED020B2F
:1036E00004B0BDEC088B02B010BD0000000000006B
:1036F000000000000000F03F000000000000E03F7C
:10370000000000000000E0BF70B504462DED028B04
:103710004D1E00EBC500B0EE408AF0EE608A90EDE1
:10372000000B35F0060017D053EC182B51EC100BA2
:1037300000F0D4FB41EC100B6D1E04EBC50090EDC6
:10374000001B51EC100B53EC112B00F02FF941EC46
:10375000100B35F00600E7D1022D36D0042D1CD019
:10376000062D1CBFBDEC028B70BD53EC182B51EC29
:10377000100B00F0B3FB94ED0A1B53EC112B00F07F
:1037800015F953EC182B00F0A9FB94ED081B53EC32
:10379000112B00F00BF941EC100B53EC182B51ECF2
:1037A000100B00F09BFB94ED061B53EC112B00F06B
:1037B000FDF853EC182B00F091FB94ED040B53EC47
:1037C000102B00F0F3F841EC100B53EC182B51ECDC
:1037D000100B00F083FB94ED021B53EC112B00F057
:1037E000E5F853EC182B00F079FB94ED001B53EC3B
:1037F000112B00F0DBF8BDEC028B41EC100B70BD1F
:103800009FED070B10B553EC102B9FED070B51EC00
:10381000100B00F087F941EC100B10BD0000000008
:103820000000000000000000000000000000F03F69
:1038300010B553EC112B51EC100B00F0B7F841EC24
:10384000100B10BD000000009FED050B10B553ECF0
:10385000102B51EC100B00F065F941EC100B10BD72
:1038600000000000000000009FED050B10B553ECB8
:10387000102B51EC100B00F031FB41EC100B10BD84
:1038800000000000000000709FED050B10B553EC28
:10389000102B51EC100B00F021FB41EC100B10BD74
:1038A000000000000000001082B0CDE9000121F00E
:1038B000004001909DED000B02B051EC100B7047E1
:1038C00000B52DED048B83B041EC190B00F0A0FC8A
:1038D00041EC180B18EE100A18EE901A8DED008BC3
:1038E000002818BF0120084320F00040C0F17F608D
:1038F00000F1E040C00F14D019EE101A19EE900A32
:103900008DED009B002918BF0121084320F00040E5
:10391000C0F17F6000F1E040C00F04BF0120FCF760
:1039200070FD51EC180B03B0BDEC048B00BD81F0B1
:103930000041704780F00040704721F0004170471F
:1039400020F000407047000021F0004201F00043E9
:10395000A2F16052B2F5801F28BFD2F17F6C0BD963
:103960005FEA001C43EAC20242EB507018BF704786
:1039700028BF20F001007047B2F5801FBCBF184679
:1039800070474FEA410C1CF5001F02D2084600F0B8
:1039900077BE70B500F04CFB00000089FFF7F6BF62
:1039A0004FF00040A0F580007047000010B591EA8C
:1039B000030F48BF83F0004300F1FE84841A71EBCB
:1039C000030C05D2121943EB0C03001B61EB0C0135
:1039D0004FEA1154A4EB135CDFF81CE11EEA430F1D
:1039E00018BF9EEA445F00F0748021EA045123EA84
:1039F0000E0343F48013DCF1200E32D322FA0CFEC6
:103A000010EB0E0023FA0CFE41EB0E01CCF1200E60
:103A100003FA0EFE10EB0E00CCF1200E51F1000166
:103A2000B1F5801F32D201EB045112FA0EF2BDE85B
:103A3000104058BF7047401C38BF5FEA420218BFB1
:103A40007047002814BF20F0010041F100014FEA47
:103A5000410313F5001F38BF7047A1F1C04100F0CA
:103A600035BB012A43EB0302ACF1200CDCF11F0E45
:103A700032BF4FF0000E23FA0CF310EB030041EBC2
:103A80000451B4EB115FD0D0A1EB045101F58011CA
:103A9000490801EB04515FEA30000ED350F10000F9
:103AA00038BF12FA0EFE08D1BDE81040C9E7401C2D
:103AB00038BF5FEA4202CAD1C3E7BDE810404FEA0F
:103AC000410313F5001F38BF7047A1F1C04100F05A
:103AD000FDBA9EEA445F08D011EA5E0FBDE81040CF
:103AE00004BF01F0004100207047BDE8104070B5F0
:103AF00000F09EFA64FBBE3E0000E0FF02494FF07A
:103B0000000000F0C2BD00BF0000F87F491058BFA0
:103B1000C1F140415B1058BFC3F140438B42EFF30A
:103B2000008070472DE9C04130B4DFF8A4C23CEA00
:103B3000111418BF3CEA131400F0ED801CEA1114B4
:103B400081EA030544EAD57418BF1CEA131500F096
:103B5000C880A4EB050404F17F7404F500344FF031
:103B6000004545EAC12145EAC32341EA505143EAF1
:103B700052534FEAC0204FEAC222994208BF9042F6
:103B800000F09D804FEA13650FF24416765D4FEA10
:103B9000134506FB05F7C7F1807706FB07F74FEAE9
:103BA000D737A7FB03687642A7FB06CEC8F5803857
:103BB00038BFA8F1010807FB08E6A6FB028C4FF00E
:103BC000000EE6FB03CEDCF1000CCEF1004E38BF58
:103BD000AEF1010EA6FB0C584FF00007E6FB0E8776
:103BE000A1FB08C6A0FB07CE16EB0E064FF00005A2
:103BF00045F10005E1FB076515F1E04E7EBFA4F538
:103C000080345FEA46066D4116F1800745F10005F4
:103C10004FEA172747EA05674FEA15254FEA066678
:103C2000A6F1DE46B6F1805F20D9384605EBC471B7
:103C300024F0010C01EB0C11BCF1FE6F02D8F0BCBA
:103C4000BDE8008124425CBF01F5801E9EEAC47F6E
:103C500002D4F0BCBDE80081244200F13980A1F11A
:103C6000C041F0BCBDE8004100F030BA4FEAD020BE
:103C700040EA41504FEAD1214FEAD22242EA435270
:103C80004FEAD323A7FB028607FB036605FB026608
:103C90001EEA0E0F58BFA6EB0056B6EB00564FEAD1
:103CA000520E4EEAC37E18EB0E0E56EB530EBCD5E9
:103CB00018EB02085E417F1C55F10005B5E74FF493
:103CC00080154FF000074FF000064FF00008ACE7FA
:103CD00001F1C04101F000414FF00000F0BCBDE82F
:103CE00000810CEA131511EA0C1F00D00CE013EA56
:103CF0000C1F00F026804FF0000081EA030101F064
:103D00000041F0BCBDE80081F0BCBDE8004181EAA3
:103D1000030100F0DBB9F0BCBDE8004170B500F074
:103D200087F900BF097EFC3E00F007B84FF00000A5
:103D300081EA030101F00041704781EA030100F0CC
:103D4000C5B9F0BCBDE8004122494FF00000704702
:103D5000FFFDFBF9F7F5F4F2F0EEEDEBE9E8E6E450
:103D6000E3E1E0DEDDDBDAD8D7D5D4D3D1D0CFCDD7
:103D7000CCCBCAC8C7C6C5C4C2C1C0BFBEBDBCBB10
:103D8000BAB9B8B7B6B5B4B3B2B1B0AFAEADACAB0B
:103D9000AAA9A8A8A7A6A5A4A3A3A2A1A09F9F9EE5
:103DA0009D9C9C9B9A999998979796959594939397
:103DB000929191908F8F8E8E8D8C8C8B8B8A89892E
:103DC00088888787868585848483838282818180B1
:103DD0000000FF070000F87F4FEA41034FEA53530A
:103DE000A3F58063D3F11E03C8BFD3F1210C0CDD12
:103DF0004FF0004242EAC12242EA505232FA03FC3A
:103E00008CEAE17CACEBE1707047102BC4BF002062
:103E1000704703F5787CBCF1FF3F04D06FF000429F
:103E200082EA2100704770B500F002F949922480BF
:103E300000207047F2E710F0004248BF4042B0FA5D
:103E400080F310FA03F10AD0C3F11D0303F5806378
:103E500002EB03524FEA415002EBD12170474FF081
:103E60000000704751EA030C17D41CF5801F58BF9F
:103E7000BCF5801F00F10680994218BF704708BF4B
:103E80009042704707D711F5801F58BF13F5801F68
:103E900019D499427047894270471CF5801F08D594
:103EA000BCF5801FF7D58B4218BF704708BF824210
:103EB00070474FF4001C1CEB410F38BF1CEB430F45
:103EC00001D28B42704770B500F0B2F892244900DD
:103ED0004FF000514FF08053FFF718BE70B5DFF878
:103EE00048C11CEA111E1EBF1CEA13159EEA0C0FE6
:103EF00095EA0C0F00F06F8081EA03044EEAD47E4D
:103F0000AE4421EA4C1123EA4C1341F4801143F4EE
:103F10008013AEF17F7EA1FB024CA0FB0365361936
:103F200055EB0C05A1FB034C4CF10003A0FB021C5C
:103F300016EB0C06654153F10003094218BF46F029
:103F4000010613F4007F0BD14FEA03314FEA05302D
:103F500041EA155140EA165034036FF003020AE0BB
:103F60004FEAC3214FEAC52041EA555140EA565075
:103F7000F4026FF0020202EB2E4201EB025585EAD9
:103F8000CE710AD05FEA440C18BF24F0004450F10F
:103F9000000041F1000120EAD47040F2FE7C62454D
:103FA00000D270BDA84214BF4FF080444FF040448F
:103FB000002E08BF0024BEF1806FA8BFA1F1C04150
:103FC000BDE8704080F2828001F1C04101F0004103
:103FD0004FF0000070470CEA13159EEA0C0F18BF53
:103FE00095EA0C0F06D081EA030E4FF000000EF0A8
:103FF000004170BD00F01CF88900013E00F007B8D8
:1040000000F009B84FEA430C5FEA5C5C08D081EA33
:10401000030100F05BB84FEA410C5FEA5C5CF6D14B
:1040200002494FF0000070470000FF070000F87FD2
:104030000EF1020E2EF0030E5EF8046B364205D42C
:10404000012A43EB030515F5001F12D8012841EBA7
:10405000010C1CF5001F0CD80ED14FEAD17C0CEBE3
:104060004C0C0CF1020C15F5001F08BF4CEBD37C77
:1040700004E04FF0080C01E04FEAD37C0CEB4C0558
:1040800026FA05F606F00706B6F1040C06D20EEB8A
:10409000860CBDE870404CF0010C6047DFE80CF086
:1040A000090B02024FF00041A1F500214FF0000082
:1040B00070BD19461046012851EB010418BFD4F514
:1040C000001484BF002001F0004170BD0808A0F575
:1040D00000114FEA3101704753EA010C17D41CF567
:1040E000801F58BFBCF5801F00F106808B4218BFAF
:1040F000704708BF8242704707D713F5801F58BF2B
:1041000011F5801F19D48B4270479B4270471CF5F4
:10411000801F08D5BCF5801FF7D5994218BF70479E
:1041200008BF904270474FF4001C1CEB430F38BF90
:104130001CEB410F01D2994270470FB40CBC03BC79
:10414000FFF7C1BE5FEA410C5FEA5C5CACF58063DF
:104150005B1C39D4D3F1340240F34580B2F1200323
:1041600014DA4FF0010C0CFA02FCACF1010303402D
:1041700020EA0300B3EB5C0208BF10EA0C0F98BF03
:10418000704710EB0C0041F1000170470AD0C3F1F9
:10419000200201FA02FC01284CF1000021FA03F18F
:1041A00001FA03F14FF0010C0CFA03FCACF101032E
:1041B00021EA0301B0F1004F08BF11EA0C0F4FF0E4
:1041C000000088BF61447047B3F1FF3F28BF50EA49
:1041D000C12C01F000414FF0000084BF41F07C5140
:1041E00041F470017047B3F5806FB8BF704770B588
:1041F000FFF71EFF40DBB6BE10B591EA030F81F05A
:1042000000413FF5DBAB83F0004300F0D5B8000080
:104210002DE9F04101F5801CBCF5001FC0F2A9801A
:104220004FEA115C21EA0C5141F480110CF1FD0CB4
:104230005FEA5C0C0CF5C07C01D340004941890267
:1042400041EA905187022EA48E0EA45D0A0C04FB55
:1042500004F602FB06F6C6F14046A4FB0662F60D24
:1042600046EA422606FB06F4A4FB01235242C3F1B0
:10427000404338BF5B1EA6FB02420024E6FB03243A
:10428000D20B42EA4446A6FB0623A1FB02E2A3FBB3
:1042900007E4E3FB61426442C2F1404E38BFAEF135
:1042A000010EA6FB04234FF00002E6FB0E32A2FB38
:1042B00003463400E2FB6264A1FB06E6A4FB07E8C8
:1042C000E4FB61687642C8F1405838BFA8F10108A4
:1042D000A2FB06E4A3FB08E5E2FB6854A1FB05E6AC
:1042E000A7FB04E8E1FB648618F1200556F10006FF
:1042F000A80940EA8660B109A8F11B0808F03F0848
:10430000B8F10A0F1CD901EB0C51BDE8F08100BFD8
:10431000FCF5EEE8E2DDD8D3CFCBC7C3C0BDB9B65C
:10432000B4B1AEACA9A7A5A3A19F9D9B9A98969561
:104330009392908F8D8C8B898887868584838281E8
:10434000A0FB006800FB01F208EB4208B8EB8728ED
:1043500007D5341858EB0104D5D5401C51F10001A4
:10436000D1E7341A78EB0104CDD4401E71F100017D
:10437000C9E75FEA4C0C5FEA9C5C0DD105D301F004
:1043800000414FF00000BDE8F081BDE8F04170B59C
:10439000FFF74EFE6DDBFFBEBDE8F04101494FF077
:1043A000000070470000F87F10B591EA030F48BF86
:1043B00083F000433FF502AB841A71EB030C07D284
:1043C0008CF0004C121943EB0C03001B61EB0C0149
:1043D0004FEA1154A4EB135CDFF8A4E11EEA430F8B
:1043E00018BF9EEA445F00F0B48021EA045123EA3A
:1043F0006E035242C3EB6E0338BF5B1EDCF1200E2E
:1044000025D322FA0CFE10EB0E0043FA0CFE41EB12
:104410000E01CCF1200E03FA0EFE10EB0E00CCF1D3
:10442000200E51F1000129D401EB045112FA0EF2D1
:10443000BDE8104058BF7047401C1CBFB2F1004F90
:10444000704700280CBF491C20F00100704712EB98
:10445000020E43EB030218BF4FF0010E4EEA420278
:10446000ACF1200CDCF11E0E56D943FA0CFE10EB19
:104470000E00CCF11E0E51F1FF31D5D50EF1010E1B
:1044800012FA0EFE404141EB010101EB445C5FEA90
:104490005C5C10D901EB045110EBDE7038BFBEF14B
:1044A000004FBDE8104018BF704700280CBF491CE2
:1044B00020F00100704734D24FEAD42C24F4006479
:1044C00011F500111BD0B1FA81F20B3AA41AA41E07
:1044D000D2F12003914030FA03F31943904001EBED
:1044E000CC7101EB0451002CBDE81040A8BF70470F
:1044F00001F1C04101F000414FF000007047B0FAF7
:1045000080F310FA03F102D1BDE810407047E41ABD
:10451000173C4805C90AE2E701EB0451BDE8104029
:10452000704749104FEA300001EB0451BDE81040DC
:1045300002E04FF0000170474A0008BF0042F8D087
:10454000B2F5001F28BF704701F000414FF0000096
:1045500070479EEA445F07D011EA5E0FBDE8104045
:1045600004BF002100207047BDE8104070B5FFF780
:104570005FFD00BF40DFF63E104683F0004170470C
:104580000000E0FF43004FEAD30C4FEA3C0C4340ED
:104590001FBF40070CF1605113F0FE4F70471CF035
:1045A000006F03D10CF00041002070470CF0004375
:1045B00043EA507040EACC0010B500F00EF800BF9E
:1045C000000000924FEA0001FFF780BD4FF000416C
:1045D000A1F500214FF0000070470EF1020E2EF001
:1045E000030E5EF8044B244204D44FEA4102B2F1B8
:1045F0007F4F11D84FEA4003B3F17F4F0CD80ED153
:104600004FEAD07C0CEB4C0C0CF1020CB2F17F4F5A
:1046100008BF4CEBD17C04E04FF0080C01E04FEAFE
:10462000D17C0CEB4C0324FA03F404F00704B4F13E
:10463000040C06D20EEB840CBDE810404CF0010CCB
:104640006047DFE80CF0070802024FF00040A0F5D9
:10465000800010BD0846420018BFD2F1807288BFAA
:1046600000F0004010BDF1EE100A4FF6FF71C0F2ED
:10467000C03120EA010040F04070E1EE100A7047BE
:10468000FF2141EAD050C00570470CF00F03092B01
:1046900008BF082000F059800A2B0BD0082B18BF48
:1046A000704708BF1CF0400F0AD04FF000004FF0D9
:1046B000000170471CF0400F18BF4FF000407047DA
:1046C0001CF0100F08D000F07F4220F0704342EA47
:1046D000D3014FEA4370704700F0604021F07F4201
:1046E00042EA000201F07F4040EA727070474FF0EA
:1046F000FF0C4CF4E06C1CEA11531CBF9CEA030C49
:104700009445C2BFDA4201EB02517047002B0DD035
:10471000BCF1000F0FD001F00041002AA4BF41F00E
:10472000E04141F07F614FF00000704701F000412F
:104730004FF00000704750EA01334FF09B0C18BF58
:104740004CF0806C7FF4DAA970471CF4801F11D004
:104750001CF4E02F03D06FEACC31490070474FF0D2
:104760004050EFF3008222F0704242EA000282F3EE
:10477000008870474FF00000704700000000000004
:10478000000000000000F03F000000000000F83FC3
:1047900000000000000000000000004003B8E23FFD
:1047A000000000000000000006D0CF43EBFD4C3EAF
:1047B000033333333333E33FFFAB6FDBB66DDB3FA4
:1047C0004D268F515555D53F01411DA96074D13FEC
:1047D00065DBC9934A86CD3FEF4E454A287ECA3FE6
:1047E0003E5555555555C53F93BDBE166CC166BF68
:1047F0002CDE25AF6A56113FF16BD2C541BDBBBE61
:10480000D0A4BE726937663E0000000000000000C0
:104810000000000000000000010203040607080970
:10482000484800080000002010000000E8010008CF
:104830005848000810000020380700000402000853
:1048400049E0FFFF000000000024F4000100000028
:08485000100000000000000050
:04000005080001AD41
:00000001FF
